:0400000067EF0FF0A7
:100F00000001000A006400E8031027280C01064FC6
:100F10007074696F6E31004F7074696F6E32004D7E
:100F2000656E752031004D656E752032004D656E21
:100F3000752033004D656E752034004D656E75313A
:100F4000004D656E7532004D656E7533004D656EF2
:100F50007534002530317500200023002A003E0042
:100F600043000000898089928994899680AA18D0CC
:100F7000010E216E780E366E000E376E530E386EEF
:100F80000F0E396E21C03AF03B6A07EC09F0780E7B
:100F9000326E000E336EF1EC0EF000D080BAFED748
:100FA00080AE18D0020E216E780E366E000E376EAF
:100FB000530E386E0F0E396E21C03AF03B6A07ECC3
:100FC00009F0780E326E000E336EF1EC0EF000D0A8
:100FD00080BEFED780AC18D0030E216E780E366E20
:100FE000000E376E530E386E0F0E396E21C03AF078
:100FF0003B6A07EC09F0780E326E000E336EF1ECAE
:101000000EF000D080BCFED782A407D00B0E216E5C
:10101000D9EC0FF000D082B4FED7899089828994F0
:10102000899680AA18D0040E216E780E366E000EB6
:10103000376E530E386E0F0E396E21C03AF03B6A90
:1010400007EC09F0780E326E000E336EF1EC0EF004
:1010500000D080BAFED780AE18D0050E216E780E73
:10106000366E000E376E530E386E0F0E396E21C07D
:101070003AF03B6A07EC09F0780E326E000E336EE0
:10108000F1EC0EF000D080BEFED780AC18D0060E7A
:10109000216E780E366E000E376E530E386E0F0EC0
:1010A000396E21C03AF03B6A07EC09F0780E326ED7
:1010B000000E336EF1EC0EF000D080BCFED782A49F
:1010C00007D00C0E216E39EC0AF000D082B4FED7A6
:1010D000899089928984899680AA18D0070E216EFA
:1010E000780E366E000E376E530E386E0F0E396E58
:1010F00021C03AF03B6A07EC09F0780E326E000E20
:10110000336EF1EC0EF000D080BAFED780AE18D06E
:10111000080E216E780E366E000E376E530E386E46
:101120000F0E396E21C03AF03B6A07EC09F0780ED9
:10113000326E000E336EF1EC0EF000D080BEFED7A2
:1011400080AC18D0090E216E780E366E000E376E08
:10115000530E386E0F0E396E21C03AF03B6A07EC21
:1011600009F0780E326E000E336EF1EC0EF000D006
:1011700080BCFED782A407D00D0E216E29EC10F0A2
:1011800000D082B4FED7899089928994898680AAFA
:1011900007D00E0E216E14EC10F000D080BAFED7EE
:1011A00080AE18D0000E216E780E366E000E376EAF
:1011B000530E386E0F0E396E21C03AF03B6A07ECC1
:1011C00009F0780E326E000E336EF1EC0EF000D0A6
:1011D00080BEFED780AC07D00F0E216E1BEC10F046
:1011E00000D080BCFED782A409D0100E216E22EC64
:1011F00010F000D082A402D0FDD700D0FF0E496EBF
:101200008A0EE82EFED7492EFCD700D012003A0EE7
:10121000406E000E416E17D1250E4818D8B409D083
:1012200036C0D9FF37C0DAFF48C0DFFF364A372A59
:101230000AD1000E476E000E466E000E426E05D0BB
:101240004284384A392A01D00BD038C0F6FF39C061
:10125000F7FF0800F550300AD8B4F2D701D0F5D71F
:1012600038C0F6FF39C0F7FF0800F550C8EC0FF0A2
:10127000D8A03AD0000E476E000E466E00D046C091
:101280002AF047C02BF0000E2D6E0A0E2C6EA2EC39
:101290000FF02AC046F02BC047F0D00E3C6EFF0E78
:1012A0003D6E38C0F6FF39C0F7FF0800F5503E6EBE
:1012B0003F6A3C503E263D503F223E5046263F501E
:1012C0004722384A392A38C0F6FF39C0F7FF0800EC
:1012D000F550C8EC0FF0D8A007D0D1D705D0C1D0B9
:1012E000B2D0C00E421211D038C0F6FF39C0F7FF9D
:1012F000384A392A0800F5CF48F04850000AD8B4D7
:10130000B0D0750AD8B4EDD79ED040C0D9FF41C047
:10131000DAFFDECF43F0DDCF44F0020E4026000EB0
:101320004122010E486E050E4818D8B416D001D0DF
:1013300014D04850020D010EF324F66E0F0EF42067
:10134000F76E0900F550435C0900F5504458D8A0E9
:1013500004D001D002D0482AE6D7800E48BE7F0EC6
:101360003C6E4650485C4750800A3C58D8B007D085
:101370004850465E000E48BEFF0E475A05D0000E8C
:10138000476E000E466E00D042A415D0465047105E
:10139000D8B426D036C0D9FF37C0DAFF300EDF6EA2
:1013A000364A372A4606D8A0470646504710D8B4D2
:1013B00017D0F0D715D046504710D8B411D036C04A
:1013C000D9FF37C0DAFF200EDF6E364A372A4606CD
:1013D000D8A0470646504710D8B402D0F0D700D066
:1013E00048C045F02AD04550020D010EF324F66E98
:1013F0000F0EF420F76E0900F5CF2CF00A00F5CFA0
:101400002DF043C02AF044C02BF0C3EC0EF02AC0EC
:1014100031F02BC032F0000E346E0A0E336E1BEC2E
:101420000FF03150300F486E36C0D9FF37C0DAFFA9
:1014300048C0DFFF364A372A00D045064528D8B4D1
:1014400002D0D1D700D038C0F6FF39C0F7FF384AF4
:10145000392A0800F5CF48F04850D8B402D0DCD67D
:1014600000D036C0D9FF37C0DAFF000EDF6E1200A1
:101470001200A0D0E5EC0DF0010E2E6E010EB6ECC0
:101480000FF01F0E326E0F0E336EF1EC0EF0010EE8
:101490002E6E0A0EB6EC0FF00F0E326E0F0E336E7C
:1014A000F1EC0EF0020E2E6E0A0EB6EC0FF0170ED7
:1014B000326E0F0E336EF1EC0EF0000E206E010E48
:1014C0001F6E1200E5EC0DF0010E2E6E010EB6EC53
:1014D0000FF0260E326E0F0E336EF1EC0EF0010E91
:1014E0002E6E0A0EB6EC0FF00F0E326E0F0E336E2C
:1014F000F1EC0EF0020E2E6E0A0EB6EC0FF0170E87
:10150000326E0F0E336EF1EC0EF0000E206E010EF7
:101510001F6E1200E5EC0DF0010E2E6E010EB6EC02
:101520000FF02D0E326E0F0E336EF1EC0EF0010E39
:101530002E6E0A0EB6EC0FF00F0E326E0F0E336EDB
:10154000F1EC0EF0020E2E6E0A0EB6EC0FF0170E36
:10155000326E0F0E336EF1EC0EF0000E206E010EA7
:101560001F6E1200E5EC0DF0010E2E6E010EB6ECB2
:101570000FF0340E326E0F0E336EF1EC0EF0010EE2
:101580002E6E0A0EB6EC0FF00F0E326E0F0E336E8B
:10159000F1EC0EF0020E2E6E0A0EB6EC0FF0170EE6
:1015A000326E0F0E336EF1EC0EF0000E206E010E57
:1015B0001F6E120019C034F01AC035F03550000A01
:1015C000D8A412003450010AD8B454D7030AD8B4AE
:1015D00079D7010AD8B49ED7070AD8A41200C2D777
:1015E0001200F2EC0FF0A38017C02AF018C02BF005
:1015F000000E2D6E0A0E2C6E52EC0DF02A50556E18
:1016000055500A0DF35000081724566E5550100D12
:10161000F3505624276E15C02AF016C02BF0000E8A
:101620002D6E0A0E2C6E52EC0DF02A50536E535054
:101630000A0DF35000081524546E5350100DF3504A
:101640005424286E0DC02AF00EC02BF0000E2D6E13
:101650000A0E2C6E52EC0DF02A504F6E4F500A0DB0
:10166000F35000080D24506E4F50100DF3505024CD
:10167000296E57C02AF058C02BF0000E2D6E0A0EAE
:101680002C6E52EC0DF02A504A6E4A500A0DF3505F
:10169000000857244B6E4A50100DF3504B24256E12
:1016A0005BC02AF05CC02BF0000E2D6E0A0E2C6E73
:1016B00052EC0DF02A50516E51500A0DF3500008B3
:1016C0005B24526E5150100DF3505224246E59C0B9
:1016D0002AF05AC02BF0000E2D6E0A0E2C6E52EC22
:1016E0000DF02A504D6E4D500A0DF350000859244C
:1016F0004E6E4D50100DF3504E24236E0BC04CF027
:101700000BC022F0260E2A6E000E2B6E010E2C6EE0
:10171000CCEC0CF0220E2A6E000E2B6E010E2C6EFD
:1017200095EC0BF00F013F8F1200000E2F6E20EE94
:1017300002F02A50D9262B50DA22130EDF60120055
:1017400020EE02F02A50D9262B50DA22DF50D8B4EE
:10175000120020EE01F02A50D9262B50DA22320E48
:10176000DF60120020EE01F02A50D9262B50DA2239
:10177000DF50D8B4120020EE03F02A50D9262B50A7
:10178000DA22990EDF6402D01200120020EE03F07C
:101790002A50D9262B50DA22DF50306E20EE01F08D
:1017A0002A50D9262B50DA22DF50336E20EE02F079
:1017B0002A50D9262B50DA22DF50346E2C50D8B460
:1017C00002D0F29C00D0000E3FBB010E326E3250B0
:1017D000D8A403D0F2EC0FF000D0000E3FBF010EF2
:1017E0002E6E2E50D8B407D0000E91BE010E2F6E73
:1017F0000F013F9F00D0FC0E0F013F170F013F81EB
:1018000098CF35F099CF36F02AC0D9FF2BC0DAFF38
:10181000DF50366EFC0E0F013F17030E0F013F1312
:1018200030C098FF31C099FF33C098FF34C099FF92
:1018300035C098FF36C099FF2E50D8B40DD00F0197
:101840003F8F2F50D8B402D0918E00D03250D8B4F0
:1018500009D0F2EC0FF006D03250D8A403D00F011B
:101860003F9B00D02C50D8B41200F29C1200120002
:101870007CD0010E2E6E010EB6EC0FF05E0E326EB5
:101880000F0E336EF1EC0EF0000E1E6E020E1D6E8A
:10189000000E1A6E010E196E020E2E6E090EB6ECB7
:1018A0000FF0580E326E0F0E336EF1EC0EF0120088
:1018B000020E2E6E010EB6EC0FF05E0E326E0F0EA3
:1018C000336EF1EC0EF0000E1E6E030E1D6E000E58
:1018D0001A6E020E196E010E2E6E010EB6EC0FF08E
:1018E000580E326E0F0E336EF1EC0EF01200010E38
:1018F0002E6E090EB6EC0FF05E0E326E0F0E336ECA
:10190000F1EC0EF0000E1E6E040E1D6E000E1A6E2F
:10191000030E196E020E2E6E010EB6EC0FF0580E6D
:10192000326E0F0E336EF1EC0EF01200020E2E6EC0
:10193000090EB6EC0FF05E0E326E0F0E336EF1EC48
:101940000EF0000E1E6E010E1D6E000E1A6E040EBD
:10195000196E010E2E6E090EB6EC0FF0580E326E97
:101960000F0E336EF1EC0EF012001DC034F01EC0ED
:1019700035F03550000AD8A412003450010AD8B40A
:1019800078D7030AD8B494D7010AD8B4B0D7070AD5
:10199000D8A41200CBD71200000E2F6E20EE02F05A
:1019A0002A50D9262B50DA225A0EDF60120020EE80
:1019B00001F02A50D9262B50DA225A0EDF6012008D
:1019C00020EE03F02A50D9262B50DA22240EDF64B1
:1019D00002D01200120020EE02F02A50D9262B501D
:1019E000DA22DF50326E20EE01F02A50D9262B5039
:1019F000DA22DF50316E2C50D8B402D0F29C00D0E5
:101A0000000E3FBB010E306E3050D8A403D0F2EC74
:101A10000FF000D0000E3FBF010E2E6E2E50D8B436
:101A200007D0000E91BE010E2F6E0F013F9F00D018
:101A3000FC0E0F013F170F013F8198CF33F099CF74
:101A400034F020EE03F02A50D9262B50DA22DF5052
:101A5000336EFC0E0F013F170F013F8133C098FF1B
:101A600034C099FF31C098FF32C099FF2E50D8B4CE
:101A70000DD00F013F8F2F50D8B402D0918E00D0DF
:101A80003050D8B409D0F2EC0FF006D03050D8A4C2
:101A900003D00F013F9B00D02C50D8B41200F28C21
:101AA00012001200000E2F6E2DAE07D02C6C2D1ED2
:101AB000D8B02D2A010E2F6E00D02BAE07D02A6C85
:101AC0002B1ED8B02B2A010E2F1A00D0000E316E1B
:101AD000000E306E2C502D10D8B421D0010E2E6E79
:101AE00005D0D8902C362D362E2A00D02DBE02D00F
:101AF000F8D700D0D890303631362C502A5C2D5093
:101B00002B58D8A006D02C502A5E2D502B5A30804E
:101B100000D0D8902D322C322E2EECD700D02F5062
:101B2000D8B405D0306C311ED8B0312A00D030C0C6
:101B30002AF031C02BF01200120036D0010E2E6EAA
:101B4000090EB6EC0FF05E0E326E0F0E336EF1EC36
:101B50000EF0000E1C6E020E1B6E020E2E6E090E93
:101B6000B6EC0FF0580E326E0F0E336EF1EC0EF035
:101B70001200020E2E6E090EB6EC0FF05E0E326EE3
:101B80000F0E336EF1EC0EF0000E1C6E010E1B6E8C
:101B9000010E2E6E090EB6EC0FF0580E326E0F0EBF
:101BA000336EF1EC0EF012001BC034F01CC035F0A7
:101BB0003550000AD8A412003450010AD8B4BED758
:101BC000030AD8A41200D5D71200939693948A964C
:101BD0008A949398939A939C939E0A0EFBEC0FF031
:101BE0000A0EFBEC0FF00A0EFBEC0FF0000E2E6E4F
:101BF000020E2E6401D008D0030E25EC0EF00A0E62
:101C0000FBEC0FF02E2AF4D7020E25EC0EF0000E9E
:101C10002E6E030E2E6402D0120012002E50010D03
:101C20000B0EF324F66E0F0EF420F76E0800F5CFBE
:101C30002CF0000E89EC0FF00A0EFBEC0FF02E2AB0
:101C4000030E2E64EBD7120012002B6E2BA003D0D4
:101C50002A6A2A2A01D02A6A2A3A8A502A18EF0BBD
:101C60002A188A6E2BA203D02A6A2A2A01D02A6A4D
:101C70002A3A2A468A502A18DF0B2A188A6E2BA481
:101C800003D02A6A2A2A01D02A6A2A3A2A462A46F0
:101C90008A502A18BF0B2A188A6E2BA603D02A6AEC
:101CA0002A2A01D02A6A2A322A328A502A187F0B1D
:101CB0002A188A6E00F08A8400F000F08A941200DC
:101CC0009B8E9B9CD388D38AD38CD390D392F00ED7
:101CD000926E000E936E070E946E0F0148690F010D
:101CE00049692D0EC26E100EC16E0F013F8F0F019C
:101CF0003F8BCD86F1EC0AF0E5EC0DF00C0E0DEC0F
:101D000010F08A828A80000E1A6E010E196E000E83
:101D10001E6E010E1D6E000E206E000E1F6E000E58
:101D20001C6E010E1B6E1200E5EC0DF0010E2E6E06
:101D3000020EB6EC0FF03B0E326E0F0E336EF1EC6E
:101D40000EF0020E2E6E020EB6EC0FF0410E326E49
:101D50000F0E336EF1EC0EF0010E2E6E0A0EB6EC85
:101D60000FF0470E326E0F0E336EF1EC0EF0020ED6
:101D70002E6E0A0EB6EC0FF04D0E326E0F0E336E55
:101D8000F1EC0EF01200000E2F6E000E2E6E2C5095
:101D90002D10D8B421D0010E306E05D0D8902C363D
:101DA0002D36302A00D02DBE02D0F8D700D0D890E2
:101DB0002E362F362C502A5C2D502B58D8A006D00A
:101DC0002C502A5E2D502B5A2E8000D0D8902D32C8
:101DD0002C32302EECD700D02EC02AF02FC02BF0A2
:101DE000120015D032C0F6FF33C0F7FFF86A0E0EAE
:101DF000F76403D00800F55005D0F6CFE9FFF7CF20
:101E0000EAFFEF5041EC0FF0324A332A00D032C0E3
:101E1000F6FF33C0F7FFF86A0E0EF76403D0080030
:101E2000F55005D0F6CFE9FFF7CFEAFFEF500009F4
:101E3000D8A4D8D7120033503410D8B41DD0010E16
:101E4000356E05D0D89033363436352A00D034BEBE
:101E500002D0F8D700D03350315C34503258D8A07B
:101E600005D03350315E3450325A00D0D8903432DD
:101E70003332352EF0D700D031C031F032C032F0DD
:101E80001200316E18D0010E2C6E000E89EC0FF08E
:101E90001200020E2E6E010EB6EC0FF01200100EA4
:101EA0002C6E000E89EC0FF0120031C02CF0010EE8
:101EB00089EC0FF012003150080AD8B4F0D7020AAA
:101EC000D8B4E7D7060AD8B4DED7EFD7120000EEB1
:101ED00060F02C0EEE6AE806FDE15D6A00EE01F0AE
:101EE000290EEE6AE806FDE1600EF66E200EF76E32
:101EF000000EF86E00EE57F010EE06F00900F5CF78
:101F0000EEFFE550E150FAE1000EF86E0001E8EF57
:101F10000FF02D6E8A96020E04EC10F09398939AAF
:101F2000939C939E2D50D8B402D08A8601D08A9675
:101F300000F02C380F0B25EC0EF02C500F0B25EC7D
:101F40000EF012002A502C02F3CF2EF0F4CF2FF017
:101F50002A502D02F3502F262B502C02F3502F26FF
:101F60002EC02AF02FC02BF0120012002F6E2E046C
:101F7000D8B402D0400E01D0000E306E00D02F0435
:101F80003026305080092C6E000E89EC0FF01200C4
:101F90002C6E000E2B6E3A0E2C6006D02F0E2C6489
:101FA00003D0010E2B6E00D02BC02AF02A30120075
:101FB00012001F502010D8A403D038EC0CF000D031
:101FC0001F042010D8A412009DEC0DF01200120086
:101FD00060EC0EF094EC0EF000D0B2EC07F0FDD700
:101FE00000EF00F0F29C550EA76EAA0EA76E0F012F
:101FF0003F8BF28C12002A6EFA0E00F0E82EFDD70D
:102000002A2EFAD7120012002A6E210EE82EFED7D1
:1020100000F02A2EFAD7120012002E6E2EC02CF0DD
:10202000000E89EC0FF012005C0E326E0F0E336E54
:10203000F1EC0EF012005A0E326E0F0E336EF1EC10
:102040000EF0120094EC0EF0000E206E000E1F6ECB
:102050001200600E326E0F0E336EF1EC0EF01200B5
:0620600010000100010068
:08FFF800AEF718FFF3F8FFF16A
:00000001FF
