:040000007CEF74F02D
:10E36000B3EC71F0120011C00FF012C010F01200E7
:10E37000B3EC71F070EC72F01200100006000200B5
:10E38000120009002E6E2EC02CF0000E0CEC73F063
:10E3900012002A6E210EE82EFED700F02A2EFAD7A0
:10E3A000120012002A6EFA0E00F0E82EFDD72A2E77
:10E3B000FAD712001200F29C550EA76EAA0EA76E95
:10E3C0000F013F8BF28C1200940E2A6E000E2B6E02
:10E3D000C50E2C6EFF0E2D6E9EEC74F0120036C032
:10E3E0002EF0345038EC72F038C032F039C033F0CF
:10E3F0008FEC76F01200940E2A6E000E2B6E990EA2
:10E400002C6E000E2D6E9EEC74F070EC72F012000B
:10E41000B3EC71F003500410D8B4120003040410DC
:10E42000D8B41200D3EC79F0120012002C6E000E5A
:10E430002B6E3A0E2C6006D02F0E2C6403D0010EEA
:10E440002B6E00D02BC02AF02A301200120003508D
:10E450000410D8B412000F06D8A010060F501010E8
:10E46000D8A41200B3EC71F070EC72F0120012003C
:10E470002F6E2E04D8B402D0400E01D0000E306EA4
:10E4800000D02F043026305080092C6E000E0CEC8A
:10E4900073F01200B3EC71F003040410D8A403D09D
:10E4A000AFEC72F000D0060E03180410D8A41200CE
:10E4B000FBEC71F0120012002A502C02F3CF2EF068
:10E4C000F4CF2FF02A502D02F3502F262B502C0280
:10E4D000F3502F262EC02AF02FC02BF0120012006E
:10E4E000000E046E000E036E93EC79F0000E356E94
:10E4F000010E346E000E376E010E366EE30E386E6E
:10E50000FF0E396EEFEC71F01200000E046E0A0E71
:10E51000036E93EC79F0000E356E010E346E000E32
:10E52000376E010E366EFB0E386EFE0E396EEFEC56
:10E5300071F01200000E046E0B0E036E93EC79F076
:10E54000000E356E010E346E000E376E010E366E03
:10E550001C0E386EFF0E396EEFEC71F01200940E47
:10E560002A6E000E2B6E990E2C6E000E2D6EEDECA9
:10E5700075F02A502B10D8A403D0D3EC79F01200F8
:10E580009FEC75F01200120006D05BEC74F01200E4
:10E590003AEC74F012001FC03AF020C03BF03B5040
:10E5A000000AD8A412003A50000AD8B4EED7010AE3
:10E5B000D8A41200EDD7120006D085EC72F012003C
:10E5C0009AEC72F012001FC03AF020C03BF03B50B2
:10E5D000000AD8A412003A50000AD8B4EED7010AB3
:10E5E000D8A41200EDD7120006D040EC78F012004B
:10E5F0000DEC78F012001FC03AF020C03BF03B5009
:10E60000000AD8A412003A50000AD8B4EED7010A82
:10E61000D8A41200EDD712002D6E8A96020EC9EC16
:10E6200071F09398939A939C939E2D50D8B402D0F6
:10E630008A8601D08A9600F02C380F0B1AEC79F0FC
:10E640002C500F0B1AEC79F0120008D0C6EC75F0C4
:10E650001200E4EC71F070EC72F012001FC03AF09E
:10E6600020C03BF03B50000AD8A412003A50000AE8
:10E67000D8B4ECD7010AD8A41200EBD7120009D005
:10E68000000E1E6E010E03D0000E1E6E000E1D6EDB
:10E6900010D01FC03AF020C03BF03B50000AD8A475
:10E6A00008D03A50000AD8B4EBD7010AD8B4ECD756
:10E6B00000D070EC72F0120009D0000E066E000E51
:10E6C00003D0000E066E010E056E10D01FC03AF08A
:10E6D00020C03BF03B50000AD8A408D03A50000AB2
:10E6E000D8B4EBD7010AD8B4ECD700D070EC72F0F4
:10E6F000120009D0000E086E000E03D0000E086E46
:10E70000010E076E10D01FC03AF020C03BF03B5006
:10E71000000AD8A408D03A50000AD8B4EBD7010AAE
:10E72000D8B4ECD700D070EC72F01200B3EC71F0FA
:10E7300009D09FEC75F01200C1EC74F01200C4EC2B
:10E7400072F0120003C03CF004C03DF03D50000ADE
:10E75000D8A4F5D73C50000AD8B4EBD7010AD8B4F6
:10E760001200030AD8B4E8D7EAD71200000E356EBB
:10E77000010E346E000E376E010E366EF50E386ED9
:10E78000FF0E396EEFEC71F0000E186E000E176E72
:10E79000000E356E090E346E000E376E020E366EA8
:10E7A000F10E386EFF0E396EEFEC71F01200000EB4
:10E7B000356E010E346E000E376E020E366EF50E9B
:10E7C000386EFF0E396EEFEC71F0000E186E010E10
:10E7D000176E000E356E010E346E000E376E010E90
:10E7E000366EF10E386EFF0E396EEFEC71F01200DE
:10E7F000000E356E090E346E000E376E010E366E49
:10E80000F50E386EFF0E396EEFEC71F0000E186EDB
:10E81000020E176E000E356E010E346E000E376E4E
:10E82000020E366EF10E386EFF0E396EEFEC71F09F
:10E830001200000E356E090E346E000E376E020E99
:10E84000366EF50E386EFF0E396EEFEC71F0000E7D
:10E85000186E030E176E000E356E090E346E000E24
:10E86000376E010E366EF10E386EFF0E396EEFEC1C
:10E8700071F01200000E356E090E346E000E376E08
:10E88000010E366EF50E386EFF0E396EEFEC71F03C
:10E89000000E206E000E1F6E000E356E090E346ED7
:10E8A000000E376E020E366EF10E386EFF0E396EA8
:10E8B000EFEC71F01200000E356E090E346E000E92
:10E8C000376E020E366EF50E386EFF0E396EEFECB7
:10E8D00071F0000E206E010E1F6E000E356E090ED7
:10E8E000346E000E376E010E366EF10E386EFF0E6E
:10E8F000396EEFEC71F0120000EE60F03E0EEE6A41
:10E90000E806FDE15F6A00EE01F0290EEE6AE80616
:10E91000FDE17A0EF66EE30EF76E000EF86E00EE75
:10E920004FF010EE0AF00900F5CFEEFFE550E15090
:10E93000FAE1000EF86E000179EF75F02AC02EF0B2
:10E940002BC02FF005D02E4A2F2A2C4A2D2A00D07A
:10E950002CC0F6FF2DC0F7FFF86A2EC0D9FF2FC0DC
:10E96000DAFF0E0EF76403D00800F55005D0F6CF9D
:10E97000E9FFF7CFEAFFEF50DF6EDF50D8A4E3D70F
:10E9800012000CD0D7EC73F01200F8EC73F0120008
:10E9900019EC74F01200B6EC73F0120017C03AF0E4
:10E9A00018C03BF03B50000AD8A412003A50000AAD
:10E9B000D8B4E8D7010AD8B4E8D7030AD8B4E8D75E
:10E9C000010AD8A41200E7D712000CD041EC77F06E
:10E9D000120074EC77F01200A7EC77F01200DAEC7A
:10E9E00077F0120017C03AF018C03BF03B50000A15
:10E9F000D8A412003A50000AD8B4E8D7010AD8B413
:10EA0000E8D7030AD8B4E8D7010AD8A41200E7D798
:10EA100012002AC02EF02BC02FF003D02E4A2F2A2E
:10EA200000D02EC0D9FF2FC0DAFFDF50D8B407D0F6
:10EA3000F5D705D02E4A2F2A2C4A2D2A00D02CC0DB
:10EA4000D9FF2DC0DAFF2EC0E1FF2FC0E2FFDFCFDC
:10EA5000E7FFE750D8A4EED71200316E18D0010EB0
:10EA60002C6E000E0CEC73F01200020E2E6E010ED6
:10EA700038EC72F01200100E2C6E000E0CEC73F0DD
:10EA8000120031C02CF0010E0CEC73F0120031506A
:10EA9000080AD8B4F0D7020AD8B4E7D7060AD8B41F
:10EAA000DED7EFD7120033503410D8B41DD0010E8A
:10EAB000356E05D0D89033363436352A00D034BE82
:10EAC00002D0F8D700D03350315C34503258D8A03F
:10EAD00005D03350315E3450325A00D0D8903432A1
:10EAE0003332352EF0D700D031C031F032C032F0A1
:10EAF000120055EC79F070EC72F000D027EC72F057
:10EB000042EC7BF0E9EC7CF003500410D8A405D073
:10EB10005BEC7AF0EFEC7AF0F1D70A0E03180410F0
:10EB2000D8A403D0B9EC76F0E9D70B0E0318041083
:10EB3000D8A4E4D7E6EC76F0E1D700EF00F0000EC1
:10EB4000046E010E036E990E2A6E000E2B6EF20EED
:10EB50002C6EFF0E2D6E9EEC74F093EC79F0000E8F
:10EB6000356E010E346E000E376E010E366E0C0ED1
:10EB7000386EFF0E396EEFEC71F0020E2E6E010E44
:10EB800038EC72F00F0EC2EC71F01200000E046E41
:10EB9000060E036E990E2A6E000E2B6EF20E2C6E70
:10EBA000FF0E2D6E9EEC74F093EC79F0000E356E36
:10EBB000010E346E000E376E010E366E4A0E386E40
:10EBC000FF0E396EEFEC71F0020E2E6E010E38EC76
:10EBD00072F00F0EC2EC71F0120005D02A4A2B2AF7
:10EBE0002C4A2D2A00D02AC0D9FF2BC0DAFFDF50D3
:10EBF0002E6E2CC0D9FF2DC0DAFFDF5000082E2466
:10EC00002F6E2F50D8A409D02AC0D9FF2BC0DAFF0D
:10EC1000DF50D8B402D0E2D700D02F502A6E2B6A32
:10EC20002ABE2B06120012001D041E10D8A40BD001
:10EC3000800E366E000E376E900E386EFF0E396EF7
:10EC400044EC7EF00BD0800E366E000E376E9E0EBA
:10EC5000386EFF0E396E44EC7EF000D0000E356E3B
:10EC6000010E346E000E376E020E366E800E386E58
:10EC7000000E396EEFEC71F0120005500610D8A4AA
:10EC80000BD0800E366E000E376E740E386EFF0E8F
:10EC9000396E44EC7EF00BD0800E366E000E376E6F
:10ECA000820E386EFF0E396E44EC7EF000D0000EFE
:10ECB000356E010E346E000E376E020E366E800E0B
:10ECC000386E000E396EEFEC71F01200075008102C
:10ECD000D8A40BD0800E366E000E376E890E386EBB
:10ECE000FF0E396E44EC7EF00BD0800E366E000EB7
:10ECF000376E970E386EFF0E396E44EC7EF000D002
:10ED0000000E356E010E346E000E376E020E366E3A
:10ED1000800E386E000E396EEFEC71F0120015D0D7
:10ED200032C0F6FF33C0F7FFF86A0E0EF76403D067
:10ED30000800F55005D0F6CFE9FFF7CFEAFFEF5016
:10ED40002DEC75F0324A332A00D032C0F6FF33C0C2
:10ED5000F7FFF86A0E0EF76403D00800F55005D0EF
:10ED6000F6CFE9FFF7CFEAFFEF500009D8A4D8D7D4
:10ED70001200800E366E000E376E2C0E386EFF0EAF
:10ED8000396E51C03AF052C03BF057C03CF058C009
:10ED90003DF04FC03EF050C03FF044EC7EF0000E1E
:10EDA000356E010E346E000E376E020E366E800E1A
:10EDB000386E000E396EEFEC71F0020E2E6E010E01
:10EDC00038EC72F00F0EC2EC71F01200800E366E4D
:10EDD000000E376E3B0E386EFF0E396E55C03AF09E
:10EDE00056C03BF019C03CF01AC03DF01BC03EF0CD
:10EDF0001CC03FF044EC7EF0000E356E010E346E08
:10EE0000000E376E020E366E800E386E000E396EB2
:10EE1000EFEC71F0020E2E6E010E38EC72F00F0E58
:10EE2000C2EC71F01200000E2F6E000E2E6E2C50F0
:10EE30002D10D8B421D0010E306E05D0D8902C36CC
:10EE40002D36302A00D02DBE02D0F8D700D0D89071
:10EE50002E362F362C502A5C2D502B58D8A006D099
:10EE60002C502A5E2D502B5A2E8000D0D8902D3257
:10EE70002C32302EECD700D02EC02AF02FC02BF031
:10EE80001200000E046E040E036E93EC79F0000E77
:10EE9000356E010E346E000E376E010E366E650E45
:10EEA000386EFF0E396EEFEC71F0000E356E0A0E03
:10EEB000346E000E376E010E366EEB0E386EFF0E9E
:10EEC000396EEFEC71F0000E356E0A0E346E000EE6
:10EED000376E020E366EEE0E386EFF0E396EEFECA8
:10EEE00071F03AEC74F01200000E046E030E036E23
:10EEF00093EC79F0000E356E010E346E000E376E15
:10EF0000010E366EB90E386EFF0E396EEFEC71F0F1
:10EF1000000E356E0A0E346E000E376E010E366E20
:10EF2000B30E386EFF0E396EEFEC71F0000E356ED9
:10EF30000A0E346E000E376E020E366ECA0E386E32
:10EF4000FF0E396EEFEC71F03AEC74F01200000E27
:10EF5000046E050E036E93EC79F0000E356E010E13
:10EF6000346E000E376E010E366EE70E386EFF0EF1
:10EF7000396EEFEC71F0000E356E0A0E346E000E35
:10EF8000376E010E366E5D0E386EFF0E396EEFEC89
:10EF900071F0000E356E0A0E346E000E376E020EE2
:10EFA000366EBF0E386EFF0E396EEFEC71F03AEC34
:10EFB00074F01200000E046E070E036E93EC79F0ED
:10EFC000000E356E010E346E000E376E010E366E79
:10EFD000AC0E386EFF0E396EEFEC71F0000E356E30
:10EFE0000A0E346E000E376E010E366E550E386EF8
:10EFF000FF0E396EEFEC71F0000E356E0A0E346EB6
:10F00000000E376E020E366ED40E386EFF0E396E5D
:10F01000EFEC71F03AEC74F01200000E046E090E81
:10F02000036E93EC79F0000E356E010E346E000E17
:10F03000376E010E366ED40E386EFF0E396EEFEC61
:10F0400071F0000E356E0A0E346E000E376E010E32
:10F05000366E6D0E386EFF0E396EEFEC71F0000EED
:10F06000356E0A0E346E000E376E020E366E7B0E53
:10F07000386EFF0E396EEFEC71F03AEC74F012005E
:10F08000000E046E080E036E93EC79F0000E356EE0
:10F09000010E346E000E376E010E366E550E386E50
:10F0A000FF0E396EEFEC71F0000E356E0A0E346E05
:10F0B000000E376E010E366ECF0E386EFF0E396EB3
:10F0C000EFEC71F0000E356E0A0E346E000E376EE6
:10F0D000020E366ED90E386EFF0E396EEFEC71F0FF
:10F0E0003AEC74F01200FC0E0F013F170F013F8144
:10F0F00098CF38F099CF39F098CF3AF099CF3BF0CC
:10F10000FC0E0F013F170F013F8198CF30F099CFD0
:10F1100031F098CF32F099CF33F032503A18D8A46A
:10F12000E2D720EE03F02A50D9262B50DA2238C03D
:10F13000DFFF20EE02F02A50D9262B50DA223BC006
:10F14000DFFF20EE01F02A50D9262B50DA223AC0F8
:10F15000DFFF1200B3EC71F015D0E5EC74F0120093
:10F16000DCEC72F012003FEC73F0120025EC73F04F
:10F170001200F4EC72F0120079EC73F012005CEC07
:10F1800073F0120003C03CF004C03DF03D50000A93
:10F19000D8A412003C50020AD8B4DFD7010AD8B470
:10F1A000DFD7070AD8B4DFD7010AD8B4DFD7020AFD
:10F1B000D8B4DFD70F0AD8B4DFD7010AD8A4120019
:10F1C000DED71200B3EC71F003040410D8B405D0FC
:10F1D000060E03180410D8A41ED0F30E326EFF0ED4
:10F1E000336E8FEC76F0800E366E000E376EDE0ECC
:10F1F000386EFF0E396E21C03AF03B6A44EC7EF067
:10F20000990E2A6E000E2B6E800E2C6E000E2D6E47
:10F2100009EC75F01200800E366E000E376EDE0EB1
:10F22000386EFF0E396E21C03AF03B6A44EC7EF036
:10F23000120012002B6E2BA003D02A6A2A2A01D0BA
:10F240002A6A2A3A8A502A18EF0B2A188A6E2BA2A9
:10F2500003D02A6A2A2A01D02A6A2A3A2A468A50E0
:10F260002A18DF0B2A188A6E2BA403D02A6A2A2AAE
:10F2700001D02A6A2A3A2A462A468A502A18BF0BFF
:10F280002A188A6E2BA603D02A6A2A2A01D02A6A53
:10F290002A322A328A502A187F0B2A188A6E00F0E6
:10F2A0008A8400F000F08A9412009B8E9B9CD38885
:10F2B000D38AD38CD390D392F00E926E000E936EBD
:10F2C000070E946E0F0148690F0149692D0EC26E39
:10F2D000100EC16E0F013F8F0F013F8BCD8694EC56
:10F2E0007DF093EC79F00C0EC2EC71F08A828A808A
:10F2F000000E126E320E116E000E0C6E000E0B6EB2
:10F30000000E186E000E176E000E206E000E1F6E9F
:10F31000000E086E000E076E000E066E000E056EE3
:10F32000E4EC71F01200939693948A968A949398E1
:10F33000939A939C939E0A0ED2EC71F00A0ED2EC33
:10F3400071F00A0ED2EC71F0000E2E6E020E2E64D9
:10F3500001D008D0030E1AEC79F00A0ED2EC71F04D
:10F360002E2AF4D7020E1AEC79F0000E2E6E030E40
:10F370002E6402D0120012002E50010DF70EF3245D
:10F38000F66EFE0EF420F76E0800F5CF2CF0000E9E
:10F390000CEC73F00A0ED2EC71F02E2A030E2E64E0
:10F3A000EBD712001200000E046E020E036E93ECF7
:10F3B00079F0000E356E020E346E000E376E010EBF
:10F3C000366E650E386EFF0E396EEFEC71F0000E82
:10F3D000356E020E346E000E376E020E366EB90EAA
:10F3E000386EFF0E396EEFEC71F0000E356E0A0EBE
:10F3F000346E000E376E010E366EE70E386EFF0E5D
:10F40000396EEFEC71F0000E356E0A0E346E000EA0
:10F41000376E020E366EA50E386EFF0E396EEFECAB
:10F4200071F0B6EC73F01200FC0E0F013F17030EE3
:10F430000F013F1398CF34F099CF35F098CF36F0C5
:10F4400099CF37F098CF38F099CF39F0FC0E0F01F3
:10F450003F17030E0F013F1398CF2CF099CF2DF0DB
:10F4600098CF2EF099CF2FF098CF30F099CF31F080
:10F470002E503618D8A4D8D720EE01F02A50D9261D
:10F480002B50DA2236C0DFFF20EE02F02A50D926B8
:10F490002B50DA2237C0DFFF2AC0D9FF2BC0DAFF9A
:10F4A00039C0DFFF20EE03F02A50D9262B50DA2294
:10F4B00034C0DFFF1200800E366E000E376E2C0E49
:10F4C000386EFF0E396E51C03AF052C03BF057C053
:10F4D0003CF058C03DF04FC03EF050C03FF044EC0F
:10F4E0007EF0000E356E090E346E000E376E010E82
:10F4F000366E800E386E000E396EEFEC71F0800EB5
:10F50000366E000E376E3B0E386EFF0E396E55C0EC
:10F510003AF056C03BF019C03CF01AC03DF01BC099
:10F520003EF01CC03FF044EC7EF0000E356E090E3C
:10F53000346E000E376E020E366E800E386E000E80
:10F54000396EEFEC71F01200000E2F6E2DAE07D069
:10F550002C6C2D1ED8B02D2A010E2F6E00D02BAE94
:10F5600007D02A6C2B1ED8B02B2A010E2F1A00D0E0
:10F57000000E316E000E306E2C502D10D8B421D0FC
:10F58000010E2E6E05D0D8902C362D362E2A00D0A6
:10F590002DBE02D0F8D700D0D890303631362C505E
:10F5A0002A5C2D502B58D8A006D02C502A5E2D5006
:10F5B0002B5A308000D0D8902D322C322E2EECD702
:10F5C00000D02F50D8B405D0306C311ED8B0312ABD
:10F5D00000D030C02AF031C02BF0120012001D0400
:10F5E0001E10D8A402D08A8200D01D501E10D8A4AC
:10F5F00002D08A9200D00D4A0E2A30D014EC76F058
:10F60000050E0D180E10D8A41200000E0E6E000E7E
:10F610000D6E000E0C6E010E0B6E120066EC76F095
:10F62000050E0D180E10D8A41200000E0E6E000E5E
:10F630000D6E000E0C6E020E0B6E12003DEC76F09D
:10F64000050E0D180E10D8A41200000E0E6E000E3E
:10F650000D6E000E0C6E000E0B6E12000BC04DF006
:10F660000CC04EF04E50000AD8A412004D50000AB3
:10F67000D8B4C4D7010AD8B4D1D7030AD8A4120089
:10F68000DDD71200260E2A6E000E2B6E73EC78F07A
:10F6900027500F0B0001A46F27380F0B0F0B5E6E66
:10F6A00028500F0B0001A36F28380F0B0F0B5D6E56
:10F6B00029500F0B0001A16F29380F0B0F0B5B6E48
:10F6C000220E2A6E000E2B6E14EC7AF023500F0BD4
:10F6D0000001A06F23380F0B0F0B5A6E24500F0B35
:10F6E0000001A26F24380F0B0F0B5C6E22C09FF03D
:10F6F00025500F0B00019E6F25380F0B0F0B596E15
:10F700005E500A0D0001A451F3241B6E0001000E8F
:10F71000F4201C6E5D500A0D0001A351F324196EF4
:10F720000001000EF4201A6E5B500A0D0001A15179
:10F73000F324556E0001000EF420566E5A500A0D47
:10F740000001A051F324516E0001000EF420526E0E
:10F750009FC053F0546A5C500A0D0001A251F3247B
:10F76000576E0001000EF420586E59500A0D00012A
:10F770009E51F3244F6E0001000EF420506E1200D3
:10F78000000E2F6E20EE02F02A50D9262B50DA22DE
:10F790005A0EDF60120020EE01F02A50D9262B50BD
:10F7A000DA225A0EDF60120020EE03F02A50D9262A
:10F7B0002B50DA22240EDF6402D01200120020EE59
:10F7C00002F02A50D9262B50DA22DF50326E20EE7A
:10F7D00001F02A50D9262B50DA22DF50316E2C50FE
:10F7E000D8B402D0F29C00D0000E3FBB010E306EA8
:10F7F0003050D8A403D0DBEC71F000D0000E3FBF36
:10F80000010E2E6E2E50D8B407D0000E91BE010E00
:10F810002F6E0F013F9F00D0FC0E0F013F170F010D
:10F820003F8198CF33F099CF34F020EE03F02A5087
:10F83000D9262B50DA22DF50336EFC0E0F013F1712
:10F840000F013F8133C098FF34C099FF31C098FF4A
:10F8500032C099FF2E50D8B40DD00F013F8F2F50DA
:10F86000D8B402D0918E00D03050D8B409D0DBEC9F
:10F8700071F006D03050D8A403D00F013F9B00D0C8
:10F880002C50D8B41200F28C12001200000E2F6E11
:10F8900020EE02F02A50D9262B50DA22130EDF6018
:10F8A000120020EE02F02A50D9262B50DA22DF5027
:10F8B000D8B4120020EE01F02A50D9262B50DA22BB
:10F8C000320EDF60120020EE01F02A50D9262B50B4
:10F8D000DA22DF50D8B4120020EE03F02A50D926E5
:10F8E0002B50DA22990EDF6402D01200120020EEB3
:10F8F00003F02A50D9262B50DA22DF50306E20EE4A
:10F9000001F02A50D9262B50DA22DF50336E20EE38
:10F9100002F02A50D9262B50DA22DF50346E2C50B8
:10F92000D8B402D0F29C00D0000E3FBB010E326E64
:10F930003250D8A403D0DBEC71F000D0000E3FBFF2
:10F94000010E2E6E2E50D8B407D0000E91BE010EBF
:10F950002F6E0F013F9F00D0FC0E0F013F170F01CC
:10F960003F8198CF35F099CF36F02AC0D9FF2BC010
:10F97000DAFFDF50366EFC0E0F013F17030E0F014A
:10F980003F1330C098FF31C099FF33C098FF34C097
:10F9900099FF35C098FF36C099FF2E50D8B40DD0CE
:10F9A0000F013F8F2F50D8B402D0918E00D032502B
:10F9B000D8B409D0DBEC71F006D03250D8A403D013
:10F9C0000F013F9B00D02C50D8B41200F29C1200C3
:10F9D0001200898089928994899680AA07D0010EA5
:10F9E000216EE2EC78F000D080BAFED780AE07D06E
:10F9F000020E216EE2EC78F000D080BEFED780AC23
:10FA000007D0030E216EE2EC78F000D080BCFED768
:10FA100082A407D00B0E216E96EC73F000D082B456
:10FA2000FED7899089828994899680AA07D0040E8E
:10FA3000216EE2EC78F000D080BAFED780AE07D01D
:10FA4000050E216EE2EC78F000D080BEFED780ACCF
:10FA500007D0060E216EE2EC78F000D080BCFED715
:10FA600082A407D00C0E216EAAEC78F000D082B4EC
:10FA7000FED7899089928984899680AA07D0070E3B
:10FA8000216EE2EC78F000D080BAFED780AE07D0CD
:10FA9000080E216EE2EC78F000D080BEFED780AC7C
:10FAA00007D0090E216EE2EC78F000D080BCFED7C2
:10FAB00082A407D00D0E216E08EC72F000D082B443
:10FAC000FED7899089928994898680AA07D00E0EE4
:10FAD000216EB0EC71F000D080BAFED780AE07D0B6
:10FAE000000E216EE2EC78F000D080BEFED780AC34
:10FAF00007D00F0E216E4AEC72F000D080BCFED70A
:10FB000082A409D0100E216EB8EC71F000D082A44E
:10FB100002D0FDD700D0FF0E4D6E8A0EE82EFED724
:10FB20004D2EFCD700D01200DBEC71F0A3801BC07F
:10FB30002AF01CC02BF0000E2D6E0A0E2C6EA4ECC9
:10FB40007AF02A505E6E5E500A0DF35000081B24B6
:10FB50000001A46F5E50100DF3500001A425276E24
:10FB600019C02AF01AC02BF0000E2D6E0A0E2C6E52
:10FB7000A4EC7AF02A505D6E5D500A0DF350000837
:10FB800019240001A36F5D50100DF3500001A3254F
:10FB9000286E55C02AF056C02BF0000E2D6E0A0EAE
:10FBA0002C6EA4EC7AF02A505B6E5B500A0DF35079
:10FBB000000855240001A16F5B50100DF3500001A7
:10FBC000A125296E4FC02AF050C02BF0000E2D6EDB
:10FBD0000A0E2C6EA4EC7AF02A50596E59500A0D78
:10FBE000F35000084F2400019E6F5950100DF35040
:10FBF00000019E25256E57C02AF058C02BF0000E3C
:10FC00002D6E0A0E2C6EA4EC7AF02A505C6E5C50BD
:10FC10000A0DF350000857240001A26F5C50100D2C
:10FC2000F3500001A225246E51C02AF052C02BF0DF
:10FC3000000E2D6E0A0E2C6EA4EC7AF02A505A6E2D
:10FC40005A500A0DF350000851240001A06F5A5079
:10FC5000100DF3500001A025236E53C09FF053C038
:10FC600022F0260E2A6E000E2B6E010E2C6EC0ECBA
:10FC70007BF0220E2A6E000E2B6E010E2C6E46ECCF
:10FC80007CF00F013F8F12003A0E446E000E456E5D
:10FC900017D1250E4C18D8B409D036C0D9FF37C0BB
:10FCA000DAFF4CC0DFFF364A372A0AD1000E4B6E0E
:10FCB000000E4A6E000E466E05D04684384A392A38
:10FCC00001D00BD038C0F6FF39C0F7FF0800F5505F
:10FCD000300AD8B4F2D701D0F5D738C0F6FF39C012
:10FCE000F7FF0800F55016EC72F0D8A03AD0000EDD
:10FCF0004B6E000E4A6E00D04AC02AF04BC02BF06B
:10FD0000000E2D6E0A0E2C6E5CEC72F02AC04AF0CA
:10FD10002BC04BF0D00E406EFF0E416E38C0F6FF88
:10FD200039C0F7FF0800F550426E436A4050422642
:10FD30004150432242504A2643504B22384A392AE6
:10FD400038C0F6FF39C0F7FF0800F55016EC72F026
:10FD5000D8A007D0D1D705D0C1D0B2D0C00E46129E
:10FD600011D038C0F6FF39C0F7FF384A392A0800E9
:10FD7000F5CF4CF04C50000AD8B4B0D0750AD8B4C6
:10FD8000EDD79ED044C0D9FF45C0DAFFDECF47F0A3
:10FD9000DDCF48F0020E4426000E4522010E4C6EC7
:10FDA000050E4C18D8B416D001D014D04C50020D0A
:10FDB000ED0EF324F66EFE0EF420F76E0900F550FA
:10FDC000475C0900F5504858D8A004D001D002D0B3
:10FDD0004C2AE6D7800E4CBE7F0E406E4A504C5CDB
:10FDE0004B50800A4058D8B007D04C504A5E000EA5
:10FDF0004CBEFF0E4B5A05D0000E4B6E000E4A6EE5
:10FE000000D046A415D04A504B10D8B426D036C0E6
:10FE1000D9FF37C0DAFF300EDF6E364A372A4A067E
:10FE2000D8A04B064A504B10D8B417D0F0D715D0F5
:10FE30004A504B10D8B411D036C0D9FF37C0DAFFC2
:10FE4000200EDF6E364A372A4A06D8A04B064A50A3
:10FE50004B10D8B402D0F0D700D04CC049F02AD013
:10FE60004950020DED0EF324F66EFE0EF420F76EEF
:10FE70000900F5CF2CF00A00F5CF2DF047C02AF08D
:10FE800048C02BF013EC77F02AC031F02BC032F0D1
:10FE9000000E346E0A0E336E53EC75F03150300F95
:10FEA0004C6E36C0D9FF37C0DAFF4CC0DFFF364A90
:10FEB000372A00D049064928D8B402D0D1D700D07B
:10FEC00038C0F6FF39C0F7FF384A392A0800F5CFA5
:10FED0004CF04C50D8B402D0DCD600D036C0D9FF9C
:10FEE00037C0DAFF000EDF6E120012000001000AB8
:10FEF000006400E8031027280C0106496E6772654C
:10FF00007365206C6120666563686100496E677285
:10FF10006573652073752050494E3A00496E6772CB
:10FF2000657365206C6120686F72610025303275E1
:10FF30002F253032752F2530327500253032753A35
:10FF4000253032753A25303275004E7565766F2052
:10FF500050494E3A00566F6C756D656E0043616D89
:10FF6000626961720041637469766172004265651D
:10FF700070203100544F4E4F3A3100426565702079
:10FF80003200544F4E4F3A3200564F4C3A424100E5
:10FF90004143543A534900564F4C3A414C00414377
:10FFA000543A4E4F00416C61726D61005369726545
:10FFB0006E610046656368610052656C6F6A00524D
:10FFC00065736574003132333400486F72610042EA
:10FFD000616A6F00546F6E6F00416C746F00253062
:10FFE0003175005832380050696E005369004E6F09
:08FFF0000020002A003E000081
:08FFF800AEF718FFF3F8FFF16A
:00000001FF
