:04000000CFEF0FF03F
:100F00000001000A006400E8031027280C010625F0
:100F10003032752F253032752F253032750025304F
:100F200032753A25303275004F7074696F6E31003A
:100F30004F7074696F6E320020554E494D49430021
:100F40004D656E752032004D656E752033004D6520
:100F50006E752034004D656E7531004D656E7532CD
:100F6000004D656E7533004D656E753400436C6FD2
:100F7000636B0054696D6500446174650025303110
:100F80007500200023002A003E000000898089921D
:100F90008994899680AA18D0010E3F6E7C0E0D6E42
:100FA000000E0E6E7D0E0F6E0F0E106E3FC011F014
:100FB000126A1BEC09F07C0E096E000E0A6E59ECE9
:100FC0000FF000D080BAFED780AE18D0020E3F6E70
:100FD0007C0E0D6E000E0E6E7D0E0F6E0F0E106EDF
:100FE0003FC011F0126A1BEC09F07C0E096E000E76
:100FF0000A6E59EC0FF000D080BEFED780AC18D03E
:10100000030E3F6E7C0E0D6E000E0E6E7D0E0F6E8B
:101010000F0E106E3FC011F0126A1BEC09F07C0E2F
:10102000096E000E0A6E59EC0FF000D080BCFED79E
:1010300082A407D00B0E3F6EF1EC0FF000D082B40B
:10104000FED7899089828994899680AA18D0040E47
:101050003F6E7C0E0D6E000E0E6E7D0E0F6E0F0E2F
:10106000106E3FC011F0126A1BEC09F07C0E096E85
:10107000000E0A6E59EC0FF000D080BAFED780AE99
:1010800018D0050E3F6E7C0E0D6E000E0E6E7D0E9E
:101090000F6E0F0E106E3FC011F0126A1BEC09F0BC
:1010A0007C0E096E000E0A6E59EC0FF000D080BE67
:1010B000FED780AC18D0060E3F6E7C0E0D6E000E73
:1010C0000E6E7D0E0F6E0F0E106E3FC011F0126A85
:1010D0001BEC09F07C0E096E000E0A6E59EC0FF045
:1010E00000D080BCFED782A407D00C0E3F6E4DEC22
:1010F0000AF000D082B4FED78990899289848996BB
:1011000080AA18D0070E3F6E7C0E0D6E000E0E6E7C
:101110007D0E0F6E0F0E106E3FC011F0126A1BECA9
:1011200009F07C0E096E000E0A6E59EC0FF000D02B
:1011300080BAFED780AE18D0080E3F6E7C0E0D6EC2
:10114000000E0E6E7D0E0F6E0F0E106E3FC011F072
:10115000126A1BEC09F07C0E096E000E0A6E59EC47
:101160000FF000D080BEFED780AC18D0090E3F6EC5
:101170007C0E0D6E000E0E6E7D0E0F6E0F0E106E3D
:101180003FC011F0126A1BEC09F07C0E096E000ED4
:101190000A6E59EC0FF000D080BCFED782A407D0B5
:1011A0000D0E3F6EA0EC10F000D082B4FED78990F7
:1011B00089928994898680AA07D00E0E3F6E92ECA0
:1011C00010F000D080BAFED780AE18D0000E3F6E6F
:1011D0007C0E0D6E000E0E6E7D0E0F6E0F0E106EDD
:1011E0003FC011F0126A1BEC09F07C0E096E000E74
:1011F0000A6E59EC0FF000D080BEFED780AC07D04D
:101200000F0E3F6E8BEC10F000D080BCFED782A496
:1012100009D0100E3F6E5BEC10F000D082A402D01B
:10122000FDD700D0FF0E246E8A0EE82EFED7242EA6
:10123000FCD700D01200110E1B6E000E1C6E17D1D1
:10124000250E2318D8B409D00DC0D9FF0EC0DAFF7F
:1012500023C0DFFF0D4A0E2A0AD1000E226E000EB7
:10126000216E000E1D6E05D01D840F4A102A01D07C
:101270000BD00FC0F6FF10C0F7FF0800F550300A82
:10128000D8B4F2D701D0F5D70FC0F6FF10C0F7FFE2
:101290000800F5504AEC10F0D8A03AD0000E226EAB
:1012A000000E216E00D021C001F022C002F0000E1D
:1012B000046E0A0E036E24EC10F001C021F002C08F
:1012C00022F0D00E176EFF0E186E0FC0F6FF10C082
:1012D000F7FF0800F550196E1A6A175019261850B2
:1012E0001A22195021261A5022220F4A102A0FC002
:1012F000F6FF10C0F7FF0800F5504AEC10F0D8A038
:1013000007D0D1D705D0C1D0B2D0C00E1D1211D098
:101310000FC0F6FF10C0F7FF0F4A102A0800F5CFE4
:1013200023F02350000AD8B4B0D0750AD8B4EDD752
:101330009ED01BC0D9FF1CC0DAFFDECF1EF0DDCF70
:101340001FF0020E1B26000E1C22010E236E050E3E
:101350002318D8B416D001D014D02350020D010E9A
:10136000F324F66E0F0EF420F76E0900F5501E5CA4
:101370000900F5501F58D8A004D001D002D0232A6C
:10138000E6D7800E23BE7F0E176E2150235C2250BD
:10139000800A1758D8B007D02350215E000E23BE14
:1013A000FF0E225A05D0000E226E000E216E00D0D4
:1013B0001DA415D021502210D8B426D00DC0D9FFBD
:1013C0000EC0DAFF300EDF6E0D4A0E2A2106D8A0BD
:1013D000220621502210D8B417D0F0D715D02150B2
:1013E0002210D8B411D00DC0D9FF0EC0DAFF200EE4
:1013F000DF6E0D4A0E2A2106D8A0220621502210A7
:10140000D8B402D0F0D700D023C020F02AD020508A
:10141000020D010EF324F66E0F0EF420F76E090094
:10142000F5CF03F00A00F5CF04F01EC001F01FC095
:1014300002F02BEC0FF001C008F002C009F0000E22
:101440000B6E0A0E0A6E83EC0FF00850300F236EFD
:101450000DC0D9FF0EC0DAFF23C0DFFF0D4A0E2AF0
:1014600000D020062028D8B402D0D1D700D00FC099
:10147000F6FF10C0F7FF0F4A102A0800F5CF23F03F
:101480002350D8B402D0DCD600D00DC0D9FF0EC096
:10149000DAFF000EDF6E12001200A0D049EC0EF051
:1014A000010E056E010E38EC10F06D0E096E0F0E78
:1014B0000A6E59EC0FF0010E056E0A0E38EC10F0B2
:1014C000780E096E0F0E0A6E59EC0FF0020E056EC3
:1014D0000A0E38EC10F0730E096E0F0E0A6E59ECFE
:1014E0000FF0000E3E6E010E3D6E120049EC0EF044
:1014F000010E056E010E38EC10F0400E096E0F0E55
:101500000A6E59EC0FF0010E056E0A0E38EC10F061
:10151000280E096E0F0E0A6E59EC0FF0020E056EC2
:101520000A0E38EC10F0300E096E0F0E0A6E59ECF0
:101530000FF0000E3E6E010E3D6E120049EC0EF0F3
:10154000010E056E010E38EC10F0470E096E0F0EFD
:101550000A6E59EC0FF0010E056E0A0E38EC10F011
:10156000280E096E0F0E0A6E59EC0FF0020E056E72
:101570000A0E38EC10F0300E096E0F0E0A6E59ECA0
:101580000FF0000E3E6E010E3D6E120049EC0EF0A3
:10159000010E056E010E38EC10F04E0E096E0F0EA6
:1015A0000A6E59EC0FF0010E056E0A0E38EC10F0C1
:1015B000280E096E0F0E0A6E59EC0FF0020E056E22
:1015C0000A0E38EC10F0300E096E0F0E0A6E59EC50
:1015D0000FF0000E3E6E010E3D6E120037C00BF094
:1015E00038C00CF00C50000AD8A412000B50010AAD
:1015F000D8B454D7030AD8B479D7010AD8B49ED73F
:10160000070AD8A41200C2D7120070EC10F0A38011
:1016100035C001F036C002F0000E046E0A0E036EF3
:10162000B6EC0DF00150536E53500A0DF350000804
:101630003524546E5350100DF3505424456E33C06E
:1016400001F034C002F0000E046E0A0E036EB6EC18
:101650000DF00150516E51500A0DF3500008332423
:10166000526E5150100DF3505224466E5BC001F083
:101670005CC002F0000E046E0A0E036EB6EC0DF0B4
:1016800001504D6E4D500A0DF35000085B244E6E14
:101690004D50100DF3504E24476E55C001F056C00A
:1016A00002F0000E046E0A0E036EB6EC0DF001504F
:1016B000486E48500A0DF35000085524496E4850B2
:1016C000100DF3504924436E5DC001F05EC002F07E
:1016D000000E046E0A0E036EB6EC0DF001504F6E54
:1016E0004F500A0DF35000085D24506E4F50100DFE
:1016F000F3505024426E57C001F058C002F0000E63
:10170000046E0A0E036EB6EC0DF001504B6E4B509A
:101710000A0DF350000857244C6E4B50100DF35037
:101720004C24416E59C04AF059C040F0440E016E3D
:10173000000E026E010E036EE0EC0CF0400E016E26
:10174000000E026E010E036EA9EC0BF00F013F8F2D
:101750001200000E066E20EE02F00150D926025053
:10176000DA22130EDF60120020EE02F00150D926BB
:101770000250DA22DF50D8B4120020EE01F00150FE
:10178000D9260250DA22320EDF60120020EE01F07C
:101790000150D9260250DA22DF50D8B4120020EED0
:1017A00003F00150D9260250DA22990EDF6402D0EC
:1017B0001200120020EE03F00150D9260250DA2266
:1017C000DF50076E20EE01F00150D9260250DA22D8
:1017D000DF500A6E20EE02F00150D9260250DA22C4
:1017E000DF500B6E0350D8B402D0F29C00D0000E34
:1017F0003FBB010E096E0950D8A403D070EC10F065
:1018000000D0000E3FBF010E056E0550D8B407D0C2
:10181000000E91BE010E066E0F013F9F00D0FC0E20
:101820000F013F170F013F8198CF0CF099CF0DF0BA
:1018300001C0D9FF02C0DAFFDF500D6EFC0E0F01B0
:101840003F17030E0F013F1307C098FF08C099FF11
:101850000AC098FF0BC099FF0CC098FF0DC099FFFC
:101860000550D8B40DD00F013F8F0650D8B402D028
:10187000918E00D00950D8B409D070EC10F006D089
:101880000950D8A403D00F013F9B00D00350D8B417
:101890001200F29C120012007CD0010E056E010EA7
:1018A00038EC10F0880E096E0F0E0A6E59EC0FF02E
:1018B000000E3C6E020E3B6E000E386E010E376E4F
:1018C000020E056E090E38EC10F0820E096E0F0E36
:1018D0000A6E59EC0FF01200020E056E010E38EC84
:1018E00010F0880E096E0F0E0A6E59EC0FF0000E04
:1018F0003C6E030E3B6E000E386E020E376E010E0C
:10190000056E010E38EC10F0820E096E0F0E0A6E95
:1019100059EC0FF01200010E056E090E38EC10F0B4
:10192000880E096E0F0E0A6E59EC0FF0000E3C6E19
:10193000040E3B6E000E386E030E376E020E056EFF
:10194000010E38EC10F0820E096E0F0E0A6E59EC83
:101950000FF01200020E056E090E38EC10F0880E22
:10196000096E0F0E0A6E59EC0FF0000E3C6E010E60
:101970003B6E000E386E040E376E010E056E090EBA
:1019800038EC10F0820E096E0F0E0A6E59EC0FF053
:1019900012003BC00BF03CC00CF00C50000AD8A465
:1019A00012000B50010AD8B478D7030AD8B494D7E0
:1019B000010AD8B4B0D7070AD8A41200CBD71200B6
:1019C000000E066E20EE02F00150D9260250DA22F7
:1019D0005A0EDF60120020EE01F00150D9260250AD
:1019E000DA225A0EDF60120020EE03F00150D926F1
:1019F0000250DA22240EDF6402D01200120020EE20
:101A000002F00150D9260250DA22DF50096E20EE92
:101A100001F00150D9260250DA22DF50086E03503F
:101A2000D8B402D0F29C00D0000E3FBB010E076E6E
:101A30000750D8A403D070EC10F000D0000E3FBFC8
:101A4000010E056E0550D8B407D0000E91BE010EF0
:101A5000066E0F013F9F00D0FC0E0F013F170F01D4
:101A60003F8198CF0AF099CF0BF020EE03F00150A0
:101A7000D9260250DA22DF500A6EFC0E0F013F1702
:101A80000F013F810AC098FF0BC099FF08C098FF63
:101A900009C099FF0550D8B40DD00F013F8F0650F3
:101AA000D8B402D0918E00D00750D8B409D070ECD1
:101AB00010F006D00750D8A403D00F013F9B00D0F0
:101AC0000350D8B41200F28C12001200010E99ECEF
:101AD00010F00C0E99EC10F0010E056E010E38ECB2
:101AE00010F0380E096E0F0E0A6E59EC0FF07C0ED6
:101AF0000D6E000E0E6E0F0E0F6E0F0E106E57C095
:101B000011F058C012F05DC013F05EC014F055C063
:101B100015F056C016F01BEC09F0020E056E010E12
:101B200038EC10F07C0E096E000E0A6E59EC0FF0C6
:101B30007C0E0D6E000E0E6E1E0E0F6E0F0E106ED2
:101B40005BC011F05CC012F033C013F034C014F06D
:101B50001BEC09F0020E056E0C0E38EC10F07C0E3A
:101B6000096E000E0A6E59EC0FF01200000E066EA0
:101B700004AE07D0036C041ED8B0042A010E066E12
:101B800000D002AE07D0016C021ED8B0022A010EAE
:101B9000061A00D0000E086E000E076E03500410E7
:101BA000D8B421D0010E056E05D0D8900336043686
:101BB000052A00D004BE02D0F8D700D0D89007364E
:101BC00008360350015C04500258D8A006D00350D8
:101BD000015E0450025A078000D0D89004320332CC
:101BE000052EECD700D00650D8B405D0076C081EDF
:101BF000D8B0082A00D007C001F008C002F01200D7
:101C0000120036D0010E056E090E38EC10F0880E69
:101C1000096E0F0E0A6E59EC0FF0000E3A6E020EAE
:101C2000396E020E056E090E38EC10F0820E096E48
:101C30000F0E0A6E59EC0FF01200020E056E090E1F
:101C400038EC10F0880E096E0F0E0A6E59EC0FF08A
:101C5000000E3A6E010E396E010E056E090E38EC5B
:101C600010F0820E096E0F0E0A6E59EC0FF0120082
:101C700039C00BF03AC00CF00C50000AD8A4120086
:101C80000B50010AD8B4BED7030AD8A41200D5D786
:101C90001200939693948A968A949398939A939C1D
:101CA000939E0A0E82EC10F00A0E82EC10F00A0EDF
:101CB00082EC10F0000E056E020E056401D008D013
:101CC000030E89EC0EF00A0E82EC10F0052AF4D710
:101CD000020E89EC0EF0000E056E030E056402D0B4
:101CE000120012000550010D0B0EF324F66E0F0EBC
:101CF000F420F76E0800F5CF03F0000E0BEC10F0A7
:101D00000A0E82EC10F0052A030E0564EBD71200D0
:101D10001200026E02A003D0016A012A01D0016AFA
:101D2000013A8A500118EF0B01188A6E02A203D003
:101D3000016A012A01D0016A013A01468A5001185C
:101D4000DF0B01188A6E02A403D0016A012A01D0B8
:101D5000016A013A014601468A500118BF0B011879
:101D60008A6E02A603D0016A012A01D0016A0132FB
:101D700001328A5001187F0B01188A6E00F08A84A4
:101D800000F000F08A9412009B8E9B9CD388D38A2B
:101D9000D38CD390D392F00E926E000E936E070EFA
:101DA000946E0F0148690F0149692D0EC26E100E25
:101DB000C16E0F013F8F0F013F8BCD8605EC0BF0FD
:101DC00049EC0EF00C0E99EC10F08A828A80000E1D
:101DD000386E010E376E000E3C6E010E3B6E000E2B
:101DE000326E000E316E000E3E6E000E3D6E000E25
:101DF0003A6E010E396E120049EC0EF0010E056EBE
:101E0000020E38EC10F0550E096E0F0E0A6E59ECEA
:101E10000FF0020E056E020E38EC10F05B0E096E2C
:101E20000F0E0A6E59EC0FF0010E056E0A0E38EC1B
:101E300010F0610E096E0F0E0A6E59EC0FF0020ED3
:101E4000056E0A0E38EC10F0670E096E0F0E0A6E62
:101E500059EC0FF01200000E066E000E056E0350D6
:101E60000410D8B421D0010E076E05D0D8900336E7
:101E70000436072A00D004BE02D0F8D700D0D8908C
:101E8000053606360350015C04500258D8A006D02F
:101E90000350015E0450025A058000D0D8900432ED
:101EA0000332072EECD700D005C001F006C002F0C7
:101EB000120015D009C0F6FF0AC0F7FFF86A0E0E2F
:101EC000F76403D00800F55005D0F6CFE9FFF7CF4F
:101ED000EAFFEF50A9EC0FF0094A0A2A00D009C026
:101EE000F6FF0AC0F7FFF86A0E0EF76403D0080089
:101EF000F55005D0F6CFE9FFF7CFEAFFEF50000924
:101F0000D8A4D8D712000A500B10D8B41DD0010E97
:101F10000C6E05D0D8900A360B360C2A00D00BBEBA
:101F200002D0F8D700D00A50085C0B500958D8A04E
:101F300005D00A50085E0B50095A00D0D8900B32D9
:101F40000A320C2EF0D700D008C008F009C009F002
:101F50001200086E18D0010E036E000E0BEC10F08C
:101F60001200020E056E010E38EC10F01200100E79
:101F7000036E000E0BEC10F0120008C003F0010E0F
:101F80000BEC10F012000850080AD8B4F0D7020A7F
:101F9000D8B4E7D7060AD8B4DED7EFD7120000EEE0
:101FA00060F0300EEE6AE806FDE15F6A00EE25F0B3
:101FB000230EEE6AE806FDE14E0EF66E210EF76E78
:101FC000000EF86E00EE55F010EE0AF00900F5CFA5
:101FD000EEFFE550E150FAE1000EF86E000166EF09
:101FE00010F031503210D8A407D0FCEC0EF0000EE7
:101FF000326E010E316E12003D503E10D8A403D057
:102000004CEC0CF000D03D043E10D8A4120001ECC2
:102010000EF012001200046E8A96020E79EC10F097
:102020009398939A939C939E0450D8B402D08A8636
:1020300001D08A9600F003380F0B89EC0EF00350A4
:102040000F0B89EC0EF0120001500302F3CF05F0E4
:10205000F4CF06F001500402F350062602500302AA
:10206000F350062605C001F006C002F0120012006F
:10207000066E0504D8B402D0400E01D0000E076EE3
:1020800000D00604072607508009036E000E0BECF3
:1020900010F01200036E000E026E3A0E036006D0BE
:1020A0002F0E036403D0010E026E00D002C001F0B7
:1020B00001301200120066EC0DF0000E326E000EC0
:1020C000316E000E3E6E000E3D6E1200C4EC0EF03E
:1020D00066EC0DF000D0C6EC07F0FDD700EF00F085
:1020E000F29C550EA76EAA0EA76E0F013F8BF28CC5
:1020F0001200016E210EE82EFED700F0012EFAD755
:1021000012001200016EFA0E00F0E82EFDD7012E2B
:10211000FAD712001200840E096E0F0E0A6E59ECE7
:102120000FF01200860E096E0F0E0A6E59EC0FF0BA
:102130001200056E05C003F0000E0BEC10F012004B
:10214000FCEC0EF0000E3E6E000E3D6E1200100014
:08215000060002001200090064
:08FFF800AEF718FFF3F8FFF16A
:00000001FF
