:04000000B9EF73F0F1
:10E1E800F7EC70F0120037C035F038C036F0120086
:10E1F800F7EC70F0A2EC71F01200100006000200BB
:10E2080012000900056E05C003F0000E2AEC72F03A
:10E218001200016EFA0E00F0E82EFDD7012EFAD793
:10E2280012001200016E210EE82EFED700F0012E1A
:10E23800FAD712001200F29C550EA76EAA0EA76E0E
:10E248000F013F8BF28C12009A0E016E000E026EC7
:10E25800D30E036EFF0E046EDBEC73F012000DC0DC
:10E2680005F00B507CEC71F00FC009F010C00AF0FB
:10E27800CDEC75F012009A0E016E000E026E9F0E24
:10E28800036E000E046EDBEC73F0A2EC71F012006A
:10E29800F7EC70F029502A10D8B4120029042A107B
:10E2A800D8B4120001EC79F01200120029502A109B
:10E2B800D8B412003506D8A0360635503610D8A482
:10E2C8001200F7EC70F0A2EC71F012001200036E6D
:10E2D800000E026E3A0E036006D02F0E036403D0C0
:10E2E800010E026E00D002C001F0013012001200CF
:10E2F800066E0504D8B402D0400E01D0000E076E99
:10E3080000D00604072607508009036E000E2AEC89
:10E3180072F0120001500302F3CF05F0F4CF06F0BB
:10E3280001500402F350062602500302F350062659
:10E3380005C001F006C002F012001200000E2A6E9D
:10E34800000E296E3FEC78F0000E0C6E010E0B6E7D
:10E35800000E0E6E010E0D6EE20E0F6EFF0E106EA9
:10E3680033EC71F012009A0E016E000E026E9F0ED1
:10E37800036E000E046E04EC75F001500210D8A470
:10E3880003D001EC79F01200B6EC74F01200120020
:10E3980042EC79F0A2EC71F000D05AEC71F04AEC42
:10E3A8007BF0EEEC7CF029502A10D8A4F6D7CBEC01
:10E3B80079F0F7EC7AF0F1D700EF00F006D098EC9E
:10E3C80073F0120077EC73F0120043C011F044C0F0
:10E3D80012F01250000AD8A412001150000AD8B442
:10E3E800EED7010AD8A41200EDD7120006D07FECB0
:10E3F80078F01200C0EC78F0120043C024F044C05A
:10E4080025F02550000AD8A412002450000AD8B4D8
:10E41800EED7010AD8A41200EDD7120006D024ECDA
:10E4280077F01200F1EC76F0120043C011F044C00E
:10E4380012F01250000AD8A412001150000AD8B4E1
:10E44800EED7010AD8A41200EDD71200046E8A96FE
:10E45800020E16EC71F09398939A939C939E045035
:10E46800D8B402D08A8601D08A9600F003380F0B00
:10E47800C6EC77F003500F0BC6EC77F0120008D00B
:10E48800DDEC74F0120028EC71F0A2EC71F01200CF
:10E4980043C011F044C012F01250000AD8A4120070
:10E4A8001150000AD8B4ECD7010AD8A41200EBD74F
:10E4B800120009D0000E426E010E03D0000E426E0B
:10E4C800000E416E10D043C011F044C012F012503B
:10E4D800000AD8A408D01150000AD8B4EBD7010A12
:10E4E800D8B4ECD700D0A2EC71F0120009D0000E1D
:10E4F8002C6E000E03D0000E2C6E010E2B6E10D069
:10E5080043C011F044C012F01250000AD8A408D039
:10E518001150000AD8B4EBD7010AD8B4ECD700D010
:10E52800A2EC71F0120009D0000E2E6E000E03D07E
:10E53800000E2E6E010E2D6E10D043C011F044C097
:10E5480012F01250000AD8A408D01150000AD8B40A
:10E55800EBD7010AD8B4ECD700D0A2EC71F01200C6
:10E56800F7EC70F029042A10D8A403D0B7EC71F0A6
:10E578001200060E29182A10D8A403D03FEC71F017
:10E5880012000A0E29182A10D8B405D00B0E291823
:10E598002A10D8A41200A2EC71F012001200F7ECB5
:10E5A80070F009D0B6EC74F01200FEEC73F01200B3
:10E5B800E2EC71F0120029C013F02AC014F01450D4
:10E5C800000AD8A4F5D71350000AD8B4EBD7010A2B
:10E5D800D8B41200030AD8B4E8D7EAD71200000E5C
:10E5E8000C6E010E0B6E000E0E6E010E0D6EF20E0D
:10E5F8000F6EFF0E106E33EC71F0000E3C6E000EC5
:10E608003B6E000E0C6E090E0B6E000E0E6E020EA7
:10E618000D6EF00E0F6EFF0E106E33EC71F01200DF
:10E62800000E0C6E010E0B6E000E0E6E020E0D6EBD
:10E63800F20E0F6EFF0E106E33EC71F0000E3C6E92
:10E64800010E3B6E000E0C6E010E0B6E000E0E6E70
:10E65800010E0D6EF00E0F6EFF0E106E33EC71F0A2
:10E668001200000E0C6E090E0B6E000E0E6E010EDF
:10E678000D6EF20E0F6EFF0E106E33EC71F0000E81
:10E688003C6E020E3B6E000E0C6E010E0B6E000E01
:10E698000E6E020E0D6EF00E0F6EFF0E106E33EC46
:10E6A80071F01200000E0C6E090E0B6E000E0E6E4D
:10E6B800020E0D6EF20E0F6EFF0E106E33EC71F03F
:10E6C800000E3C6E030E3B6E000E0C6E090E0B6EB8
:10E6D800000E0E6E010E0D6EF00E0F6EFF0E106E18
:10E6E80033EC71F01200000E0C6E090E0B6E000E6A
:10E6F8000E6E010E0D6EF20E0F6EFF0E106E33ECE5
:10E7080071F0000E446E000E436E000E0C6E090E82
:10E718000B6E000E0E6E020E0D6EF00E0F6EFF0EDB
:10E72800106E33EC71F01200000E0C6E090E0B6EB9
:10E73800000E0E6E020E0D6EF20E0F6EFF0E106EB4
:10E7480033EC71F0000E446E010E436E000E0C6E39
:10E75800090E0B6E000E0E6E010E0D6EF00E0F6E92
:10E76800FF0E106E33EC71F0120000EE60F0440EF4
:10E77800EE6AE806FDE15F6A00EE29F0250EEE6A12
:10E78800E806FDE1020EF66EE20EF76E000EF86E78
:10E7980000EE4EF010EE0AF00900F5CFEEFFE5505E
:10E7A800E150FAE1000EF86E0001CCEF71F001C003
:10E7B80005F002C006F005D0054A062A034A042AD5
:10E7C80000D003C0F6FF04C0F7FFF86A05C0D9FF00
:10E7D80006C0DAFF0E0EF76403D00800F55005D026
:10E7E800F6CFE9FFF7CFEAFFEF50DF6EDF50D8A48E
:10E7F800E3D712000CD014EC73F0120035EC73F070
:10E80800120056EC73F01200F3EC72F012003BC0E9
:10E8180011F03CC012F01250000AD8A41200115096
:10E82800000AD8B4E8D7010AD8B4E8D7030AD8B49C
:10E83800E8D7010AD8A41200E7D712000CD025ECBB
:10E8480076F0120058EC76F012008BEC76F012009D
:10E85800BEEC76F012003BC011F03CC012F0125032
:10E86800000AD8A412001150000AD8B4E8D7010A47
:10E87800D8B4E8D7030AD8B4E8D7010AD8A4120054
:10E88800E7D7120001C005F002C006F003D0054A20
:10E89800062A00D005C0D9FF06C0DAFFDF50D8B479
:10E8A80007D0F5D705D0054A062A034A042A00D01E
:10E8B80003C0D9FF04C0DAFF05C0E1FF06C0E2FFCC
:10E8C800DFCFE7FFE750D8A4EED71200086E18D0C4
:10E8D800010E036E000E2AEC72F01200020E056E95
:10E8E800010E7CEC71F01200100E036E000E2AEC83
:10E8F80072F0120008C003F0010E2AEC72F0120048
:10E908000850080AD8B4F0D7020AD8B4E7D7060ADC
:10E91800D8B4DED7EFD712000A500B10D8B41DD0E8
:10E92800010E0C6E05D0D8900A360B360C2A00D092
:10E938000BBE02D0F8D700D00A50085C0B5009581B
:10E94800D8A005D00A50085E0B50095A00D0D890BC
:10E958000B320A320C2EF0D700D008C008F009C0DC
:10E9680009F01200000E2A6E010E296E9F0E016E2C
:10E97800000E026EF10E036EFF0E046EDBEC73F0F8
:10E988003FEC78F0000E0C6E010E0B6E000E0E6E52
:10E99800010E0D6E120E0F6EFF0E106E33EC71F03D
:10E9A800020E056E010E7CEC71F00F0E06EC71F094
:10E9B8001200000E2A6E060E296E9F0E016E000EC2
:10E9C800026EF10E036EFF0E046EDBEC73F03FEC8B
:10E9D80078F0000E0C6E010E0B6E000E0E6E010E1E
:10E9E8000D6E500E0F6EFF0E106E33EC71F0020EAE
:10E9F800056E010E7CEC71F00F0E06EC71F0120042
:10EA080005D0014A022A034A042A00D001C0D9FFCE
:10EA180002C0DAFFDF50056E03C0D9FF04C0DAFF79
:10EA2800DF5000080524066E0650D8A409D001C09E
:10EA3800D9FF02C0DAFFDF50D8B402D0E2D700D045
:10EA48000650016E026A01BE020612001200080E8C
:10EA580033183410D8A405D0000E346E000E336E6F
:10EA68000DD0020E33183410D8B405D0050E331863
:10EA78003410D8A403D0334A342A00D0334A342A75
:10EA8800020E056E33507CEC71F0FF0E086E8A0E94
:10EA9800E82EFED7082EFCD700D012004104421001
:10EAA800D8A40BD0860E0D6E000E0E6E960E0F6E4D
:10EAB800FF0E106E47EC7EF00BD0860E0D6E000E2A
:10EAC8000E6EA40E0F6EFF0E106E47EC7EF000D097
:10EAD800000E0C6E010E0B6E000E0E6E020E0D6E09
:10EAE800860E0F6E000E106E33EC71F012002B5074
:10EAF8002C10D8A40BD0860E0D6E000E0E6E810E53
:10EB08000F6EFF0E106E47EC7EF00BD0860E0D6E6A
:10EB1800000E0E6E880E0F6EFF0E106E47EC7EF024
:10EB280000D0000E0C6E010E0B6E000E0E6E020E63
:10EB38000D6E860E0F6E000E106E33EC71F0120023
:10EB48002D502E10D8A40BD0860E0D6E000E0E6E12
:10EB58008F0E0F6EFF0E106E47EC7EF00BD0860EF8
:10EB68000D6E000E0E6E9D0E0F6EFF0E106E47ECB2
:10EB78007EF000D0000E0C6E010E0B6E000E0E6EB5
:10EB8800020E0D6E860E0F6E000E106E33EC71F0D5
:10EB9800120015D009C0F6FF0AC0F7FFF86A0E0E7A
:10EBA800F76403D00800F55005D0F6CFE9FFF7CF9A
:10EBB800EAFFEF506AEC74F0094A0A2A00D009C04B
:10EBC800F6FF0AC0F7FFF86A0E0EF76403D00800D4
:10EBD800F55005D0F6CFE9FFF7CFEAFFEF5000096F
:10EBE800D8A4D8D71200000E066E000E056E03508A
:10EBF8000410D8B421D0010E076E05D0D890033682
:10EC08000436072A00D004BE02D0F8D700D0D89026
:10EC1800053606360350015C04500258D8A006D0C9
:10EC28000350015E0450025A058000D0D890043287
:10EC38000332072EECD700D005C001F006C002F061
:10EC48001200000E2A6E040E296E3FEC78F0000EBA
:10EC58000C6E010E0B6E000E0E6E010E0D6E6B0E1D
:10EC68000F6EFF0E106E33EC71F0000E0C6E0A0E74
:10EC78000B6E000E0E6E010E0D6EEA0E0F6EFF0E7D
:10EC8800106E33EC71F0000E0C6E0A0E0B6E000E57
:10EC98000E6E020E0D6EED0E0F6EFF0E106E33EC43
:10ECA80071F077EC73F01200000E2A6E030E296ED5
:10ECB8003FEC78F0000E0C6E010E0B6E000E0E6E1F
:10ECC800010E0D6EBE0E0F6EFF0E106E33EC71F05E
:10ECD800000E0C6E0A0E0B6E000E0E6E010E0D6EFF
:10ECE800B80E0F6EFF0E106E33EC71F0000E0C6E46
:10ECF8000A0E0B6E000E0E6E020E0D6ED80E0F6E03
:10ED0800FF0E106E33EC71F077EC73F01200000E0A
:10ED18002A6E050E296E3FEC78F0000E0C6E010E7F
:10ED28000B6E000E0E6E010E0D6EE60E0F6EFF0ED0
:10ED3800106E33EC71F0000E0C6E0A0E0B6E000EA6
:10ED48000E6E010E0D6E630E0F6EFF0E106E33EC1D
:10ED580071F0000E0C6E0A0E0B6E000E0E6E020E97
:10ED68000D6EB20E0F6EFF0E106E33EC71F077EC75
:10ED780073F01200000E2A6E070E296E3FEC78F031
:10ED8800000E0C6E010E0B6E000E0E6E010E0D6E57
:10ED9800AB0E0F6EFF0E106E33EC71F0000E0C6EA2
:10EDA8000A0E0B6E000E0E6E010E0D6E5B0E0F6ED0
:10EDB800FF0E106E33EC71F0000E0C6E0A0E0B6E27
:10EDC800000E0E6E020E0D6EC90E0F6EFF0E106E47
:10EDD80033EC71F077EC73F01200000E2A6E090E16
:10EDE800296E3FEC78F0000E0C6E010E0B6E000ED3
:10EDF8000E6E010E0D6EC90E0F6EFF0E106E33EC07
:10EE080071F0000E0C6E0A0E0B6E000E0E6E010EE7
:10EE18000D6E730E0F6EFF0E106E33EC71F0000E58
:10EE28000C6E0A0E0B6E000E0E6E020E0D6E7A0E32
:10EE38000F6EFF0E106E33EC71F077EC73F012006A
:10EE4800000E2A6E080E296E3FEC78F0000E0C6E4C
:10EE5800010E0B6E000E0E6E010E0D6E5B0E0F6E28
:10EE6800FF0E106E33EC71F0000E0C6E0A0E0B6E76
:10EE7800000E0E6E010E0D6EC40E0F6EFF0E106E9C
:10EE880033EC71F0000E0C6E0A0E0B6E000E0E6E57
:10EE9800020E0D6ECE0E0F6EFF0E106E33EC71F07B
:10EEA80077EC73F01200FC0E0F013F170F013F8142
:10EEB80098CF0FF099CF10F098CF11F099CF12F0AA
:10EEC800FC0E0F013F170F013F8198CF07F099CF34
:10EED80008F098CF09F099CF0AF009501118D8A472
:10EEE800E2D720EE03F00150D9260250DA220FC0F3
:10EEF800DFFF20EE02F00150D9260250DA2212C0BC
:10EF0800DFFF20EE01F00150D9260250DA2211C0AD
:10EF1800DFFF1200F7EC70F015D022EC74F012004D
:10EF2800FAEC71F012005DEC72F0120043EC72F032
:10EF3800120012EC72F0120097EC72F012007AECE8
:10EF480072F0120029C026F02AC027F02750000AC4
:10EF5800D8A412002650020AD8B4DFD7010AD8B4C0
:10EF6800DFD7070AD8B4DFD7010AD8B4DFD7020A37
:10EF7800D8B4DFD70F0AD8B4DFD7010AD8A4120053
:10EF8800DED71200026E02A003D0016A012A01D066
:10EF9800016A013A8A500118EF0B01188A6E02A221
:10EFA80003D0016A012A01D0016A013A01468A5058
:10EFB8000118DF0B01188A6E02A403D0016A012A26
:10EFC80001D0016A013A014601468A500118BF0B77
:10EFD80001188A6E02A603D0016A012A01D0016ACB
:10EFE800013201328A5001187F0B01188A6E00F035
:10EFF8008A8400F000F08A941200F7EC70F0860E14
:10F008000D6E000E0E6EDD0E0F6EFF0E106E45C0FB
:10F0180011F0126A47EC7EF029042A10D8B405D002
:10F02800060E29182A10D8A411D0F40E096EFF0E66
:10F038000A6ECDEC75F09F0E016E000E026E860E04
:10F04800036E000E046E46EC74F012000A0E2918C6
:10F058002A10D8A405D05FEC7AF02BEC75F01200DA
:10F068000B0E29182A10D8A41200ABEC7AF02BEC5E
:10F0780075F012001200939693948A968A94939846
:10F08800939A939C939E0A0E0DEC71F00A0E0DEC68
:10F0980071F00A0E0DEC71F0000E056E020E05649B
:10F0A80001D008D0030EC6EC77F00A0E0DEC71F013
:10F0B800052AF4D7020EC6EC77F0000E056E030E93
:10F0C800056402D0120012000550010DFD0EF32454
:10F0D800F66EFE0EF420F76E0800F5CF03F0000E72
:10F0E8002AEC72F00A0E0DEC71F0052A030E056485
:10F0F800EBD712001200000E2A6E0A0E296E3FECA2
:10F1080078F0000E0C6E010E0B6E000E0E6E010EE6
:10F118000D6E010E0F6EFF0E106E33EC71F0860E41
:10F128000D6E000E0E6E320E0F6EFF0E106E50C07A
:10F1380011F051C012F056C013F057C014F04EC071
:10F1480015F04FC016F047EC7EF0000E0C6E010E65
:10F158000B6E000E0E6E020E0D6E860E0F6E000EFA
:10F16800106E33EC71F0020E056E010E7CEC71F03E
:10F178000F0E06EC71F01200000E2A6E0B0E296EAF
:10F188003FEC78F0000E0C6E010E0B6E000E0E6E4A
:10F19800010E0D6E220E0F6EFF0E106E33EC71F025
:10F1A800860E0D6E000E0E6E410E0F6EFF0E106E67
:10F1B80054C011F055C012F03DC013F03EC014F019
:10F1C8003FC015F040C016F047EC7EF0000E0C6E04
:10F1D800010E0B6E000E0E6E020E0D6E860E0F6E79
:10F1E800000E106E33EC71F0020E056E010E7CEC11
:10F1F80071F00F0E06EC71F01200000E2A6E020E6E
:10F20800296E3FEC78F0000E0C6E020E0B6E000EAD
:10F218000E6E010E0D6E6B0E0F6EFF0E106E33EC40
:10F2280071F0000E0C6E020E0B6E000E0E6E020ECA
:10F238000D6EBE0E0F6EFF0E106E33EC71F0000EE9
:10F248000C6E0A0E0B6E000E0E6E010E0D6EE60EA3
:10F258000F6EFF0E106E33EC71F0000E0C6E0A0E7E
:10F268000B6E000E0E6E020E0D6EAB0E0F6EFF0EC5
:10F27800106E33EC71F0F3EC72F012009B8E9B9CD5
:10F28800D388D38AD38CD390D392F00E926E000E8B
:10F29800936E070E946E0F0148690F0149692D0E90
:10F2A800C26E100EC16E0F013F8F0F013F8BCD86CE
:10F2B80099EC7DF03FEC78F00C0E06EC71F08A8248
:10F2C8008A80000E386E320E376E000E306E000ED9
:10F2D8002F6E000E3C6E000E3B6E000E446E000E4C
:10F2E800436E000E346E010E336E000E2E6E000E4D
:10F2F8002D6E000E2C6E000E2B6E28EC71F0120095
:10F30800FC0E0F013F17030E0F013F1398CF0BF0B0
:10F3180099CF0CF098CF0DF099CF0EF098CF0FF051
:10F3280099CF10F0FC0E0F013F17030E0F013F138A
:10F3380098CF03F099CF04F098CF05F099CF06F055
:10F3480098CF07F099CF08F005500D18D8A4D8D752
:10F3580020EE01F00150D9260250DA220DC0DFFF5D
:10F3680020EE02F00150D9260250DA220EC0DFFF4B
:10F3780001C0D9FF02C0DAFF10C0DFFF20EE03F0A2
:10F388000150D9260250DA220BC0DFFF1200860E88
:10F398000D6E000E0E6E320E0F6EFF0E106E50C008
:10F3A80011F051C012F056C013F057C014F04EC0FF
:10F3B80015F04FC016F047EC7EF0000E0C6E090EEB
:10F3C8000B6E000E0E6E010E0D6E860E0F6E000E89
:10F3D800106E33EC71F0860E0D6E000E0E6E410E3F
:10F3E8000F6EFF0E106E54C011F055C012F03DC0E4
:10F3F80013F03EC014F03FC015F040C016F047ECC3
:10F408007EF0000E0C6E090E0B6E000E0E6E020ED4
:10F418000D6E860E0F6E000E106E33EC71F012003A
:10F42800000E066E04AE07D0036C041ED8B0042A82
:10F43800010E066E00D002AE07D0016C021ED8B0D5
:10F44800022A010E061A00D0000E086E000E076E82
:10F4580003500410D8B421D0010E056E05D0D89001
:10F4680003360436052A00D004BE02D0F8D700D0EF
:10F47800D890073608360350015C04500258D8A0CB
:10F4880006D00350015E0450025A078000D0D8907D
:10F4980004320332052EECD700D00650D8B405D07C
:10F4A800076C081ED8B0082A00D007C001F008C0B1
:10F4B80002F01200120024D045500A0DF3CF50F08C
:10F4C800F4CF51F039D045505026000E512234D097
:10F4D80045500A0DF3CF56F0F4CF57F02DD04550D4
:10F4E8005626000E572228D045500A0DF3CF4EF06D
:10F4F800F4CF4FF021D045504E26000E4F221CD09D
:10F5080033C00EF034C00FF00F50000AD8A414D046
:10F518000E50010AD8B4D0D7030AD8B4D4D7060AF3
:10F52800D8B4D6D7010AD8B4DAD7020AD8B4DCD707
:10F538000F0AD8B4E0D700D099EC7DF0FF0E0E6E1C
:10F548008A0EE82EFED70E2EFCD700D0120024D04B
:10F5580045500A0DF3CF54F0F4CF55F039D045504B
:10F568005426000E552234D045500A0DF3CF3DF0F5
:10F57800F4CF3EF02DD045503D26000E3E2228D037
:10F5880045500A0DF3CF3FF0F4CF40F021D045505D
:10F598003F26000E40221CD033C00EF034C00FF0BE
:10F5A8000F50000AD8A414D00E50010AD8B4D0D7EE
:10F5B800030AD8B4D4D7060AD8B4D6D7010AD8B41F
:10F5C800DAD7020AD8B4DCD70F0AD8B4E0D700D00B
:10F5D80099EC7DF0FF0E0E6E8A0EE82EFED70E2EE9
:10F5E800FCD700D0120041044210D8A402D08A826D
:10F5F80000D041504210D8A402D08A9200D0314A9B
:10F60800322A30D052EC75F0050E31183210D8A4D9
:10F618001200000E326E000E316E000E306E010EBA
:10F628002F6E1200A4EC75F0050E31183210D8A414
:10F638001200000E326E000E316E000E306E020E99
:10F648002F6E12007BEC75F0050E31183210D8A41D
:10F658001200000E326E000E316E000E306E000E7B
:10F668002F6E12002FC024F030C025F02550000A5C
:10F67800D8A412002450000AD8B4C4D7010AD8B4B8
:10F68800D1D7030AD8A41200DDD712004A0E016EA2
:10F69800000E026E57EC77F04B500F0B5E6E4B3836
:10F6A8000F0B0F0B5D6E4C500F0B0001A96F4C3800
:10F6B8000F0B0F0B5C6E4D500F0B0001A76F4D38F1
:10F6C8000F0B0F0B5A6E460E016E000E026E84EC85
:10F6D80079F047500F0B0001A66F47380F0B0F0B3F
:10F6E800596E48500F0B0001A86F48380F0B0F0BCD
:10F6F8005B6E46C0A5F049500F0B0001A46F493856
:10F708000F0B0F0B586E5D500A0D5E50F3243F6EC1
:10F71800000EF420406E5C500A0D0001A951F3243C
:10F728003D6E0001000EF4203E6E5A500A0D000195
:10F73800A751F324546E0001000EF420556E595061
:10F748000A0D0001A651F324506E0001000EF420AA
:10F75800516EA5C052F0536A5B500A0D0001A851C2
:10F76800F324566E0001000EF420576E58500A0D0F
:10F778000001A451F3244E6E0001000EF4204F6ED8
:10F788001200000E066E20EE02F00150D92602503B
:10F79800DA225A0EDF60120020EE01F00150D9265D
:10F7A8000250DA225A0EDF60120020EE03F00150F8
:10F7B800D9260250DA22240EDF6402D01200120089
:10F7C80020EE02F00150D9260250DA22DF50096EED
:10F7D80020EE01F00150D9260250DA22DF50086EDF
:10F7E8000350D8B402D0F29C00D0000E3FBB010EEB
:10F7F800076E0750D8A403D01FEC71F000D0000E9C
:10F808003FBF010E056E0550D8B407D0000E91BE5B
:10F81800010E066E0F013F9F00D0FC0E0F013F172F
:10F828000F013F8198CF0AF099CF0BF020EE03F03B
:10F838000150D9260250DA22DF500A6EFC0E0F0161
:10F848003F170F013F810AC098FF0BC099FF08C0FE
:10F8580098FF09C099FF0550D8B40DD00F013F8F0C
:10F868000650D8B402D0918E00D00750D8B409D031
:10F878001FEC71F006D00750D8A403D00F013F9BAE
:10F8880000D00350D8B41200F28C12001200000EFF
:10F89800066E20EE02F00150D9260250DA22130E2D
:10F8A800DF60120020EE02F00150D9260250DA2261
:10F8B800DF50D8B4120020EE01F00150D9260250D2
:10F8C800DA22320EDF60120020EE01F00150D92654
:10F8D8000250DA22DF50D8B4120020EE03F00150B3
:10F8E800D9260250DA22990EDF6402D012001200E3
:10F8F80020EE03F00150D9260250DA22DF50076EBD
:10F9080020EE01F00150D9260250DA22DF500A6EAB
:10F9180020EE02F00150D9260250DA22DF500B6E99
:10F928000350D8B402D0F29C00D0000E3FBB010EA9
:10F93800096E0950D8A403D01FEC71F000D0000E56
:10F948003FBF010E056E0550D8B407D0000E91BE1A
:10F95800010E066E0F013F9F00D0FC0E0F013F17EE
:10F968000F013F8198CF0CF099CF0DF001C0D9FF5E
:10F9780002C0DAFFDF500D6EFC0E0F013F17030EB9
:10F988000F013F1307C098FF08C099FF0AC098FFEE
:10F998000BC099FF0CC098FF0DC099FF0550D8B453
:10F9A8000DD00F013F8F0650D8B402D0918E00D0F1
:10F9B8000950D8B409D01FEC71F006D00950D8A46A
:10F9C80003D00F013F9B00D00350D8B41200F29C23
:10F9D80012001200898089928994899680AA07D09A
:10F9E800010E456E01EC78F000D080BAFED780AEEB
:10F9F80007D0020E456E01EC78F000D080BEFED72D
:10FA080080AC07D0030E456E01EC78F000D080BCC6
:10FA1800FED782A407D00B0E456ED3EC72F000D04F
:10FA280082B4FED7899089828994899680AA07D062
:10FA3800040E456E01EC78F000D080BAFED780AE97
:10FA480007D0050E456E01EC78F000D080BEFED7D9
:10FA580080AC07D0060E456E01EC78F000D080BC73
:10FA6800FED782A407D00C0E456E8EEC77F000D03E
:10FA780082B4FED7899089928984899680AA07D012
:10FA8800070E456E01EC78F000D080BAFED780AE44
:10FA980007D0080E456E01EC78F000D080BEFED786
:10FAA80080AC07D0090E456E01EC78F000D080BC20
:10FAB800FED782A407D00D0E456E4CEC71F000D035
:10FAC80082B4FED7899089928994898680AA07D0C2
:10FAD8000E0E456EF4EC70F000D080BAFED780AE02
:10FAE80007D0000E456E01EC78F000D080BEFED73E
:10FAF80080AC07D00F0E456EB4EC72F000D080BC1D
:10FB0800FED782A409D0100E456EFCEC70F000D030
:10FB180082A402D0FDD700D0FF0E286E8A0EE82EF0
:10FB2800FED7282EFCD700D012001FEC71F0A3805E
:10FB38003FC001F040C002F0000E046E0A0E036ED2
:10FB480014EC7AF001505D6E5D500A0DF350000818
:10FB58003F245E6E5D50100DF3505E244B6E3DC029
:10FB680001F03EC002F0000E046E0A0E036E14ECA3
:10FB78007AF001505C6E5C500A0DF35000083D2489
:10FB88000001A96F5C50100DF3500001A9254C6EBF
:10FB980054C001F055C002F0000E046E0A0E036E48
:10FBA80014EC7AF001505A6E5A500A0DF3500008BE
:10FBB80054240001A76F5A50100DF3500001A725D7
:10FBC8004D6E4EC001F04FC002F0000E046E0A0EDA
:10FBD800036E14EC7AF00150586E58500A0DF35029
:10FBE80000084E240001A46F5850100DF350000176
:10FBF800A425496E56C001F057C002F0000E046EED
:10FC08000A0E036E14EC7AF001505B6E5B500A0D1D
:10FC1800F350000856240001A86F5B50100DF350F4
:10FC28000001A825486E50C001F051C002F0000E36
:10FC3800046E0A0E036E14EC7AF00150596E595096
:10FC48000A0DF350000850240001A66F5950100DFA
:10FC5800F3500001A625476E52C0A5F052C046F0E9
:10FC68004A0E016E000E026E010E036EC5EC7BF0AB
:10FC7800460E016E000E026E010E036E4BEC7CF018
:10FC88000F013F8F1200110E1B6E000E1C6E17D154
:10FC9800250E2318D8B409D00DC0D9FF0EC0DAFF3D
:10FCA80023C0DFFF0D4A0E2A0AD1000E226E000E75
:10FCB800216E000E1D6E05D01D840F4A102A01D03A
:10FCC8000BD00FC0F6FF10C0F7FF0800F550300A40
:10FCD800D8B4F2D701D0F5D70FC0F6FF10C0F7FFA0
:10FCE8000800F5506BEC71F0D8A03AD0000E226EE7
:10FCF800000E216E00D021C001F022C002F0000EDB
:10FD0800046E0A0E036E8EEC71F001C021F002C081
:10FD180022F0D00E176EFF0E186E0FC0F6FF10C03F
:10FD2800F7FF0800F550196E1A6A1750192618506F
:10FD38001A22195021261A5022220F4A102A0FC0BF
:10FD4800F6FF10C0F7FF0800F5506BEC71F0D8A073
:10FD580007D0D1D705D0C1D0B2D0C00E1D1211D056
:10FD68000FC0F6FF10C0F7FF0F4A102A0800F5CFA2
:10FD780023F02350000AD8B4B0D0750AD8B4EDD710
:10FD88009ED01BC0D9FF1CC0DAFFDECF1EF0DDCF2E
:10FD98001FF0020E1B26000E1C22010E236E050EFC
:10FDA8002318D8B416D001D014D02350020DF30E66
:10FDB800F324F66EFE0EF420F76E0900F5501E5C73
:10FDC8000900F5501F58D8A004D001D002D0232A2A
:10FDD800E6D7800E23BE7F0E176E2150235C22507B
:10FDE800800A1758D8B007D02350215E000E23BED2
:10FDF800FF0E225A05D0000E226E000E216E00D092
:10FE08001DA415D021502210D8B426D00DC0D9FF7A
:10FE18000EC0DAFF300EDF6E0D4A0E2A2106D8A07A
:10FE2800220621502210D8B417D0F0D715D021506F
:10FE38002210D8B411D00DC0D9FF0EC0DAFF200EA1
:10FE4800DF6E0D4A0E2A2106D8A022062150221064
:10FE5800D8B402D0F0D700D023C020F02AD0205048
:10FE6800020DF30EF324F66EFE0EF420F76E090071
:10FE7800F5CF03F00A00F5CF04F01EC001F01FC053
:10FE880002F0F7EC75F001C008F002C009F0000EAE
:10FE98000B6E0A0E0A6E90EC74F00850300F236E49
:10FEA8000DC0D9FF0EC0DAFF23C0DFFF0D4A0E2AAE
:10FEB80000D020062028D8B402D0D1D700D00FC057
:10FEC800F6FF10C0F7FF0F4A102A0800F5CF23F0FD
:10FED8002350D8B402D0DCD600D00DC0D9FF0EC054
:10FEE800DAFF000EDF6E120012000001000A006443
:10FEF80000E8031027280C0106496E6772657365D0
:10FF0800206C6120666563686100496E677265737D
:10FF1800652073752050494E3A00496E67726573C3
:10FF280065206C6120686F726100253032752F255D
:10FF38003032752F2530327500253032753A25302C
:10FF480032753A25303275004E7565766F20504906
:10FF58004E3A00566F6C756D656E0043616D62694F
:10FF68006172004163746976617200546F6E6F202C
:10FF78003100546F6E6F203200544F4E4F3A3100AB
:10FF8800544F4E4F3A3200564F4C3A42410041438B
:10FF9800543A534900564F4C3A414C004143543A65
:10FFA8004E4F00536972656E610052657365740047
:10FFB80046656368610052656C6F6A0042616A6FEA
:10FFC80000546F6E6F00416C746F0031323334002F
:10FFD800486F726100253031750058323800506919
:10FFE8006E005369004E6F0020003E002A0000009A
:08FFF800AEF718FFF3F8FFF16A
:00000001FF
