:0400000039EF11F0D3
:100F00000001000A006400E8031027280C010649CC
:100F10006E67726573652073752050494E3A0025DF
:100F20003032752F253032752F253032750025303F
:100F300032753A253032753A2530327500566F6C6D
:100F4000756D656E0043616D626961720041637425
:100F50006976617200416C61726D6100466563681B
:100F6000610052656C6F6A005265736574003132BE
:100F7000333400486F726100546F6E6F002530315A
:100F800075005832380050696E005349004E4F00CA
:100F900020002A003E000000380E426E000E436E14
:100FA00017D1250E4A18D8B409D034C0D9FF35C09E
:100FB000DAFF4AC0DFFF344A352A0AD1000E496EF3
:100FC000000E486E000E446E05D04484364A372A1F
:100FD00001D00BD036C0F6FF37C0F7FF0800F55040
:100FE000300AD8B4F2D701D0F5D736C0F6FF37C0F3
:100FF000F7FF0800F55015EC12F0D8A03AD0000E1B
:10100000496E000E486E00D048C028F049C029F053
:10101000000E2B6E0A0E2A6EEFEC11F028C048F07D
:1010200029C049F0D00E3E6EFF0E3F6E36C0F6FF6F
:1010300037C0F7FF0800F550406E416A3E50402629
:101040003F5041224050482641504922364A372AD3
:1010500036C0F6FF37C0F7FF0800F55015EC12F068
:10106000D8A007D0D1D705D0C1D0B2D0C00E44127D
:1010700011D036C0F6FF37C0F7FF364A372A0800CE
:10108000F5CF4AF04A50000AD8B4B0D0750AD8B4A7
:10109000EDD79ED042C0D9FF43C0DAFFDECF45F086
:1010A000DDCF46F0020E4226000E4322010E4A6EAC
:1010B000050E4A18D8B416D001D014D04A50020DEB
:1010C000010EF324F66E0F0EF420F76E0900F550B2
:1010D000455C0900F5504658D8A004D001D002D094
:1010E0004A2AE6D7800E4ABE7F0E3E6E48504A5CC2
:1010F0004950800A3E58D8B007D04A50485E000E8A
:101100004ABEFF0E495A05D0000E496E000E486EC9
:1011100000D044A415D048504910D8B426D034C0CB
:10112000D9FF35C0DAFF300EDF6E344A352A480663
:10113000D8A0490648504910D8B417D0F0D715D0D8
:1011400048504910D8B411D034C0D9FF35C0DAFFA7
:10115000200EDF6E344A352A4806D8A0490648508A
:101160004910D8B402D0F0D700D04AC047F02AD0F6
:101170004750020D010EF324F66E0F0EF420F76EA9
:101180000900F5CF2AF00A00F5CF2BF045C028F072
:1011900046C029F0F8EC0FF028C02FF029C030F03D
:1011A000000E326E0A0E316EC9EC10F02F50300F67
:1011B0004A6E34C0D9FF35C0DAFF4AC0DFFF344A77
:1011C000352A00D047064728D8B402D0D1D700D05E
:1011D00036C0F6FF37C0F7FF364A372A0800F5CF8A
:1011E0004AF04A50D8B402D0DCD600D034C0D9FF7F
:1011F00035C0DAFF000EDF6E1200120094D0000E30
:10120000336E010E326E000E356E010E346E940E8A
:10121000366E0F0E376E45EC12F0000E166E020E93
:10122000156E000E146E010E136E000E336E090E55
:10123000326E000E356E020E346E900E366E0F0E4C
:10124000376E45EC12F01200000E336E010E326E56
:10125000000E356E020E346E940E366E0F0E376E23
:1012600045EC12F0000E166E030E156E000E146E95
:10127000020E136E000E336E010E326E000E356ECE
:10128000010E346E900E366E0F0E376E45EC12F076
:101290001200000E336E090E326E000E356E010E16
:1012A000346E940E366E0F0E376E45EC12F0000E53
:1012B000166E040E156E000E146E030E136E000EE5
:1012C000336E010E326E000E356E020E346E900ECD
:1012D000366E0F0E376E45EC12F01200000E336EB4
:1012E000090E326E000E356E020E346E940E366E9E
:1012F0000F0E376E45EC12F0000E166E010E156ED5
:10130000000E146E040E136E000E336E090E326E54
:10131000000E356E010E346E900E366E0F0E376E67
:1013200045EC12F0120015C038F016C039F03950F3
:10133000000AD8A412003850010AD8B460D7030AB2
:10134000D8B482D7010AD8B4A4D7070AD8A4120007
:10135000C5D71200898089928994899680AA07D07E
:10136000010E1F6EC4EC0EF000D080BAFED780AE26
:1013700007D0020E1F6EC4EC0EF000D080BEFED768
:1013800080AC07D0030E1F6EC4EC0EF000D080BC02
:10139000FED782A407D00B0E1F6E5BEC11F000D0BD
:1013A00082B4FED7899089828994899680AA07D0D1
:1013B000040E1F6EC4EC0EF000D080BAFED780AED3
:1013C00007D0050E1F6EC4EC0EF000D080BEFED715
:1013D00080AC07D0060E1F6EC4EC0EF000D080BCAF
:1013E000FED782A407D00C0E1F6E26EC10F000D0A2
:1013F00082B4FED7899089928984899680AA07D081
:10140000070E1F6EC4EC0EF000D080BAFED780AE7F
:1014100007D0080E1F6EC4EC0EF000D080BEFED7C1
:1014200080AC07D0090E1F6EC4EC0EF000D080BC5B
:10143000FED782A407D00D0E1F6E37EC12F000D03D
:1014400082B4FED7899089928994898680AA07D030
:101450000E0E1F6E64EC12F000D080BAFED780AE84
:1014600007D0000E1F6EC4EC0EF000D080BEFED779
:1014700080AC07D00F0E1F6E51EC12F000D080BC74
:10148000FED782A409D0100E1F6E8BEC12F000D094
:1014900082A402D0FDD700D0FF0E4B6E8A0EE82E3C
:1014A000FED74B2EFCD700D012005BEC12F0A380CD
:1014B00019C028F01AC029F0000E2B6E0A0E2A6EF1
:1014C000F1EC0CF028505D6E5D500A0DF3500008F1
:1014D00019245E6E5D50100DF3505E24256E17C00A
:1014E00028F018C029F0000E2B6E0A0E2A6EF1ECBF
:1014F0000CF028505B6E5B500A0DF3500008172467
:101500005C6E5B50100DF3505C24266E52C028F0C8
:1015100053C029F0000E2B6E0A0E2A6EF1EC0CF06F
:101520002850586E58500A0DF35000085224596E36
:101530005850100DF3505924276E4CC028F04DC060
:1015400029F0000E2B6E0A0E2A6EF1EC0CF02850DA
:10155000566E56500A0DF35000084C2400019A6F45
:101560005650100DF35000019A25236E54C028F0F8
:1015700055C029F0000E2B6E0A0E2A6EF1EC0CF00D
:1015800028505A6E5A500A0DF35000085424000196
:101590009D6F5A50100DF35000019D25226E4EC0D4
:1015A00028F04FC029F0000E2B6E0A0E2A6EF1ECC7
:1015B0000CF02850576E57500A0DF35000084E2477
:1015C00000019C6F5750100DF35000019C25216EB7
:1015D00050C09BF050C020F0240E286E000E296EE3
:1015E000010E2A6EA2EC0BF0200E286E000E296E62
:1015F000010E2A6EFFEC0AF00F013F8F1200000E61
:101600002D6E20EE02F02850D9262950DA22130E32
:10161000DF60120020EE02F02850D9262950DA228D
:10162000DF50D8B4120020EE01F02850D9262950FE
:10163000DA22320EDF60120020EE01F02850D926A7
:101640002950DA22DF50D8B4120020EE03F02850DF
:10165000D9262950DA22990EDF6402D01200120036
:1016600020EE03F02850D9262950DA22DF502E6EC2
:1016700020EE01F02850D9262950DA22DF50316EB1
:1016800020EE02F02850D9262950DA22DF50326E9F
:101690002A50D8B402D0F29C00D0000E3FBB010EFD
:1016A000306E3050D8A403D05BEC12F000D0000EA6
:1016B0003FBF010E2C6E2C50D8B407D0000E91BE47
:1016C000010E2D6E0F013F9F00D0FC0E0F013F1742
:1016D0000F013F8198CF33F099CF34F028C0D9FF64
:1016E00029C0DAFFDF50346EFC0E0F013F17030EE6
:1016F0000F013F132EC098FF2FC099FF31C098FFF4
:1017000032C099FF33C098FF34C099FF2C50D8B431
:101710000DD00F013F8F2D50D8B402D0918E00D044
:101720003050D8B409D05BEC12F006D03050D8A4B9
:1017300003D00F013F9B00D02A50D8B41200F29C76
:1017400012001200000E2D6E20EE02F02850D92655
:101750002950DA225A0EDF60120020EE01F02850E4
:10176000D9262950DA225A0EDF60120020EE03F04B
:101770002850D9262950DA22240EDF6402D0120024
:10178000120020EE02F02850D9262950DA22DF502C
:10179000306E20EE01F02850D9262950DA22DF5091
:1017A0002F6E2A50D8B402D0F29C00D0000E3FBB5E
:1017B000010E2E6E2E50D8A403D05BEC12F000D098
:1017C000000E3FBF010E2C6E2C50D8B407D0000E77
:1017D00091BE010E2D6E0F013F9F00D0FC0E0F0138
:1017E0003F170F013F8198CF31F099CF32F020EEB3
:1017F00003F02850D9262950DA22DF50316EFC0E32
:101800000F013F170F013F8131C098FF32C099FF90
:101810002FC098FF30C099FF2C50D8B40DD00F01C5
:101820003F8F2D50D8B402D0918E00D02E50D8B416
:1018300009D05BEC12F006D02E50D8A403D00F01D3
:101840003F9B00D02A50D8B41200F28C1200120034
:10185000240E286E000E296EFDEC0EF025500F0BA5
:101860005E6E25380F0B0F0B5D6E26500F0B5C6EF6
:1018700026380F0B0F0B5B6E27500F0B596E273856
:101880000F0B0F0B586E200E286E000E296E85EC84
:101890000DF021500F0B00019C6F21380F0B0F0B27
:1018A000576E22500F0B00019D6F22380F0B0F0B4C
:1018B0005A6E20C09BF023500F0B00019A6F233803
:1018C0000F0B0F0B566E5D500A0D5E50F324196E10
:1018D000000EF4201A6E5B500A0D5C50F324176E54
:1018E000000EF420186E58500A0D5950F324526E11
:1018F000000EF420536E57500A0D00019C51F32442
:101900004E6E0001000EF4204F6E9BC050F0516AE5
:101910005A500A0D00019D51F324546E0001000E2F
:10192000F420556E56500A0D00019A51F3244C6E66
:101930000001000EF4204D6E120042D0000E336EF6
:10194000090E326E000E356E010E346E940E366E38
:101950000F0E376E45EC12F0000E1E6E020E1D6E5D
:10196000000E336E090E326E000E356E020E346EAE
:10197000900E366E0F0E376E45EC12F01200000E10
:10198000336E090E326E000E356E020E346E940EFA
:10199000366E0F0E376E45EC12F0000E1E6E010E05
:1019A0001D6E000E336E090E326E000E356E010E86
:1019B000346E900E366E0F0E376E45EC12F012003C
:1019C0001DC038F01EC039F03950000AD8A41200EA
:1019D0003850010AD8B4B2D7030AD8A41200CFD71E
:1019E0001200000E2D6E2BAE07D02A6C2B1ED8B025
:1019F0002B2A010E2D6E00D029AE07D0286C291E8F
:101A0000D8B0292A010E2D1A00D0000E2F6E000E1C
:101A10002E6E2A502B10D8B421D0010E2C6E05D07A
:101A2000D8902A362B362C2A00D02BBE02D0F8D7DD
:101A300000D0D8902E362F362A50285C2B502958AB
:101A4000D8A006D02A50285E2B50295A2E8000D0CC
:101A5000D8902B322A322C2EECD700D02D50D8B46F
:101A600005D02E6C2F1ED8B02F2A00D02EC028F003
:101A70002FC029F0120012007C0E346E000E356E5D
:101A80001F0E366E0F0E376E4EC038F04FC039F055
:101A900054C03AF055C03BF04CC03CF04DC03DF056
:101AA000CCEC07F0000E336E090E326E000E356E70
:101AB000010E346E7C0E366E000E376E45EC12F061
:101AC0007C0E346E000E356E2E0E366E0F0E376E97
:101AD00052C038F053C039F017C03AF018C03BF08C
:101AE00019C03CF01AC03DF0CCEC07F0000E336E8C
:101AF000090E326E000E356E020E346E7C0E366E9E
:101B0000000E376E45EC12F01200FC0E0F013F176D
:101B1000030E0F013F1398CF32F099CF33F098CFD7
:101B200034F099CF35F098CF36F099CF37F0FC0EDE
:101B30000F013F17030E0F013F1398CF2AF099CFE3
:101B40002BF098CF2CF099CF2DF098CF2EF099CF85
:101B50002FF02C503418D8A4D8D720EE01F02850FC
:101B6000D9262950DA2234C0DFFF20EE02F02850B7
:101B7000D9262950DA2235C0DFFF28C0D9FF29C075
:101B8000DAFF37C0DFFF20EE03F02850D9262950B6
:101B9000DA2232C0DFFF1200939693948A968A94D9
:101BA0009398939A939C939E0A0E76EC12F00A0EE9
:101BB00076EC12F00A0E76EC12F0000E2C6E020E8D
:101BC0002C6401D008D0030E89EC0EF00A0E76ECDE
:101BD00012F02C2AF4D7020E89EC0EF0000E2C6EB7
:101BE000030E2C6402D0120012002C50010D0B0EBB
:101BF000F324F66E0F0EF420F76E0800F5CF2AF0EE
:101C0000000EADEC11F00A0E76EC12F02C2A030E49
:101C10002C64EBD712001200000E046E020E036E4D
:101C2000CCEC0DF0000E336E020E326E000E356EEF
:101C3000010E346E4D0E366E0F0E376E45EC12F0FF
:101C4000000E336E020E326E000E356E020E346ED2
:101C5000620E366E0F0E376E45EC12F0000E336ECC
:101C60000A0E326E000E356E010E346E860E366E22
:101C70000F0E376E45EC12F0000E336E0A0E326E08
:101C8000000E356E020E346E550E366E0F0E376E28
:101C900045EC12F012009B8E9B9CD388D38AD38C88
:101CA000D390D392F00E926E000E936E070E946E48
:101CB0000F0148690F0149692D0EC26E100EC16EE9
:101CC0000F013F8F0F013F8BCD8655EC0AF0CCEC16
:101CD0000DF00C0E7FEC12F08A828A80000E0C6EE2
:101CE000320E0B6E000E146E010E136E000E166E89
:101CF000010E156E000E1E6E010E1D6E900E286EEA
:101D0000000E296E6E0E2A6E0F0E2B6E94EC11F0E3
:101D10001200296E29A003D0286A282A01D0286A37
:101D2000283A8A502818EF0B28188A6E29A203D067
:101D3000286A282A01D0286A283A28468A50281872
:101D4000DF0B28188A6E29A403D0286A282A01D01C
:101D5000286A283A284628468A502818BF0B28188F
:101D60008A6E29A603D0286A282A01D0286A283238
:101D700028328A5028187F0B28188A6E00F08A842F
:101D800000F000F08A94120090EC12F003040410AA
:101D9000D8A41ED0920E306E0F0E316E51EC10F0A2
:101DA0007C0E346E000E356E7D0E366E0F0E376E65
:101DB0001FC038F0396ACCEC07F0950E286E000E83
:101DC000296E7C0E2A6E000E2B6E15EC11F012009F
:101DD0007C0E346E000E356E7D0E366E0F0E376E35
:101DE0001FC038F0396ACCEC07F07C0E306E000E64
:101DF000316E51EC10F012001200FC0E0F013F1773
:101E00000F013F8198CF36F099CF37F098CF38F057
:101E100099CF39F0FC0E0F013F170F013F8198CF8A
:101E20002EF099CF2FF098CF30F099CF31F030507D
:101E30003818D8A4E2D720EE03F02850D92629502C
:101E4000DA2236C0DFFF20EE02F02850D9262950D2
:101E5000DA2239C0DFFF20EE01F02850D9262950C0
:101E6000DA2238C0DFFF1200000E046E050E036E8A
:101E7000CCEC0DF0000E336E010E326E000E356E9E
:101E8000010E346E860E366E0F0E376E45EC12F074
:101E9000000E336E0A0E326E000E356E010E346E79
:101EA000450E366E0F0E376E45EC12F0000E336E97
:101EB0000A0E326E000E356E020E346E680E366EED
:101EC0000F0E376E45EC12F01200000E046E030E7A
:101ED000036ECCEC0DF0000E336E010E326E000E70
:101EE000356E010E346E620E366E0F0E376E45EC97
:101EF00012F0000E336E0A0E326E000E356E010EB9
:101F0000346E5C0E366E0F0E376E45EC12F0000E1E
:101F1000336E0A0E326E000E356E020E346E730E84
:101F2000366E0F0E376E45EC12F01200000E046E86
:101F3000060E036ECCEC0DF0000E336E010E326E09
:101F4000000E356E010E346E550E366E0F0E376E66
:101F500045EC12F0000E336E0A0E326E000E356E36
:101F6000010E346E3D0E366E0F0E376E45EC12F0DC
:101F7000000E336E0A0E326E000E356E020E346E97
:101F8000780E366E0F0E376E45EC12F01200000E12
:101F9000046E040E036ECCEC0DF0000E336E010ED9
:101FA000326E000E356E010E346E4D0E366E0F0E13
:101FB000376E45EC12F0000E336E0A0E326E000ED4
:101FC000356E010E346E8A0E366E0F0E376E45EC8E
:101FD00012F0000E336E0A0E326E000E356E020ED7
:101FE000346E8D0E366E0F0E376E45EC12F0120009
:101FF000000E2D6E000E2C6E2A502B10D8B421D05E
:10200000010E2E6E05D0D8902A362B362E2A00D0FF
:102010002BBE02D0F8D700D0D8902C362D362A50BF
:10202000285C2B502958D8A006D02A50285E2B5067
:10203000295A2C8000D0D8902B322A322E2EECD761
:1020400000D02CC028F02DC029F0120090EC12F026
:10205000020E03180410D8A412000CD0C7EC0FF025
:10206000120065EC0FF0120034EC0FF0120096EC49
:102070000FF0120013C038F014C039F03950000AC4
:10208000D8A412003850010AD8B4E8D7030AD8B44B
:10209000E8D7010AD8B4E8D7070AD8B4E8D71200BD
:1020A000120015D030C0F6FF31C0F7FFF86A0E0EEF
:1020B000F76403D00800F55005D0F6CFE9FFF7CF5D
:1020C000EAFFEF50EFEC10F0304A312A00D030C078
:1020D000F6FF31C0F7FFF86A0E0EF76403D0080070
:1020E000F55005D0F6CFE9FFF7CFEAFFEF50000932
:1020F000D8A4D8D7120005D0284A292A2A4A2B2A40
:1021000000D028C0D9FF29C0DAFFDF502C6E2AC0CA
:10211000D9FF2BC0DAFFDF5000082C242D6E2D5084
:10212000D8A409D028C0D9FF29C0DAFFDF50D8B41D
:1021300002D0E2D700D02D50286E296A28BE290689
:1021400012001200000E046E010E036E950E286E32
:10215000000E296E910E2A6E0F0E2B6E94EC11F06C
:10216000CCEC0DF0000E336E010E326E000E356EAB
:10217000010E346E0F0E366E0F0E376E45EC12F0F8
:10218000020E2C6E010E03EC12F00F0E7FEC12F01B
:10219000120031503210D8B41DD0010E336E05D06C
:1021A000D89031363236332A00D032BE02D0F8D73A
:1021B00000D031502F5C32503058D8A005D031506B
:1021C0002F5E3250305A00D0D89032323132332E16
:1021D000F0D700D02FC02FF030C030F012002F6E9B
:1021E00018D0010E2A6E000EADEC11F01200020E96
:1021F0002C6E010E03EC12F01200100E2A6E000E6F
:10220000ADEC11F012002FC02AF0010EADEC11F070
:1022100012002F50080AD8B4F0D7020AD8B4E7D772
:10222000060AD8B4DED7EFD7120028C02CF029C098
:102230002DF003D02C4A2D2A00D02CC0D9FF2DC060
:10224000DAFFDF50D8B407D0F5D705D02C4A2D2AB5
:102250002A4A2B2A00D02AC0D9FF2BC0DAFF2CC073
:10226000E1FF2DC0E2FFDFCFE7FFE750D8A4EED7B4
:10227000120000EE60F03A0EEE6AE806FDE15F6AD9
:1022800000EE01F0270EEE6AE806FDE10C0EF66E98
:10229000250EF76E000EF86E00EE4CF010EE0AF010
:1022A0000900F5CFEEFFE550E150FAE1000EF86EBF
:1022B0000001DBEF11F090EC12F009D0A2EC10F06D
:1022C0001200FEEC08F012009DEC0CF0120003C0AE
:1022D0003AF004C03BF03B50000AD8A4F5D73A507E
:1022E000000AD8B4EBD7010AD8B41200030AD8B454
:1022F000E8D7EAD71200900E286E000E296E950ED0
:102300002A6E000E2B6E7BEC10F028C038F029C02E
:1023100039F038503910D8A403D00CEC0EF012006C
:10232000A2EC10F01200120028C02CF029C02DF0F1
:1023300005D02C4A2D2A2A4A2B2A00D02AC0F6FF83
:102340002BC0F7FF2CC0D9FF2DC0DAFF0800F5CF56
:10235000DFFFDF50D8A4EDD712002B6E8A96020E55
:102360006DEC12F09398939A939C939E2B50D8B453
:1023700002D08A8601D08A9600F02A380F0B89ECA9
:102380000EF02A500F0B89EC0EF01200000E046EB6
:10239000000E036ECCEC0DF0000E336E010E326EAB
:1023A000000E356E010E346E820E366E0F0E376ED5
:1023B00045EC12F012004BEC0EF0C6EC11F000D020
:1023C00026EC12F028EC0CF0AAEC09F003500410F3
:1023D000D8A4F6D73CEC0DF0F3D700EF00F028506E
:1023E0002A02F3CF2CF0F4CF2DF028502B02F3501B
:1023F0002D2629502A02F3502D262CC028F02DC05E
:1024000029F0120012002D6E2C04D8B402D0400E18
:1024100001D0000E2E6E00D02D042E262E508009E5
:102420002A6E000EADEC11F012002A6E000E296E1D
:102430003A0E2A6006D02F0E2A6403D0010E296EB0
:1024400000D029C028F028301200120003500410D8
:10245000D8B412000906D8A00A0609500A10D8A458
:10246000120090EC12F0C6EC11F01200120090EC89
:1024700012F003500410D8B4120003040410D8B4AE
:1024800012000CEC0EF01200120034C02CF032508E
:1024900003EC12F036C030F037C031F051EC10F0E0
:1024A000120090EC12F003040410D8A412007BEC8C
:1024B00011F012001200F29C550EA76EAA0EA76E24
:1024C0000F013F8BF28C120090EC12F0920E306EE6
:1024D0000F0E316E51EC10F01200286E210EE82E16
:1024E000FED700F0282EFAD712001200286EFA0E3E
:1024F00000F0E82EFDD7282EFAD7120012002C6E1D
:102500002CC02AF0000EADEC11F0120010000600F5
:1025100002001200090090EC12F0C6EC11F012005B
:0A2520000BC009F00CC00AF0120015
:08FFF800AEF718FFF3F8FFF16A
:00000001FF
