:0400000048EF12F0C3
:100F00000001000A006400E8031027280C010649CC
:100F10006E67726573652073752050494E3A0025DF
:100F20003032752F253032752F253032750025303F
:100F300032753A253032753A25303275004E756576
:100F4000766F2050494E3A00566F6C756D656E0095
:100F500043616D6269617200416374697661720018
:100F600042656570203100544F4E4F3A3100426562
:100F70006570203200544F4E4F3A3200564F4C3A73
:100F80004241004143543A534900564F4C3A414C78
:100F9000004143543A4E4F00416C61726D61005301
:100FA0006972656E610046656368610052656C6FC9
:100FB0006A005265736574003132333400486F72D1
:100FC000610042616A6F00546F6E6F00416C746F14
:100FD0000025303175005832380050696E00536971
:100FE000004E6F0020002A003E0000003A0E446EC2
:100FF000000E456E17D1250E4C18D8B409D036C056
:10100000D9FF37C0DAFF4CC0DFFF364A372A0AD192
:10101000000E4B6E000E4A6E000E466E05D04684E2
:10102000384A392A01D00BD038C0F6FF39C0F7FF53
:101030000800F550300AD8B4F2D701D0F5D738C03F
:10104000F6FF39C0F7FF0800F55082EC14F0D8A085
:101050003AD0000E4B6E000E4A6E00D04AC02AF005
:101060004BC02BF0000E2D6E0A0E2C6E4AEC14F0C5
:101070002AC04AF02BC04BF0D00E406EFF0E416EDE
:1010800038C0F6FF39C0F7FF0800F550426E436ADA
:10109000405042264150432242504A2643504B2260
:1010A000384A392A38C0F6FF39C0F7FF0800F55032
:1010B00082EC14F0D8A007D0D1D705D0C1D0B2D0DF
:1010C000C00E461211D038C0F6FF39C0F7FF384ABB
:1010D000392A0800F5CF4CF04C50000AD8B4B0D0F3
:1010E000750AD8B4EDD79ED044C0D9FF45C0DAFF09
:1010F000DECF47F0DDCF48F0020E4426000E452239
:10110000010E4C6E050E4C18D8B416D001D014D078
:101110004C50020D010EF324F66E0F0EF420F76E04
:101120000900F550475C0900F5504858D8A004D094
:1011300001D002D04C2AE6D7800E4CBE7F0E406E06
:101140004A504C5C4B50800A4058D8B007D04C50A5
:101150004A5E000E4CBEFF0E4B5A05D0000E4B6E81
:10116000000E4A6E00D046A415D04A504B10D8B499
:1011700026D036C0D9FF37C0DAFF300EDF6E364AD0
:10118000372A4A06D8A04B064A504B10D8B417D07D
:10119000F0D715D04A504B10D8B411D036C0D9FF73
:1011A00037C0DAFF200EDF6E364A372A4A06D8A04B
:1011B0004B064A504B10D8B402D0F0D700D04CC0E8
:1011C00049F02AD04950020D010EF324F66E0F0E9D
:1011D000F420F76E0900F5CF2CF00A00F5CF2DF0C2
:1011E00047C02AF048C02BF025EC10F02AC031F09F
:1011F0002BC032F0000E346E0A0E336E6DEC11F01F
:101200003150300F4C6E36C0D9FF37C0DAFF4CC0BA
:10121000DFFF364A372A00D049064928D8B402D021
:10122000D1D700D038C0F6FF39C0F7FF384A392A85
:101230000800F5CF4CF04C50D8B402D0DCD600D02A
:1012400036C0D9FF37C0DAFF000EDF6E1200120081
:10125000D6EC14F0A3801BC02AF01CC02BF0000EAB
:101260002D6E0A0E2C6E7DEC0CF02A505E6E5E50D8
:101270000A0DF35000081B240001A46F5E50100DEE
:10128000F3500001A425276E19C02AF01AC02BF0D4
:10129000000E2D6E0A0E2C6E7DEC0CF02A505D6E49
:1012A0005D500A0DF350000819240001A36F5D5032
:1012B000100DF3500001A325286E55C02AF056C02A
:1012C0002BF0000E2D6E0A0E2C6E7DEC0CF02A50C9
:1012D0005B6E5B500A0DF350000855240001A16FAE
:1012E0005B50100DF3500001A125296E4FC02AF06C
:1012F00050C02BF0000E2D6E0A0E2C6E7DEC0CF003
:101300002A50596E59500A0DF35000084F2400011D
:101310009E6F5950100DF35000019E25256E57C049
:101320002AF058C02BF0000E2D6E0A0E2C6E7DECAC
:101330000CF02A505C6E5C500A0DF35000085724E4
:101340000001A26F5C50100DF3500001A225246E25
:1013500051C02AF052C02BF0000E2D6E0A0E2C6EDA
:101360007DEC0CF02A505A6E5A500A0DF3500008CA
:1013700051240001A06F5A50100DF3500001A02518
:10138000236E53C09FF053C022F0260E2A6E000E2B
:101390002B6E010E2C6E26EC0BF0220E2A6E000E28
:1013A0002B6E010E2C6E83EC0AF00F013F8F1200A2
:1013B000898089928994899680AA07D0010E216E2E
:1013C00052EC0EF000D080BAFED780AE07D0020EED
:1013D000216E52EC0EF000D080BEFED780AC07D05C
:1013E000030E216E52EC0EF000D080BCFED782A41A
:1013F00007D00B0E216E30EC13F000D082B4FED774
:10140000899089828994899680AA07D0040E216EDA
:1014100052EC0EF000D080BAFED780AE07D0050E99
:10142000216E52EC0EF000D080BEFED780AC07D00B
:10143000060E216E52EC0EF000D080BCFED782A4C6
:1014400007D00C0E216EF3EC0FF000D082B4FED763
:10145000899089928984899680AA07D0070E216E87
:1014600052EC0EF000D080BAFED780AE07D0080E46
:10147000216E52EC0EF000D080BEFED780AC07D0BB
:10148000090E216E52EC0EF000D080BCFED782A473
:1014900007D00D0E216EA4EC14F000D082B4FED75C
:1014A000899089928994898680AA07D00E0E216E30
:1014B00007EC15F000D080BAFED780AE07D0000E42
:1014C000216E52EC0EF000D080BEFED780AC07D06B
:1014D0000F0E216E5EEC14F000D080BCFED782A40B
:1014E00009D0100E216EFDEC14F000D082A402D0C1
:1014F000FDD700D0FF0E4D6E8A0EE82EFED74D2E82
:10150000FCD700D01200000E2F6E20EE02F02A5001
:10151000D9262B50DA22130EDF60120020EE02F0E3
:101520002A50D9262B50DA22DF50D8B4120020EEF0
:1015300001F02A50D9262B50DA22320EDF60120039
:1015400020EE01F02A50D9262B50DA22DF50D8B4F1
:10155000120020EE03F02A50D9262B50DA22990EE1
:10156000DF6402D01200120020EE03F02A50D926C8
:101570002B50DA22DF50306E20EE01F02A50D926AF
:101580002B50DA22DF50336E20EE02F02A50D9269B
:101590002B50DA22DF50346E2C50D8B402D0F29C9B
:1015A00000D0000E3FBB010E326E3250D8A403D0E3
:1015B000D6EC14F000D0000E3FBF010E2E6E2E5060
:1015C000D8B407D0000E91BE010E2F6E0F013F9FC1
:1015D00000D0FC0E0F013F170F013F8198CF35F06F
:1015E00099CF36F02AC0D9FF2BC0DAFFDF50366E14
:1015F000FC0E0F013F17030E0F013F1330C098FF81
:1016000031C099FF33C098FF34C099FF35C098FFAF
:1016100036C099FF2E50D8B40DD00F013F8F2F50F8
:10162000D8B402D0918E00D03250D8B409D0D6ECC4
:1016300014F006D03250D8A403D00F013F9B00D045
:101640002C50D8B41200F29C12001200000E2F6E23
:1016500020EE02F02A50D9262B50DA225A0EDF60F3
:10166000120020EE01F02A50D9262B50DA225A0E11
:10167000DF60120020EE03F02A50D9262B50DA2228
:10168000240EDF6402D01200120020EE02F02A5075
:10169000D9262B50DA22DF50326E20EE01F02A508C
:1016A000D9262B50DA22DF50316E2C50D8B402D01C
:1016B000F29C00D0000E3FBB010E306E3050D8A41B
:1016C00003D0D6EC14F000D0000E3FBF010E2E6EFA
:1016D0002E50D8B407D0000E91BE010E2F6E0F0110
:1016E0003F9F00D0FC0E0F013F170F013F8198CFA5
:1016F00033F099CF34F020EE03F02A50D9262B5046
:10170000DA22DF50336EFC0E0F013F170F013F81CD
:1017100033C098FF34C099FF31C098FF32C099FFA1
:101720002E50D8B40DD00F013F8F2F50D8B402D017
:10173000918E00D03050D8B409D0D6EC14F006D039
:101740003050D8A403D00F013F9B00D02C50D8B408
:101750001200F28C12001200260E2A6E000E2B6E62
:101760008AEC0EF027500F0B0001A46F27380F0BE7
:101770000F0B5E6E28500F0B0001A36F28380F0B64
:101780000F0B5D6E29500F0B0001A16F29380F0B55
:101790000F0B5B6E220E2A6E000E2B6E11EC0DF0FD
:1017A00023500F0B0001A06F23380F0B0F0B5A6E45
:1017B00024500F0B0001A26F24380F0B0F0B5C6E2F
:1017C00022C09FF025500F0B00019E6F25380F0B94
:1017D0000F0B596E5E500A0D0001A451F3241B6ECD
:1017E0000001000EF4201C6E5D500A0D0001A35193
:1017F000F324196E0001000EF4201A6E5B500A0DDE
:101800000001A151F324556E0001000EF420566E24
:101810005A500A0D0001A051F324516E0001000E30
:10182000F420526E9FC053F0546A5C500A0D0001C0
:10183000A251F324576E0001000EF420586E595047
:101840000A0D00019E51F3244F6E0001000EF4209A
:10185000506E12001D041E10D8A402D08A8200D03F
:101860001D501E10D8A402D08A9200D00D4A0E2A14
:1018700030D0CFEC10F0050E0D180E10D8A41200C9
:10188000000E0E6E000E0D6E000E0C6E010E0B6E35
:1018900012007DEC10F0050E0D180E10D8A41200E9
:1018A000000E0E6E000E0D6E000E0C6E020E0B6E14
:1018B0001200A6EC10F0050E0D180E10D8A41200A0
:1018C000000E0E6E000E0D6E000E0C6E000E0B6EF6
:1018D00012000BC04DF00CC04EF04E50000AD8A4C0
:1018E00012004D50000AD8B4C4D7010AD8B4D1D7D9
:1018F000030AD8A41200DDD71200000E2F6E2DAE01
:1019000007D02C6C2D1ED8B02D2A010E2F6E00D0C2
:101910002BAE07D02A6C2B1ED8B02B2A010E2F1A03
:1019200000D0000E316E000E306E2C502D10D8B449
:1019300021D0010E2E6E05D0D8902C362D362E2AB1
:1019400000D02DBE02D0F8D700D0D8903036313636
:101950002C502A5C2D502B58D8A006D02C502A5E33
:101960002D502B5A308000D0D8902D322C322E2E74
:10197000ECD700D02F50D8B405D0306C311ED8B081
:10198000312A00D030C02AF031C02BF012001200F2
:10199000800E366E000E376E1F0E386E0F0E396ECB
:1019A00051C03AF052C03BF057C03CF058C03DF037
:1019B0004FC03EF050C03FF0F6EC07F0000E356E21
:1019C000090E346E000E376E010E366E800E386EC4
:1019D000000E396EBFEC14F0800E366E000E376EBE
:1019E0002E0E386E0F0E396E55C03AF056C03BF0D1
:1019F00019C03CF01AC03DF01BC03EF01CC03FF0C7
:101A0000F6EC07F0000E356E090E346E000E376EE0
:101A1000020E366E800E386E000E396EBFEC14F07A
:101A20001200FC0E0F013F17030E0F013F1398CF5A
:101A300034F099CF35F098CF36F099CF37F098CF72
:101A400038F099CF39F0FC0E0F013F17030E0F014C
:101A50003F1398CF2CF099CF2DF098CF2EF099CF3F
:101A60002FF098CF30F099CF31F02E503618D8A4FF
:101A7000D8D720EE01F02A50D9262B50DA2236C0D2
:101A8000DFFF20EE02F02A50D9262B50DA2237C091
:101A9000DFFF2AC0D9FF2BC0DAFF39C0DFFF20EEFD
:101AA00003F02A50D9262B50DA2234C0DFFF12006F
:101AB000000E046E020E036E99EC0DF0000E356EF2
:101AC000020E346E000E376E010E366E580E386EF2
:101AD0000F0E396EBFEC14F0000E356E020E346E30
:101AE000000E376E020E366EAC0E386E0F0E396E6B
:101AF000BFEC14F0000E356E0A0E346E000E376E19
:101B0000010E366EDA0E386E0F0E396EBFEC14F021
:101B1000000E356E0A0E346E000E376E020E366EF3
:101B2000980E386E0F0E396EBFEC14F00FEC13F0F8
:101B30001200939693948A968A949398939A939C7E
:101B4000939E0A0EE8EC14F00A0EE8EC14F00A0E6C
:101B5000E8EC14F0000E2E6E020E2E6401D008D0B8
:101B6000030E17EC0EF00A0EE8EC14F02E2AF4D750
:101B7000020E17EC0EF0000E2E6E030E2E6402D035
:101B8000120012002E50010D0B0EF324F66E0F0EF4
:101B9000F420F76E0800F5CF2CF0000EC1EC13F026
:101BA0000A0EE8EC14F02E2A030E2E64EBD7120076
:101BB00012009B8E9B9CD388D38AD38CD390D392D4
:101BC000F00E926E000E936E070E946E0F01486930
:101BD0000F0149692D0EC26E100EC16E0F013F8FAD
:101BE0000F013F8BCD8628EC09F099EC0DF00C0E1F
:101BF000F1EC14F08A828A80000E126E320E116EA1
:101C0000000E0C6E000E0B6E000E186E000E176E9E
:101C1000000E206E000E1F6E000E086E000E076E86
:101C2000000E066E000E056ECBEC14F012002B6E4B
:101C30002BA003D02A6A2A2A01D02A6A2A3A8A507B
:101C40002A18EF0B2A188A6E2BA203D02A6A2A2A96
:101C500001D02A6A2A3A2A468A502A18DF0B2A1803
:101C60008A6E2BA403D02A6A2A2A01D02A6A2A3A29
:101C70002A462A468A502A18BF0B2A188A6E2BA693
:101C800003D02A6A2A2A01D02A6A2A322A328A50A2
:101C90002A187F0B2A188A6E00F08A8400F000F060
:101CA0008A94120002EC15F003040410D8B405D095
:101CB000060E03180410D8A41ED0E60E326E0F0EC6
:101CC000336E53EC10F0800E366E000E376ED10E70
:101CD000386E0F0E396E21C03AF03B6AF6EC07F011
:101CE000990E2A6E000E2B6E800E2C6E000E2D6E3D
:101CF000B9EC11F01200800E366E000E376ED10E68
:101D0000386E0F0E396E21C03AF03B6AF6EC07F0E0
:101D100012001200FC0E0F013F170F013F8198CFF8
:101D200038F099CF39F098CF3AF099CF3BF0FC0ECC
:101D30000F013F170F013F8198CF30F099CF31F05D
:101D400098CF32F099CF33F032503A18D8A4E2D776
:101D500020EE03F02A50D9262B50DA2238C0DFFFBC
:101D600020EE02F02A50D9262B50DA223BC0DFFFAA
:101D700020EE01F02A50D9262B50DA223AC0DFFF9C
:101D80001200000E046E080E036E99EC0DF0000EAA
:101D9000356E010E346E000E376E010E366E480E33
:101DA000386E0F0E396EBFEC14F0000E356E0A0E51
:101DB000346E000E376E010E366EC20E386E0F0E88
:101DC000396EBFEC14F0000E356E0A0E346E000E44
:101DD000376E020E366ECC0E386E0F0E396EBFECBB
:101DE00014F08BEC12F01200000E046E090E036E5C
:101DF00099EC0DF0000E356E010E346E000E376E4C
:101E0000010E366EC70E386E0F0E396EBFEC14F031
:101E1000000E356E0A0E346E000E376E010E366EF1
:101E2000600E386E0F0E396EBFEC14F0000E356E7A
:101E30000A0E346E000E376E020E366E6E0E386E5F
:101E40000F0E396EBFEC14F08BEC12F01200000E86
:101E5000046E070E036E99EC0DF0000E356E010E48
:101E6000346E000E376E010E366E9F0E386E0F0EFA
:101E7000396EBFEC14F0000E356E0A0E346E000E93
:101E8000376E010E366E480E386E0F0E396EBFEC8F
:101E900014F0000E356E0A0E346E000E376E020E10
:101EA000366EC70E386E0F0E396EBFEC14F08BEC29
:101EB00012F01200000E046E050E036E99EC0DF088
:101EC000000E356E010E346E000E376E010E366E4A
:101ED000DA0E386E0F0E396EBFEC14F0000E356E50
:101EE0000A0E346E000E376E010E366E500E386ECE
:101EF0000F0E396EBFEC14F0000E356E0A0E346E04
:101F0000000E376E020E366EB20E386E0F0E396E40
:101F1000BFEC14F08BEC12F01200000E046E030EF6
:101F2000036E99EC0DF0000E356E010E346E000E4E
:101F3000376E010E366EAC0E386E0F0E396EBFEC7A
:101F400014F0000E356E0A0E346E000E376E010E60
:101F5000366EA60E386E0F0E396EBFEC14F0000E02
:101F6000356E0A0E346E000E376E020E366EBD0EE2
:101F7000386E0F0E396EBFEC14F08BEC12F01200BD
:101F8000000E046E040E036E99EC0DF0000E356E1B
:101F9000010E346E000E376E010E366E580E386E1E
:101FA0000F0E396EBFEC14F0000E356E0A0E346E53
:101FB000000E376E010E366EDE0E386E0F0E396E65
:101FC000BFEC14F0000E356E0A0E346E000E376E44
:101FD000020E366EE10E386E0F0E396EBFEC14F045
:101FE0008BEC12F0120002EC15F012D0DDEC11F0C7
:101FF00012008AEC13F01200A7EC13F01200DAECD6
:1020000013F0120050EC13F012006DEC13F01200FC
:1020100003C03CF004C03DF03D50000AD8A41200BB
:102020003C50020AD8B4E2D7060AD8B4E2D7010A73
:10203000D8B4E2D7020AD8B4E2D70F0AD8B4E2D7AC
:10204000010AD8A41200E1D71200000E2F6E000E74
:102050002E6E2C502D10D8B421D0010E306E05D02C
:10206000D8902C362D36302A00D02DBE02D0F8D78D
:1020700000D0D8902E362F362C502A5C2D502B585D
:10208000D8A006D02C502A5E2D502B5A2E8000D07E
:10209000D8902D322C32302EECD700D02EC02AF022
:1020A0002FC02BF0120015D032C0F6FF33C0F7FF5F
:1020B000F86A0E0EF76403D00800F55005D0F6CF8D
:1020C000E9FFF7CFEAFFEF5093EC11F0324A332AE1
:1020D00000D032C0F6FF33C0F7FFF86A0E0EF76487
:1020E00003D00800F55005D0F6CFE9FFF7CFEAFF9F
:1020F000EF500009D8A4D8D7120007500810D8A470
:102100000BD0800E366E000E376E7C0E386E0F0EC2
:10211000396EF6EC07F00BD0800E366E000E376E7F
:102120008A0E386E0F0E396EF6EC07F000D0000EF6
:10213000356E010E346E000E376E020E366E800E56
:10214000386E000E396EBFEC14F012000550061008
:10215000D8A40BD0800E366E000E376E670E386E28
:102160000F0E396EF6EC07F00BD0800E366E000EB7
:10217000376E750E386E0F0E396EF6EC07F000D024
:10218000000E356E010E346E000E376E020E366E86
:10219000800E386E000E396EBFEC14F012001D0474
:1021A0001E10D8A40BD0800E366E000E376E830E34
:1021B000386E0F0E396EF6EC07F00BD0800E366ECF
:1021C000000E376E910E386E0F0E396EF6EC07F07A
:1021D00000D0000E356E010E346E000E376E020E0A
:1021E000366E800E386E000E396EBFEC14F01200A1
:1021F00005D02A4A2B2A2C4A2D2A00D02AC0D9FFE2
:102200002BC0DAFFDF502E6E2CC0D9FF2DC0DAFFB5
:10221000DF5000082E242F6E2F50D8A409D02AC0DA
:10222000D9FF2BC0DAFFDF50D8B402D0E2D700D0FC
:102230002F502A6E2B6A2ABE2B0612001200000EA7
:10224000046E060E036E990E2A6E000E2B6EE50EBE
:102250002C6E0F0E2D6E25EC12F099EC0DF0000E89
:10226000356E010E346E000E376E010E366E3D0E69
:10227000386E0F0E396EBFEC14F0020E2E6E010E8A
:1022800070EC14F00F0EF1EC14F01200000E046E5E
:10229000010E036E990E2A6E000E2B6EE50E2C6E4B
:1022A0000F0E2D6E25EC12F099EC0DF0000E356E30
:1022B000010E346E000E376E010E366E0F0E386E44
:1022C0000F0E396EBFEC14F0020E2E6E010E70EC84
:1022D00014F00F0EF1EC14F0120033503410D8B497
:1022E0001DD0010E356E05D0D89033363436352AE0
:1022F00000D034BE02D0F8D700D03350315C345017
:102300003258D8A005D03350315E3450325A00D004
:10231000D89034323332352EF0D700D031C031F07E
:1023200032C032F01200316E18D0010E2C6E000E49
:10233000C1EC13F01200020E2E6E010E70EC14F0C0
:102340001200100E2C6E000EC1EC13F0120031C002
:102350002CF0010EC1EC13F012003150080AD8B471
:10236000F0D7020AD8B4E7D7060AD8B4DED7EFD739
:1023700012002AC02EF02BC02FF003D02E4A2F2A95
:1023800000D02EC0D9FF2FC0DAFFDF50D8B407D05D
:10239000F5D705D02E4A2F2A2C4A2D2A00D02CC042
:1023A000D9FF2DC0DAFF2EC0E1FF2FC0E2FFDFCF43
:1023B000E7FFE750D8A4EED712000CD0C0EC0FF026
:1023C00012008DEC0FF012005AEC0FF0120027EC07
:1023D0000FF0120017C03AF018C03BF03B50000A53
:1023E000D8A412003A50000AD8B4E8D7010AD8B4E9
:1023F000E8D7030AD8B4E8D7010AD8A41200E7D76F
:1024000012000CD0EEEC12F01200CDEC12F0120023
:10241000ACEC12F012000FEC13F0120017C03AF0FF
:1024200018C03BF03B50000AD8A412003A50000AF2
:10243000D8B4E8D7010AD8B4E8D7030AD8B4E8D7A3
:10244000010AD8A41200E7D712002AC02EF02BC030
:102450002FF005D02E4A2F2A2C4A2D2A00D02CC02E
:10246000F6FF2DC0F7FFF86A2EC0D9FF2FC0DAFFA4
:102470000E0EF76403D00800F55005D0F6CFE9FF43
:10248000F7CFEAFFEF50DF6EDF50D8A4E3D712009A
:1024900000EE60F03E0EEE6AE806FDE15F6A00EED7
:1024A00001F0290EEE6AE806FDE1F00EF66E290E47
:1024B000F76E000EF86E00EE4FF010EE0AF0090015
:1024C000F5CFEEFFE550E150FAE1000EF86E0001A5
:1024D0000AEF14F0000E356E090E346E000E376EE2
:1024E000020E366EE80E386E0F0E396EBFEC14F029
:1024F000000E206E010E1F6E000E356E090E346E3A
:10250000000E376E010E366EE40E386E0F0E396E09
:10251000BFEC14F01200000E356E090E346E000E82
:10252000376E010E366EE80E386E0F0E396EBFEC48
:1025300014F0000E206E000E1F6E000E356E090E98
:10254000346E000E376E020E366EE40E386E0F0ECD
:10255000396EBFEC14F01200000E356E090E346EA9
:10256000000E376E020E366EE80E386E0F0E396EA4
:10257000BFEC14F0000E186E030E176E000E356ED1
:10258000090E346E000E376E010E366EE40E386E94
:102590000F0E396EBFEC14F01200000E356E090EEE
:1025A000346E000E376E010E366EE80E386E0F0E6A
:1025B000396EBFEC14F0000E186E020E176E000E8E
:1025C000356E010E346E000E376E020E366EE40E5E
:1025D000386E0F0E396EBFEC14F01200000E356E1F
:1025E000010E346E000E376E020E366EE80E386E37
:1025F0000F0E396EBFEC14F0000E186E010E176E40
:10260000000E356E010E346E000E376E010E366E02
:10261000E40E386E0F0E396EBFEC14F01200000E8F
:10262000356E010E346E000E376E010E366EE80EFA
:10263000386E0F0E396EBFEC14F0000E186E000EDF
:10264000176E000E356E090E346E000E376E020ED8
:10265000366EE40E386E0F0E396EBFEC14F01200B9
:1026600002EC15F009D046EC11F0120001EC12F06A
:102670001200F2EC13F0120003C03CF004C03DF075
:102680003D50000AD8A4F5D73C50000AD8B4EBD787
:10269000010AD8B41200030AD8B4E8D7EAD7120066
:1026A00009D0000E086E000E03D0000E086E010E59
:1026B000076E10D01FC03AF020C03BF03B50000A1C
:1026C000D8A408D03A50000AD8B4EBD7010AD8B43D
:1026D000ECD700D035EC14F0120009D0000E066ED5
:1026E000000E03D0000E066E010E056E10D01FC046
:1026F0003AF020C03BF03B50000AD8A408D03A5032
:10270000000AD8B4EBD7010AD8B4ECD700D035EC26
:1027100014F0120009D0000E1E6E010E03D0000E40
:102720001E6E000E1D6E10D01FC03AF020C03BF090
:102730003B50000AD8A408D03A50000AD8B4EBD7CE
:10274000010AD8B4ECD700D035EC14F0120008D050
:102750001FEC11F01200CBEC14F035EC14F0120069
:102760001FC03AF020C03BF03B50000AD8A4120032
:102770003A50000AD8B4ECD7010AD8A41200EBD71B
:1027800012002D6E8A96020EDFEC14F09398939A45
:10279000939C939E2D50D8B402D08A8601D08A96FD
:1027A00000F02C380F0B17EC0EF02C500F0B17EC21
:1027B0000EF0120006D0C1EC0EF01200F4EC0EF098
:1027C00012001FC03AF020C03BF03B50000AD8A4D2
:1027D00012003A50000AD8B4EED7010AD8A4120069
:1027E000EDD7120006D06AEC12F012008BEC12F05A
:1027F00012001FC03AF020C03BF03B50000AD8A4A2
:1028000012003A50000AD8B4EED7010AD8A4120038
:10281000EDD71200D9EC0DF035EC14F000D093ECAC
:1028200014F0ACEC0BF0D8EC09F003500410D8A471
:10283000F6D7C8EC0CF02AEC0CF0F1D700EF00F062
:10284000940E2A6E000E2B6E990E2C6E000E2D6EBD
:10285000F8EC10F02A502B10D8A403D058EC0DF04F
:10286000120046EC11F012001200000E046E000E71
:10287000036E99EC0DF0000E356E010E346E000EF5
:10288000376E010E366ED60E386E0F0E396EBFECF7
:1028900014F012002A502C02F3CF2EF0F4CF2FF0B8
:1028A0002A502D02F3502F262B502C02F3502F26A6
:1028B0002EC02AF02FC02BF01200120002EC15F0EF
:1028C00003040410D8A403D020EC14F000D0060EAA
:1028D00003180410D8A41200B2EC14F01200120075
:1028E0002F6E2E04D8B402D0400E01D0000E306EF0
:1028F00000D02F043026305080092C6E000EC1EC21
:1029000013F012002C6E000E2B6E3A0E2C6006D0C7
:102910002F0E2C6403D0010E2B6E00D02BC02AF09A
:102920002A301200120003500410D8B412000F060F
:10293000D8A010060F501010D8A4120002EC15F009
:1029400035EC14F01200120002EC15F003500410E4
:10295000D8B4120003040410D8B4120058EC0DF0DF
:1029600012001200940E2A6E000E2B6E990E2C6E21
:10297000000E2D6E25EC12F035EC14F0120036C06E
:102980002EF0345070EC14F038C032F039C033F00F
:1029900053EC10F01200940E2A6E000E2B6EB80E3F
:1029A0002C6E0F0E2D6E25EC12F01200F29C550EBF
:1029B000A76EAA0EA76E0F013F8BF28C12002A6E33
:1029C000210EE82EFED700F02A2EFAD712001200B0
:1029D0002A6EFA0E00F0E82EFDD72A2EFAD7120042
:1029E00012002E6E2EC02CF0000EC1EC13F012005F
:1029F0001000060002001200090002EC15F035EC90
:102A000014F0120011C00FF012C010F0120002EC0E
:042A100015F01200AB
:08FFF800AEF718FFF3F8FFF16A
:00000001FF
