:0400000053EF10F0BA
:100F00000001000A006400E8031027280C010649CC
:100F10006E67726573652073752050494E3A0025DF
:100F20003032752F253032752F253032750025303F
:100F300032753A253032753A2530327500566F6C6D
:100F4000756D656E0043616D626961720041637425
:100F50006976617200416C61726D6100466563681B
:100F6000610052656C6F6A005265736574003132BE
:100F7000333400486F726100546F6E6F002530315A
:100F800075005832380050696E005349004E4F00CA
:100F900020002A003E000000360E406E000E416E1A
:100FA00017D1250E4818D8B409D032C0D9FF33C0A4
:100FB000DAFF48C0DFFF324A332A0AD1000E476EFB
:100FC000000E466E000E426E05D04284344A352A29
:100FD00001D00BD034C0F6FF35C0F7FF0800F55044
:100FE000300AD8B4F2D701D0F5D734C0F6FF35C0F7
:100FF000F7FF0800F5500DEC12F0D8A03AD0000E23
:10100000476E000E466E00D046C026F047C027F05F
:10101000000E296E0A0E286EE7EC11F026C046F08D
:1010200027C047F0D00E3C6EFF0E3D6E34C0F6FF79
:1010300035C0F7FF0800F5503E6E3F6A3C503E2633
:101040003D503F223E5046263F504722344A352AE3
:1010500034C0F6FF35C0F7FF0800F5500DEC12F074
:10106000D8A007D0D1D705D0C1D0B2D0C00E42127F
:1010700011D034C0F6FF35C0F7FF344A352A0800D6
:10108000F5CF48F04850000AD8B4B0D0750AD8B4AB
:10109000EDD79ED040C0D9FF41C0DAFFDECF43F08C
:1010A000DDCF44F0020E4026000E4122010E486EB4
:1010B000050E4818D8B416D001D014D04850020DEF
:1010C000010EF324F66E0F0EF420F76E0900F550B2
:1010D000435C0900F5504458D8A004D001D002D098
:1010E000482AE6D7800E48BE7F0E3C6E4650485CCC
:1010F0004750800A3C58D8B007D04850465E000E92
:1011000048BEFF0E475A05D0000E476E000E466ED1
:1011100000D042A415D046504710D8B426D032C0D3
:10112000D9FF33C0DAFF300EDF6E324A332A46066B
:10113000D8A0470646504710D8B417D0F0D715D0DE
:1011400046504710D8B411D032C0D9FF33C0DAFFAF
:10115000200EDF6E324A332A4606D8A04706465094
:101160004710D8B402D0F0D700D048C045F02AD0FC
:101170004550020D010EF324F66E0F0EF420F76EAB
:101180000900F5CF28F00A00F5CF29F043C026F07A
:1011900044C027F0EEEC0EF026C02DF027C02EF054
:1011A000000E306E0A0E2F6EBFEC0FF02D50300F78
:1011B000486E32C0D9FF33C0DAFF48C0DFFF324A81
:1011C000332A00D045064528D8B402D0D1D700D064
:1011D00034C0F6FF35C0F7FF344A352A0800F5CF92
:1011E00048F04850D8B402D0DCD600D032C0D9FF85
:1011F00033C0DAFF000EDF6E120012008980899280
:101200008994899680AA07D0010E1D6EEFEC0DF02F
:1012100000D080BAFED780AE07D0020E1D6EEFEC74
:101220000DF000D080BEFED780AC07D0030E1D6E3F
:10123000EFEC0DF000D080BCFED782A407D00B0EDF
:101240001D6E3BEC11F000D082B4FED789908982EC
:101250008994899680AA07D0040E1D6EEFEC0DF0DC
:1012600000D080BAFED780AE07D0050E1D6EEFEC21
:101270000DF000D080BEFED780AC07D0060E1D6EEC
:10128000EFEC0DF000D080BCFED782A407D00C0E8E
:101290001D6E1CEC0FF000D082B4FED789908992AD
:1012A0008984899680AA07D0070E1D6EEFEC0DF099
:1012B00000D080BAFED780AE07D0080E1D6EEFECCE
:1012C0000DF000D080BEFED780AC07D0090E1D6E99
:1012D000EFEC0DF000D080BCFED782A407D00D0E3D
:1012E0001D6E2FEC12F000D082B4FED78990899247
:1012F0008994898680AA07D00E0E1D6E84EC12F0A8
:1013000000D080BAFED780AE07D0000E1D6EEFEC85
:101310000DF000D080BEFED780AC07D00F0E1D6E42
:1013200049EC12F000D080BCFED782A409D0100E88
:101330001D6E7AEC12F000D082A402D0FDD700D04E
:10134000FF0E496E8A0EE82EFED7492EFCD700D03C
:10135000120053EC12F0A38017C026F018C027F03B
:10136000000E296E0A0E286EE7EC0BF02650536E25
:1013700053500A0DF35000081724546E5350100DAB
:10138000F3505424236E15C026F016C027F0000E2B
:10139000296E0A0E286EE7EC0BF02650516E515064
:1013A0000A0DF35000081524526E5150100DF350E1
:1013B0005224246E5BC026F05CC027F0000E296E1C
:1013C0000A0E286EE7EC0BF026504D6E4D500A0DBC
:1013D000F35000085B244E6E4D50100DF3504E2418
:1013E000256E55C026F056C027F0000E296E0A0E55
:1013F000286EE7EC0BF026504A6E4A500A0DF35067
:101400000008552400019A6F4A50100DF350000156
:101410009A25216E5DC026F05EC027F0000E296E71
:101420000A0E286EE7EC0BF026504F6E4F500A0D57
:10143000F35000085D24506E4F50100DF3505024AF
:10144000206E57C026F058C027F0000E296E0A0EF5
:10145000286EE7EC0BF026504B6E4B500A0DF35004
:10146000000857244C6E4B50100DF3504C241F6E47
:1014700059C09BF059C01EF0220E266E000E276E3A
:10148000010E286EF2EC0AF01E0E266E000E276E7C
:10149000010E286E4FEC0AF00F013F8F1200000E74
:1014A0002B6E20EE02F02650D9262750DA22130E9A
:1014B000DF60120020EE02F02650D9262750DA22F3
:1014C000DF50D8B4120020EE01F02650D926275064
:1014D000DA22320EDF60120020EE01F02650D9260B
:1014E0002750DA22DF50D8B4120020EE03F0265045
:1014F000D9262750DA22990EDF6402D0120012009A
:1015000020EE03F02650D9262750DA22DF502C6E29
:1015100020EE01F02650D9262750DA22DF502F6E18
:1015200020EE02F02650D9262750DA22DF50306E06
:101530002850D8B402D0F29C00D0000E3FBB010E60
:101540002E6E2E50D8A403D053EC12F000D0000E13
:101550003FBF010E2A6E2A50D8B407D0000E91BEAC
:10156000010E2B6E0F013F9F00D0FC0E0F013F17A5
:101570000F013F8198CF31F099CF32F026C0D9FFCB
:1015800027C0DAFFDF50326EFC0E0F013F17030E4B
:101590000F013F132CC098FF2DC099FF2FC098FF5B
:1015A00030C099FF31C098FF32C099FF2A50D8B49B
:1015B0000DD00F013F8F2B50D8B402D0918E00D0A8
:1015C0002E50D8B409D053EC12F006D02E50D8A427
:1015D00003D00F013F9B00D02850D8B41200F29CDA
:1015E00012001200000E2B6E20EE02F02650D926BB
:1015F0002750DA225A0EDF60120020EE01F026504A
:10160000D9262750DA225A0EDF60120020EE03F0AE
:101610002650D9262750DA22240EDF6402D0120089
:10162000120020EE02F02650D9262750DA22DF5091
:101630002E6E20EE01F02650D9262750DA22DF50F8
:101640002D6E2850D8B402D0F29C00D0000E3FBBC3
:10165000010E2C6E2C50D8A403D053EC12F000D005
:10166000000E3FBF010E2A6E2A50D8B407D0000EDC
:1016700091BE010E2B6E0F013F9F00D0FC0E0F019B
:101680003F170F013F8198CF2FF099CF30F020EE18
:1016900003F02650D9262750DA22DF502F6EFC0E99
:1016A0000F013F170F013F812FC098FF30C099FFF6
:1016B0002DC098FF2EC099FF2A50D8B40DD00F012D
:1016C0003F8F2B50D8B402D0918E00D02C50D8B47C
:1016D00009D053EC12F006D02C50D8A403D00F013F
:1016E0003F9B00D02850D8B41200F28C1200120098
:1016F000220E266E000E276EB8EC0DF023500F0B55
:10170000546E23380F0B0F0B536E24500F0B526E79
:1017100024380F0B0F0B516E25500F0B4E6E2538D2
:101720000F0B0F0B4D6E1E0E266E000E276E7BEC00
:101730000CF01F500F0B4C6E1F380F0B0F0B4B6E26
:1017400020500F0B506E20380F0B0F0B4F6E1EC02A
:101750009BF021500F0B00019A6F21380F0B0F0BDC
:101760004A6E53500A0D5450F324176E000EF420A5
:10177000186E51500A0D5250F324156E000EF420CD
:10178000166E4D500A0D4E50F3245B6E000EF42081
:101790005C6E4B500A0D4C50F324576E000EF42033
:1017A000586E9BC059F05A6A4F500A0D5050F3249E
:1017B0005D6E000EF4205E6E4A500A0D00019A51D3
:1017C000F324556E0001000EF420566E1200000E38
:1017D0002B6E29AE07D0286C291ED8B0292A010EFD
:1017E0002B6E00D027AE07D0266C271ED8B0272A34
:1017F000010E2B1A00D0000E2D6E000E2C6E2850FC
:101800002910D8B421D0010E2A6E05D0D8902836E0
:1018100029362A2A00D029BE02D0F8D700D0D89085
:101820002C362D362850265C29502758D8A006D0B3
:101830002850265E2950275A2C8000D0D890293273
:1018400028322A2EECD700D02B50D8B405D02C6CDF
:101850002D1ED8B02D2A00D02CC026F02DC027F088
:10186000120012007C0E326E000E336E1F0E346EAC
:101870000F0E356E57C036F058C037F05DC038F0E7
:101880005EC039F055C03AF056C03BF0CCEC07F0E2
:10189000000E316E090E306E000E336E010E326E88
:1018A0007C0E346E000E356E3DEC12F07C0E326E06
:1018B000000E336E2E0E346E0F0E356E5BC036F09A
:1018C0005CC037F015C038F016C039F017C03AF0D8
:1018D00018C03BF0CCEC07F0000E316E090E306EF4
:1018E000000E336E020E326E7C0E346E000E356EBC
:1018F0003DEC12F01200FC0E0F013F17030E0F011A
:101900003F1398CF30F099CF31F098CF32F099CF84
:1019100033F098CF34F099CF35F0FC0E0F013F171C
:10192000030E0F013F1398CF28F099CF29F098CFDD
:101930002AF099CF2BF098CF2CF099CF2DF02A5088
:101940003218D8A4D8D720EE01F02650D926275037
:10195000DA2232C0DFFF20EE02F02650D9262750CF
:10196000DA2233C0DFFF26C0D9FF27C0DAFF35C037
:10197000DFFF20EE03F02650D9262750DA2230C0B0
:10198000DFFF1200000E046E020E036E03EC0DF07A
:10199000000E316E020E306E000E336E010E326E8E
:1019A0004D0E346E0F0E356E3DEC12F0000E316EA2
:1019B000020E306E000E336E020E326E620E346E08
:1019C0000F0E356E3DEC12F0000E316E0A0E306EC9
:1019D000000E336E010E326E860E346E0F0E356EB3
:1019E0003DEC12F0000E316E0A0E306E000E336EBA
:1019F000020E326E550E346E0F0E356E3DEC12F047
:101A00001AEC11F01200939693948A968A94939804
:101A1000939A939C939E0A0E65EC12F00A0E65EC65
:101A200012F00A0E65EC12F0000E2A6E020E2A6405
:101A300001D008D0030E43EC0DF00A0E65EC12F055
:101A40002A2AF4D7020E43EC0DF0000E2A6E030E84
:101A50002A6402D0120012002A50010D0B0EF3244A
:101A6000F66E0F0EF420F76E0800F5CF28F0000E8A
:101A70008DEC11F00A0E65EC12F02A2A030E2A648E
:101A8000EBD712001200276E27A003D0266A262A61
:101A900001D0266A263A8A502618EF0B26188A6E3D
:101AA00027A203D0266A262A01D0266A263A26468D
:101AB0008A502618DF0B26188A6E27A403D0266AC0
:101AC000262A01D0266A263A264626468A50261815
:101AD000BF0B26188A6E27A603D0266A262A01D0B5
:101AE000266A263226328A5026187F0B26188A6EDE
:101AF00000F08A8400F000F08A9412009B8E9B9C78
:101B0000D388D38AD38CD390D392F00E926E000EEA
:101B1000936E070E946E0F0148690F0149692D0EEF
:101B2000C26E100EC16E0F013F8F0F013F8BCD862D
:101B3000A9EC09F003EC0DF00C0E6EEC12F08A82A9
:101B40008A80000E0C6E320E0B6E000E146E000EAC
:101B5000136E000E1C6E000E1B6E900E266E000E95
:101B6000276E6E0E286E0F0E296E74EC11F01200A7
:101B7000FC0E0F013F170F013F8198CF34F099CF32
:101B800035F098CF36F099CF37F0FC0E0F013F17A4
:101B90000F013F8198CF2CF099CF2DF098CF2EF0E8
:101BA00099CF2FF02E503618D8A4E2D720EE03F0AC
:101BB0002650D9262750DA2234C0DFFF20EE02F06B
:101BC0002650D9262750DA2237C0DFFF20EE01F059
:101BD0002650D9262750DA2236C0DFFF12007FECCC
:101BE00012F003040410D8A41ED0920E2E6E0F0E15
:101BF0002F6E47EC0FF07C0E326E000E336E7D0EB2
:101C0000346E0F0E356E1DC036F0376ACCEC07F01F
:101C1000950E266E000E276E7C0E286E000E296E25
:101C20000BEC10F012007C0E326E000E336E7D0E47
:101C3000346E0F0E356E1DC036F0376ACCEC07F0EF
:101C400012001200000E046E050E036E03EC0DF080
:101C5000000E316E010E306E000E336E010E326ECC
:101C6000860E346E0F0E356E3DEC12F0000E316EA6
:101C70000A0E306E000E336E010E326E450E346E5B
:101C80000F0E356E3DEC12F0000E316E0A0E306E06
:101C9000000E336E020E326E680E346E0F0E356E0D
:101CA0003DEC12F096EC10F01200000E046E030EE4
:101CB000036E03EC0DF0000E316E010E306E000E5F
:101CC000336E010E326E620E346E0F0E356E3DECC9
:101CD00012F0000E316E0A0E306E000E336E010EE1
:101CE000326E5C0E346E0F0E356E3DEC12F0000E4F
:101CF000316E0A0E306E000E336E020E326E730EAF
:101D0000346E0F0E356E3DEC12F096EC10F01200B2
:101D1000000E046E060E036E03EC0DF0000E316E25
:101D2000010E306E000E336E010E326E550E346EA3
:101D30000F0E356E3DEC12F0000E316E0A0E306E55
:101D4000000E336E010E326E3D0E346E0F0E356E88
:101D50003DEC12F0000E316E0A0E306E000E336E46
:101D6000020E326E780E346E0F0E356E3DEC12F0B0
:101D700096EC10F01200000E046E040E036E03ECDD
:101D80000DF0000E316E010E306E000E336E010E3E
:101D9000326E4D0E346E0F0E356E3DEC12F0000EAD
:101DA000316E0A0E306E000E336E010E326E8A0EE8
:101DB000346E0F0E356E3DEC12F0000E316E0A0ED1
:101DC000306E000E336E020E326E8D0E346E0F0EBC
:101DD000356E3DEC12F096EC10F01200000E2B6EFA
:101DE000000E2A6E28502910D8B421D0010E2C6E76
:101DF00005D0D890283629362C2A00D029BE02D00A
:101E0000F8D700D0D8902A362B362850265C295097
:101E10002758D8A006D02850265E2950275A2A8055
:101E200000D0D890293228322C2EECD700D02AC0EE
:101E300026F02BC027F012007FEC12F0020E0318E0
:101E40000410D8A412000CD0BBEC0EF0120055EC1C
:101E50000EF0120022EC0EF0120088EC0EF01200D0
:101E600013C036F014C037F03750000AD8A412005F
:101E70003650000AD8B4E8D7010AD8B4E8D7030A24
:101E8000D8B4E8D7010AD8B4E8D71200120015D0A8
:101E90002EC0F6FF2FC0F7FFF86A0E0EF76403D0CE
:101EA0000800F55005D0F6CFE9FFF7CFEAFFEF5075
:101EB000E5EC0FF02E4A2F2A00D02EC0F6FF2FC0DF
:101EC000F7FFF86A0E0EF76403D00800F55005D04E
:101ED000F6CFE9FFF7CFEAFFEF500009D8A4D8D733
:101EE000120005D0264A272A284A292A00D026C0CF
:101EF000D9FF27C0DAFFDF502A6E28C0D9FF29C0DA
:101F0000DAFFDF5000082A242B6E2B50D8A409D00A
:101F100026C0D9FF27C0DAFFDF50D8B402D0E2D7FD
:101F200000D02B50266E276A26BE2706120012000C
:101F3000000E046E010E036E950E266E000E276EC7
:101F4000910E286E0F0E296E74EC11F003EC0DF05B
:101F5000000E316E010E306E000E336E010E326EC9
:101F60000F0E346E0F0E356E3DEC12F0020E2A6E1F
:101F7000010EFBEC11F00F0E6EEC12F012002F5060
:101F80003010D8B41DD0010E316E05D0D8902F3648
:101F90003036312A00D030BE02D0F8D700D02F50D2
:101FA0002D5C30502E58D8A005D02F502D5E3050CB
:101FB0002E5A00D0D89030322F32312EF0D700D0A8
:101FC0002DC02DF02EC02EF012002D6E18D0010E57
:101FD000286E000E8DEC11F01200020E2A6E010E1A
:101FE000FBEC11F01200100E286E000E8DEC11F0BB
:101FF00012002DC028F0010E8DEC11F012002D50B2
:10200000080AD8B4F0D7020AD8B4E7D7060AD8B479
:10201000DED7EFD7120026C02AF027C02BF003D05E
:102020002A4A2B2A00D02AC0D9FF2BC0DAFFDF5062
:10203000D8B407D0F5D705D02A4A2B2A284A292A0E
:1020400000D028C0D9FF29C0DAFF2AC0E1FF2BC089
:10205000E2FFDFCFE7FFE750D8A4EED712000CD0A5
:10206000F9EC10F01200D8EC10F01200B7EC10F000
:1020700012001AEC11F0120013C036F014C037F041
:102080003750000AD8A412003650000AD8B4E8D756
:10209000010AD8B4E8D7030AD8B4E8D7010AD8A40B
:1020A0001200E7D7120000EE60F03A0EEE6AE80682
:1020B000FDE15F6A00EE01F0250EEE6AE806FDE143
:1020C000EA0EF66E240EF76E000EF86E00EE55F076
:1020D00010EE0AF00900F5CFEEFFE550E150FAE10D
:1020E000000EF86E0001D3EF11F0000E316E090EF4
:1020F000306E000E336E020E326E940E346E0F0E82
:10210000356E3DEC12F0000E1C6E010E1B6E000EC3
:10211000316E090E306E000E336E010E326E900E6F
:10212000346E0F0E356E3DEC12F01200000E316E63
:10213000090E306E000E336E010E326E940E346E48
:102140000F0E356E3DEC12F0000E1C6E000E1B6E75
:10215000000E316E090E306E000E336E020E326EBE
:10216000900E346E0F0E356E3DEC12F01200000E24
:10217000316E090E306E000E336E020E326E940E0A
:10218000346E0F0E356E3DEC12F0000E146E030E21
:10219000136E000E316E090E306E000E336E010E9E
:1021A000326E900E346E0F0E356E3DEC12F0120052
:1021B000000E316E090E306E000E336E010E326E5F
:1021C000940E346E0F0E356E3DEC12F0000E146E50
:1021D000020E136E000E316E010E306E000E336E65
:1021E000020E326E900E346E0F0E356E3DEC12F014
:1021F0001200000E316E010E306E000E336E020EB4
:10220000326E940E346E0F0E356E3DEC12F0000EF1
:10221000146E010E136E000E316E010E306E000E44
:10222000336E010E326E900E346E0F0E356E3DEC35
:1022300012F01200000E316E010E306E000E336E81
:10224000010E326E940E346E0F0E356E3DEC12F0B0
:10225000000E146E000E136E000E316E090E306EFD
:10226000000E336E020E326E900E346E0F0E356E0F
:102270003DEC12F012007FEC12F009D098EC0FF058
:1022800012002FEC10F01200A6EC11F0120003C0A7
:1022900038F004C039F03950000AD8A4F5D73850C6
:1022A000000AD8B4EBD7010AD8B41200030AD8B494
:1022B000E8D7EAD71200900E266E000E276E950E14
:1022C000286E000E296E71EC0FF026C036F027C084
:1022D00037F036503710D8A403D0C2EC0CF01200FF
:1022E00098EC0FF01200120026C02AF027C02BF045
:1022F00005D02A4A2B2A284A292A00D028C0F6FFCE
:1023000029C0F7FF2AC0D9FF2BC0DAFF0800F5CF9C
:10231000DFFFDF50D8A4EDD71200296E8A96020E97
:102320005CEC12F09398939A939C939E2950D8B4A6
:1023300002D08A8601D08A9600F028380F0B43EC31
:102340000DF028500F0B43EC0DF0120006D075EC89
:1023500010F0120096EC10F012001BC036F01CC0FA
:1023600037F03750000AD8A412003650000AD8B40B
:10237000EED7010AD8A41200EDD71200000E046EA9
:10238000000E036E03EC0DF0000E316E010E306E88
:10239000000E336E010E326E820E346E0F0E356EED
:1023A0003DEC12F012007EEC0DF0BEEC11F000D00E
:1023B0001EEC12F078EC0BF0FEEC08F00350041069
:1023C000D8A4F6D732EC0CF0F3D700EF00F026508B
:1023D0002802F3CF2AF0F4CF2BF026502902F35035
:1023E0002B2627502802F3502B262AC026F02BC07C
:1023F00027F0120012002B6E2A04D8B402D0400E2F
:1024000001D0000E2C6E00D02B042C262C508009FD
:10241000286E000E8DEC11F01200286E000E276E53
:102420003A0E286006D02F0E286403D0010E276EC6
:1024300000D027C026F026301200120003500410EE
:10244000D8B412000906D8A00A0609500A10D8A468
:1024500012007FEC12F0BEEC11F0120012007FECC3
:1024600012F003500410D8B4120003040410D8B4BE
:102470001200C2EC0CF01200120032C02AF03050F0
:10248000FBEC11F034C02EF035C02FF047EC0FF00C
:1024900012007FEC12F003040410D8A412005BECCD
:1024A00011F012001200F29C550EA76EAA0EA76E34
:1024B0000F013F8BF28C1200266E210EE82EFED704
:1024C00000F0262EFAD712001200266EFA0E00F047
:1024D000E82EFDD7262EFAD7120012002A6E2AC047
:1024E00028F0000E8DEC11F0120010000600020022
:1024F000120009007FEC12F0BEEC11F012000BC0CC
:0E25000009F00CC00AF012007FEC12F012007D
:08FFF800AEF718FFF3F8FFF16A
:00000001FF
