:04000000C2EF10F04B
:100F00000001000A006400E8031027280C010649CC
:100F10006E67726573652073752050494E3A0025DF
:100F20003032752F253032752F253032750025303F
:100F300032753A253032753A2530327500566F6C6D
:100F4000756D656E0043616D626961720041637425
:100F50006976617200416C61726D6100466563681B
:100F6000610052656C6F6A005265736574003132BE
:100F7000333400486F726100546F6E6F002530315A
:100F800075005832380050696E005349004E4F00CA
:100F900020002A003E0000003A0E446E000E456E0E
:100FA00017D1250E4C18D8B409D036C0D9FF37C098
:100FB000DAFF4CC0DFFF364A372A0AD1000E4B6EEB
:100FC000000E4A6E000E466E05D04684384A392A15
:100FD00001D00BD038C0F6FF39C0F7FF0800F5503C
:100FE000300AD8B4F2D701D0F5D738C0F6FF39C0EF
:100FF000F7FF0800F5509AEC11F0D8A03AD0000E97
:101000004B6E000E4A6E00D04AC02AF04BC02BF047
:10101000000E2D6E0A0E2C6E50EC11F02AC04AF014
:101020002BC04BF0D00E406EFF0E416E38C0F6FF65
:1010300039C0F7FF0800F550426E436A405042261F
:101040004150432242504A2643504B22384A392AC3
:1010500038C0F6FF39C0F7FF0800F5509AEC11F0E0
:10106000D8A007D0D1D705D0C1D0B2D0C00E46127B
:1010700011D038C0F6FF39C0F7FF384A392A0800C6
:10108000F5CF4CF04C50000AD8B4B0D0750AD8B4A3
:10109000EDD79ED044C0D9FF45C0DAFFDECF47F080
:1010A000DDCF48F0020E4426000E4522010E4C6EA4
:1010B000050E4C18D8B416D001D014D04C50020DE7
:1010C000010EF324F66E0F0EF420F76E0900F550B2
:1010D000475C0900F5504858D8A004D001D002D090
:1010E0004C2AE6D7800E4CBE7F0E406E4A504C5CB8
:1010F0004B50800A4058D8B007D04C504A5E000E82
:101100004CBEFF0E4B5A05D0000E4B6E000E4A6EC1
:1011100000D046A415D04A504B10D8B426D036C0C3
:10112000D9FF37C0DAFF300EDF6E364A372A4A065B
:10113000D8A04B064A504B10D8B417D0F0D715D0D2
:101140004A504B10D8B411D036C0D9FF37C0DAFF9F
:10115000200EDF6E364A372A4A06D8A04B064A5080
:101160004B10D8B402D0F0D700D04CC049F02AD0F0
:101170004950020D010EF324F66E0F0EF420F76EA7
:101180000900F5CF2CF00A00F5CF2DF047C02AF06A
:1011900048C02BF041EC0FF02AC031F02BC032F0E8
:1011A000000E346E0A0E336E76EC10F03150300FB4
:1011B0004C6E36C0D9FF37C0DAFF4CC0DFFF364A6D
:1011C000372A00D049064928D8B402D0D1D700D058
:1011D00038C0F6FF39C0F7FF384A392A0800F5CF82
:1011E0004CF04C50D8B402D0DCD600D036C0D9FF79
:1011F00037C0DAFF000EDF6E12001200D3EC11F0E0
:10120000A38017C02AF018C02BF0000E2D6E0A0E16
:101210002C6EFBEC0CF02A505D6E5D500A0DF35005
:10122000000817245E6E5D50100DF3505E24276E8B
:1012300015C02AF016C02BF0000E2D6E0A0E2C6E73
:10124000FBEC0CF02A505C6E5C500A0DF350000869
:1012500015240001996F5C50100DF3500001992581
:10126000286E54C02AF055C02BF0000E2D6E0A0EC9
:101270002C6EFBEC0CF02A505A6E5A500A0DF350AB
:10128000000854240001976F5A50100DF3500001CC
:101290009725296E4EC02AF04FC02BF0000E2D6E00
:1012A0000A0E2C6EFBEC0CF02A50586E58500A0DAA
:1012B000F35000084E240001946F5850100DF35065
:1012C00000019425256E56C02AF057C02BF0000E61
:1012D0002D6E0A0E2C6EFBEC0CF02A505B6E5B50F0
:1012E0000A0DF350000856240001986F5B50100D52
:1012F000F35000019825246E50C02AF051C02BF005
:10130000000E2D6E0A0E2C6EFBEC0CF02A50596E5E
:1013100059500A0DF350000850240001966F59509F
:10132000100DF35000019625236E52C095F052C067
:1013300022F0260E2A6E000E2B6E010E2C6EA6ECED
:101340000BF0220E2A6E000E2B6E010E2C6E03EC9B
:101350000BF00F013F8F120094D0000E356E010E7E
:10136000346E000E376E010E366E940E386E0F0E10
:10137000396EC7EC11F0000E1E6E020E1D6E000ECF
:101380001A6E010E196E000E356E090E346E000EC7
:10139000376E020E366E900E386E0F0E396EC7EC39
:1013A00011F01200000E356E010E346E000E376E15
:1013B000020E366E940E386E0F0E396EC7EC11F0B9
:1013C000000E1E6E030E1D6E000E1A6E020E196EBA
:1013D000000E356E010E346E000E376E010E366E45
:1013E000900E386E0F0E396EC7EC11F01200000E21
:1013F000356E090E346E000E376E010E366E940E89
:10140000386E0F0E396EC7EC11F0000E1E6E040E12
:101410001D6E000E1A6E030E196E000E356E010E53
:10142000346E000E376E020E366E900E386E0F0E52
:10143000396EC7EC11F01200000E356E090E346ED5
:10144000000E376E020E366E940E386E0F0E396E29
:10145000C7EC11F0000E1E6E010E1D6E000E1A6E0E
:10146000040E196E000E356E090E346E000E376EC6
:10147000010E366E900E386E0F0E396EC7EC11F0FD
:1014800012001DC03AF01EC03BF03B50000AD8A429
:1014900012003A50010AD8B460D7030AD8B482D7F0
:1014A000010AD8B4A4D7070AD8A41200C5D71200DD
:1014B000898089928994899680AA07D0010E216E2D
:1014C000E4EC10F000D080BAFED780AE07D0020E58
:1014D000216EE4EC10F000D080BEFED780AC07D0C7
:1014E000030E216EE4EC10F000D080BCFED782A485
:1014F00007D00B0E216E4DEC10F000D082B4FED759
:10150000899089828994899680AA07D0040E216ED9
:10151000E4EC10F000D080BAFED780AE07D0050E04
:10152000216EE4EC10F000D080BEFED780AC07D076
:10153000060E216EE4EC10F000D080BCFED782A431
:1015400007D00C0E216ED2EC0EF000D082B4FED784
:10155000899089928984899680AA07D0070E216E86
:10156000E4EC10F000D080BAFED780AE07D0080EB1
:10157000216EE4EC10F000D080BEFED780AC07D026
:10158000090E216EE4EC10F000D080BCFED782A4DE
:1015900007D00D0E216EBBEC11F000D082B4FED747
:1015A000899089928994898680AA07D00E0E216E2F
:1015B000F6EC11F000D080BAFED780AE07D0000E56
:1015C000216EE4EC10F000D080BEFED780AC07D0D6
:1015D0000F0E216EEEEC11F000D080BCFED782A47D
:1015E00009D0100E216E64EC11F000D082A402D05C
:1015F000FDD700D0FF0E4D6E8A0EE82EFED74D2E81
:10160000FCD700D01200000E2F6E20EE02F02A5000
:10161000D9262B50DA22130EDF60120020EE02F0E2
:101620002A50D9262B50DA22DF50D8B4120020EEEF
:1016300001F02A50D9262B50DA22320EDF60120038
:1016400020EE01F02A50D9262B50DA22DF50D8B4F0
:10165000120020EE03F02A50D9262B50DA22990EE0
:10166000DF6402D01200120020EE03F02A50D926C7
:101670002B50DA22DF50306E20EE01F02A50D926AE
:101680002B50DA22DF50336E20EE02F02A50D9269A
:101690002B50DA22DF50346E2C50D8B402D0F29C9A
:1016A00000D0000E3FBB010E326E3250D8A403D0E2
:1016B000D3EC11F000D0000E3FBF010E2E6E2E5065
:1016C000D8B407D0000E91BE010E2F6E0F013F9FC0
:1016D00000D0FC0E0F013F170F013F8198CF35F06E
:1016E00099CF36F02AC0D9FF2BC0DAFFDF50366E13
:1016F000FC0E0F013F17030E0F013F1330C098FF80
:1017000031C099FF33C098FF34C099FF35C098FFAE
:1017100036C099FF2E50D8B40DD00F013F8F2F50F7
:10172000D8B402D0918E00D03250D8B409D0D3ECC6
:1017300011F006D03250D8A403D00F013F9B00D047
:101740002C50D8B41200F29C12001200000E2F6E22
:1017500020EE02F02A50D9262B50DA225A0EDF60F2
:10176000120020EE01F02A50D9262B50DA225A0E10
:10177000DF60120020EE03F02A50D9262B50DA2227
:10178000240EDF6402D01200120020EE02F02A5074
:10179000D9262B50DA22DF50326E20EE01F02A508B
:1017A000D9262B50DA22DF50316E2C50D8B402D01B
:1017B000F29C00D0000E3FBB010E306E3050D8A41A
:1017C00003D0D3EC11F000D0000E3FBF010E2E6EFF
:1017D0002E50D8B407D0000E91BE010E2F6E0F010F
:1017E0003F9F00D0FC0E0F013F170F013F8198CFA4
:1017F00033F099CF34F020EE03F02A50D9262B5045
:10180000DA22DF50336EFC0E0F013F170F013F81CC
:1018100033C098FF34C099FF31C098FF32C099FFA0
:101820002E50D8B40DD00F013F8F2F50D8B402D016
:10183000918E00D03050D8B409D0D3EC11F006D03E
:101840003050D8A403D00F013F9B00D02C50D8B407
:101850001200F28C12001200260E2A6E000E2B6E61
:101860000AEC0FF027500F0B5E6E27380F0B0F0B93
:101870005D6E28500F0B0001996F28380F0B0F0B6E
:101880005C6E29500F0B0001976F29380F0B0F0B5F
:101890005A6E220E2A6E000E2B6E8FEC0DF0235026
:1018A0000F0B0001966F23380F0B0F0B596E24504E
:1018B0000F0B0001986F24380F0B0F0B5B6E22C0CB
:1018C00095F025500F0B0001946F25380F0B0F0B6F
:1018D000586E5D500A0D5E50F324176E000EF42012
:1018E000186E5C500A0D00019951F324156E000129
:1018F000000EF420166E5A500A0D00019751F32481
:10190000546E0001000EF420556E59500A0D00016E
:101910009651F324506E0001000EF420516E95C0D4
:1019200052F0536A5B500A0D00019851F324566E31
:101930000001000EF420576E58500A0D000194511A
:10194000F3244E6E0001000EF4204F6E120042D0C0
:10195000000E356E090E346E000E376E010E366EB7
:10196000940E386E0F0E396EC7EC11F0000E1C6E1F
:10197000020E1B6E000E356E090E346E000E376EB1
:10198000020E366E900E386E0F0E396EC7EC11F0E7
:101990001200000E356E090E346E000E376E020E08
:1019A000366E940E386E0F0E396EC7EC11F0000EC5
:1019B0001C6E010E1B6E000E356E090E346E000E8D
:1019C000376E010E366E900E386E0F0E396EC7EC04
:1019D00011F012001BC03AF01CC03BF03B50000A53
:1019E000D8A412003A50010AD8B4B2D7030AD8A436
:1019F0001200CFD71200000E2F6E2DAE07D02C6C28
:101A00002D1ED8B02D2A010E2F6E00D02BAE07D080
:101A10002A6C2B1ED8B02B2A010E2F1A00D0000ED4
:101A2000316E000E306E2C502D10D8B421D0010E26
:101A30002E6E05D0D8902C362D362E2A00D02DBEF5
:101A400002D0F8D700D0D890303631362C502A5CEE
:101A50002D502B58D8A006D02C502A5E2D502B5A32
:101A6000308000D0D8902D322C322E2EECD700D0E2
:101A70002F50D8B405D0306C311ED8B0312A00D0E8
:101A800030C02AF031C02BF012001200800E366EEA
:101A9000000E376E1F0E386E0F0E396E50C03AF0C2
:101AA00051C03BF056C03CF057C03DF04EC03EF038
:101AB0004FC03FF0CCEC07F0000E356E090E346ECF
:101AC000000E376E010E366E800E386E000E396EC7
:101AD000C7EC11F0800E366E000E376E2E0E386E8B
:101AE0000F0E396E54C03AF055C03BF015C03CF0B3
:101AF00016C03DF017C03EF018C03FF0CCEC07F028
:101B0000000E356E090E346E000E376E020E366E04
:101B1000800E386E000E396EC7EC11F01200FC0E0C
:101B20000F013F17030E0F013F1398CF34F099CFE9
:101B300035F098CF36F099CF37F098CF38F099CF6D
:101B400039F0FC0E0F013F17030E0F013F1398CF22
:101B50002CF099CF2DF098CF2EF099CF2FF098CF71
:101B600030F099CF31F02E503618D8A4D8D720EEC7
:101B700001F02A50D9262B50DA2236C0DFFF20EEA2
:101B800002F02A50D9262B50DA2237C0DFFF2AC0B4
:101B9000D9FF2BC0DAFF39C0DFFF20EE03F02A5057
:101BA000D9262B50DA2234C0DFFF12009B8E9B9C7B
:101BB000D388D38AD38CD390D392F00E926E000E3A
:101BC000936E070E946E0F0148690F0149692D0E3F
:101BD000C26E100EC16E0F013F8F0F013F8BCD867D
:101BE000FEEC08F01CEC0EF00C0EFDEC11F08A82FD
:101BF0008A80000E146E010E136E000E1A6E010E16
:101C0000196E000E1E6E010E1D6E000E066E000E89
:101C1000056E000E046E000E036E000E086E000EC0
:101C2000076E000E1C6E010E1B6E6E0E00017C6FA7
:101C30000F0E00017D6F1200939693948A968A94FA
:101C40009398939A939C939E0A0EDCEC11F00A0EE3
:101C5000DCEC11F00A0EDCEC11F0000E2E6E020E20
:101C60002E6401D008D0030E97EC0EF00A0EDCECC7
:101C700011F02E2AF4D7020E97EC0EF0000E2E6E05
:101C8000030E2E6402D0120012002E50010D0B0E16
:101C9000F324F66E0F0EF420F76E0800F5CF2CF04B
:101CA000000E37EC11F00A0EDCEC11F02E2A030EB8
:101CB0002E64EBD7120012001CEC0EF0000E356EF5
:101CC000020E346E000E376E010E366E4D0E386EFB
:101CD0000F0E396EC7EC11F0000E356E020E346E29
:101CE000000E376E020E366E620E386E0F0E396EB3
:101CF000C7EC11F0000E356E0A0E346E000E376E12
:101D0000010E366E860E386E0F0E396EC7EC11F06E
:101D1000000E356E0A0E346E000E376E020E366EF1
:101D2000550E386E0F0E396EC7EC11F012002B6E87
:101D30002BA003D02A6A2A2A01D02A6A2A3A8A507A
:101D40002A18EF0B2A188A6E2BA203D02A6A2A2A95
:101D500001D02A6A2A3A2A468A502A18DF0B2A1802
:101D60008A6E2BA403D02A6A2A2A01D02A6A2A3A28
:101D70002A462A468A502A18BF0B2A188A6E2BA692
:101D800003D02A6A2A2A01D02A6A2A322A328A50A1
:101D90002A187F0B2A188A6E00F08A8400F000F05F
:101DA0008A94120013501410D8A412001CD0F6EC20
:101DB0000FF0000E086E010E076E12009CEC0FF083
:101DC000000E086E010E076E12006FEC0FF0000E91
:101DD000086E010E076E1200C9EC0FF0000E086EBF
:101DE000010E076E120019C03AF01AC03BF03B50CA
:101DF000000AD8A412003A50010AD8B4D8D7030A6E
:101E0000D8B4DCD7010AD8B4E0D7070AD8B4E4D7ED
:101E100012001200FC0E0F013F170F013F8198CFF7
:101E200038F099CF39F098CF3AF099CF3BF0FC0ECB
:101E30000F013F170F013F8198CF30F099CF31F05C
:101E400098CF32F099CF33F032503A18D8A4E2D775
:101E500020EE03F02A50D9262B50DA2238C0DFFFBB
:101E600020EE02F02A50D9262B50DA223BC0DFFFA9
:101E700020EE01F02A50D9262B50DA223AC0DFFF9B
:101E80001200000E2F6E000E2E6E2C502D10D8B4A6
:101E900021D0010E306E05D0D8902C362D36302A48
:101EA00000D02DBE02D0F8D700D0D8902E362F36D5
:101EB0002C502A5C2D502B58D8A006D02C502A5ECE
:101EC0002D502B5A2E8000D0D8902D322C32302E0F
:101ED000ECD700D02EC02AF02FC02BF012001CEC43
:101EE0000EF0000E356E010E346E000E376E010ED0
:101EF000366E860E386E0F0E396EC7EC11F0000E7E
:101F0000356E0A0E346E000E376E010E366E450EBB
:101F1000386E0F0E396EC7EC11F0000E356E0A0EDA
:101F2000346E000E376E020E366E680E386E0F0E6F
:101F3000396EC7EC11F012001CEC0EF0000E356E7D
:101F4000010E346E000E376E010E366E620E386E64
:101F50000F0E396EC7EC11F0000E356E0A0E346E9E
:101F6000000E376E010E366E5C0E386E0F0E396E37
:101F7000C7EC11F0000E356E0A0E346E000E376E8F
:101F8000020E366E730E386E0F0E396EC7EC11F0FE
:101F900012001CEC0EF0000E356E010E346E000EB9
:101FA000376E010E366E550E386E0F0E396EC7EC59
:101FB00011F0000E356E0A0E346E000E376E010EF3
:101FC000366E3D0E386E0F0E396EC7EC11F0000EF6
:101FD000356E0A0E346E000E376E020E366E780EB7
:101FE000386E0F0E396EC7EC11F012001CEC0EF0BB
:101FF000000E356E010E346E000E376E010E366E19
:102000004D0E386E0F0E396EC7EC11F0000E356EA6
:102010000A0E346E000E376E010E366E8A0E386E62
:102020000F0E396EC7EC11F0000E356E0A0E346ECD
:10203000000E376E020E366E8D0E386E0F0E396E34
:10204000C7EC11F0120015D032C0F6FF33C0F7FF15
:10205000F86A0E0EF76403D00800F55005D0F6CFED
:10206000E9FFF7CFEAFFEF509CEC10F0324A332A39
:1020700000D032C0F6FF33C0F7FFF86A0E0EF764E7
:1020800003D00800F55005D0F6CFE9FFF7CFEAFFFF
:10209000EF500009D8A4D8D7120005500610D8A4D4
:1020A00007D01EEC11F0000E066E010E056E120038
:1020B00013501410D8A4120003500410D8A407D051
:1020C0005CEC0EF0000E046E010E036E1200075061
:1020D0000810D8A403D0ACEC09F000D00704081015
:1020E000D8A41200A7EC0CF01200120033503410E8
:1020F000D8B41DD0010E356E05D0D89033363436A5
:10210000352A00D034BE02D0F8D700D03350315C2D
:1021100034503258D8A005D03350315E3450325A42
:1021200000D0D89034323332352EF0D700D031C0C1
:1021300031F032C032F01200316E18D0010E2C6E28
:10214000000E37EC11F01200020E2E6E010E77EC2D
:1021500011F01200100E2C6E000E37EC11F0120070
:1021600031C02CF0010E37EC11F012003150080A8A
:10217000D8B4F0D7020AD8B4E7D7060AD8B4DED765
:10218000EFD7120000EE60F0340EEE6AE806FDE1D3
:102190005F6A00EE01F0290EEE6AE806FDE1080E26
:1021A000F66E240EF76E000EF86E00EE4EF010EE96
:1021B0000AF00900F5CFEEFFE550E150FAE1000E1C
:1021C000F86E000104EF11F005040610D8A407D042
:1021D000920E326E0F0E336E23EC10F01200800E52
:1021E000366E000E376E7D0E386E0F0E396E21C0C2
:1021F0003AF03B6ACCEC07F0800E326E000E336E84
:1022000023EC10F012001200D6EC0DF089EC11F066
:1022100000D02CEC0CF058EC0AF005500610D8A4B5
:10222000F8D703500410D8A4F4D707500810D8A446
:10223000F0D746EC0DF0EDD700EF00F01CEC0EF0FF
:10224000000E356E010E346E000E376E010E366EC6
:102250000F0E386E0F0E396EC7EC11F0020E2E6E97
:10226000010E77EC11F00F0EFDEC11F012002D6E47
:102270008A96020EE5EC11F09398939A939C939EA4
:102280002D50D8B402D08A8601D08A9600F02C381E
:102290000F0B97EC0EF02C500F0B97EC0EF012007A
:1022A0002A502C02F3CF2EF0F4CF2FF02A502D021B
:1022B000F3502F262B502C02F3502F262EC02AF03D
:1022C0002FC02BF01200120089EC11F0000E066EE8
:1022D000000E056E000E146E010E136E000E046EDD
:1022E000000E036E000E086E000E076E12002F6EB9
:1022F0002E04D8B402D0400E01D0000E306E00D0B3
:102300002F043026305080092C6E000E37EC11F06F
:1023100012001CEC0EF0000E356E010E346E000E35
:10232000376E010E366E820E386E0F0E396EC7ECA8
:1023300011F012002C6E000E2B6E3A0E2C6006D09F
:102340002F0E2C6403D0010E2B6E00D02BC02AF070
:102350002A3012001200000E146E000E136E000ED2
:10236000066E000E056E000E086E010E076E5CEC28
:102370000EF01200120013501410D8A412005CECDE
:102380000EF0000E086E000E076E1200120036C02E
:102390002EF0345077EC11F038C032F039C033F001
:1023A00023EC10F01200F29C550EA76EAA0EA76E39
:1023B0000F013F8BF28C12002A6EFA0E00F0E82E0D
:1023C000FDD72A2EFAD7120012002A6E210EE82E0F
:1023D000FED700F02A2EFAD71200120005040610CC
:1023E000D8A41200ABEC11F012001200920E326E63
:1023F0000F0E336E23EC10F012002E6E2EC02CF058
:10240000000E37EC11F0120010000600020012005E
:022410000900C1
:08FFF800AEF718FFF3F8FFF16A
:00000001FF
