:04000000FCEF73F0AE
:10E27A0040EC71F0120037C035F038C036F01200A9
:10E28A0040EC71F0EBEC71F0120010000600020095
:10E29A0012000900056E05C003F0000E73EC72F05F
:10E2AA001200016EFA0E00F0E82EFDD7012EFAD701
:10E2BA0012001200016E210EE82EFED700F0012E88
:10E2CA00FAD712001200F29C550EA76EAA0EA76E7C
:10E2DA000F013F8BF28C12009A0E016E000E026E35
:10E2EA00C50E036EFF0E046E1EEC74F012000DC014
:10E2FA0005F00B50C5EC71F00FC009F010C00AF020
:10E30A00E9EC75F012009A0E016E000E026E9F0E75
:10E31A00036E000E046E1EEC74F0EBEC71F012004A
:10E32A0040EC71F029502A10D8B4120029042A109E
:10E33A00D8B4120049EC79F01200120029502A10C0
:10E34A00D8B412003506D8A0360635503610D8A4EF
:10E35A00120040EC71F0EBEC71F012001200036E47
:10E36A00000E026E3A0E036006D02F0E036403D02D
:10E37A00010E026E00D002C001F00130120012003C
:10E38A00066E0504D8B402D0400E01D0000E076E06
:10E39A0000D00604072607508009036E000E73ECAE
:10E3AA0072F0120001500302F3CF05F0F4CF06F029
:10E3BA0001500402F350062602500302F3500626C7
:10E3CA0005C001F006C002F012001200000E2A6E0B
:10E3DA00000E296E87EC78F0000E0C6E010E0B6EA3
:10E3EA00000E0E6E010E0D6EE30E0F6EFF0E106E16
:10E3FA007CEC71F012009A0E016E000E026E9F0EF6
:10E40A00036E000E046E47EC75F001500210D8A49A
:10E41A0003D049EC79F01200F9EC74F01200120002
:10E42A008AEC79F0EBEC71F000D0A3EC71F047ECD8
:10E43A007BF0EBEC7CF029502A10D8A4F6D713EC29
:10E44A007AF0F4EC7AF0F1D700EF00F006D0DBECCA
:10E45A0073F01200BAEC73F0120043C011F044C01A
:10E46A0012F01250000AD8A412001150000AD8B4AF
:10E47A00EED7010AD8A41200EDD7120006D0C7ECD5
:10E48A0078F0120008EC79F0120043C024F044C07E
:10E49A0025F02550000AD8A412002450000AD8B446
:10E4AA00EED7010AD8A41200EDD7120006D06CEC00
:10E4BA0077F0120039EC77F0120043C011F044C033
:10E4CA0012F01250000AD8A412001150000AD8B44F
:10E4DA00EED7010AD8A41200EDD71200046E8A966C
:10E4EA00020E5FEC71F09398939A939C939E04505A
:10E4FA00D8B402D08A8601D08A9600F003380F0B6E
:10E50A000EEC78F003500F0B0EEC78F01200080EA8
:10E51A0033183410D8A405D0000E346E000E336EB2
:10E52A000DD0020E33183410D8B405D0050E3318A6
:10E53A003410D8A403D0334A342A00D0334A342AB8
:10E54A00120008D020EC75F0120071EC71F0EBECBF
:10E55A0071F0120043C011F044C012F01250000AC8
:10E56A00D8A412001150000AD8B4ECD7010AD8A4D2
:10E57A001200EBD7120009D0000E426E010E03D032
:10E58A00000E426E000E416E10D043C011F044C01E
:10E59A0012F01250000AD8A408D01150000AD8B4B8
:10E5AA00EBD7010AD8B4ECD700D0EBEC71F012002B
:10E5BA0009D0000E2C6E000E03D0000E2C6E010E38
:10E5CA002B6E10D043C011F044C012F01250000A52
:10E5DA00D8A408D01150000AD8B4EBD7010AD8B48D
:10E5EA00ECD700D0EBEC71F0120009D0000E2E6EC1
:10E5FA00000E03D0000E2E6E010E2D6E10D043C0F9
:10E60A0011F044C012F01250000AD8A408D01150D8
:10E61A00000AD8B4EBD7010AD8B4ECD700D0EBEC97
:10E62A0071F0120040EC71F029042A10D8A403D02A
:10E63A0000EC72F01200060E29182A10D8A403D092
:10E64A0088EC71F012000A0E29182A10D8B405D0E5
:10E65A000B0E29182A10D8A41200EBEC71F0120044
:10E66A001200000E0C6E010E0B6E000E0E6E010EE5
:10E67A000D6EF50E0F6EFF0E106E7CEC71F0000E33
:10E68A003C6E000E3B6E000E0C6E090E0B6E000EF9
:10E69A000E6E020E0D6EF10E0F6EFF0E106E7CECFA
:10E6AA0071F01200000E0C6E010E0B6E000E0E6E53
:10E6BA00020E0D6EF50E0F6EFF0E106E7CEC71F0F1
:10E6CA00000E3C6E010E3B6E000E0C6E010E0B6EC0
:10E6DA00000E0E6E010E0D6EF10E0F6EFF0E106E15
:10E6EA007CEC71F01200000E0C6E090E0B6E000E1F
:10E6FA000E6E010E0D6EF50E0F6EFF0E106E7CEC97
:10E70A0071F0000E3C6E020E3B6E000E0C6E010E96
:10E71A000B6E000E0E6E020E0D6EF10E0F6EFF0ED8
:10E72A00106E7CEC71F01200000E0C6E090E0B6E6E
:10E73A00000E0E6E020E0D6EF50E0F6EFF0E106EAF
:10E74A007CEC71F0000E3C6E030E3B6E000E0C6EFC
:10E75A00090E0B6E000E0E6E010E0D6EF10E0F6E8F
:10E76A00FF0E106E7CEC71F01200000E0C6E090E9A
:10E77A000B6E000E0E6E010E0D6EF50E0F6EFF0E75
:10E78A00106E7CEC71F0000E446E000E436E000EAB
:10E79A000C6E090E0B6E000E0E6E020E0D6EF10E51
:10E7AA000F6EFF0E106E7CEC71F01200000E0C6EF4
:10E7BA00090E0B6E000E0E6E020E0D6EF50E0F6E2A
:10E7CA00FF0E106E7CEC71F0000E446E010E436E6B
:10E7DA00000E0C6E090E0B6E000E0E6E010E0D6E03
:10E7EA00F10E0F6EFF0E106E7CEC71F0120000EE4F
:10E7FA0060F0440EEE6AE806FDE15F6A00EE29F079
:10E80A00250EEE6AE806FDE1940EF66EE20EF76E4C
:10E81A00000EF86E00EE4EF010EE0AF00900F5CF89
:10E82A00EEFFE550E150FAE1000EF86E000115EF37
:10E83A0072F001C005F002C006F005D0054A062AAA
:10E84A00034A042A00D003C0F6FF04C0F7FFF86A9F
:10E85A0005C0D9FF06C0DAFF0E0EF76403D0080020
:10E86A00F55005D0F6CFE9FFF7CFEAFFEF50DF6E9C
:10E87A00DF50D8A4E3D712000CD057EC73F0120083
:10E88A0078EC73F0120099EC73F0120036EC73F026
:10E89A0012003BC011F03CC012F01250000AD8A47A
:10E8AA0012001150000AD8B4E8D7010AD8B4E8D740
:10E8BA00030AD8B4E8D7010AD8A41200E7D712008D
:10E8CA000CD06DEC76F01200A0EC76F01200D3ECCE
:10E8DA0076F0120006EC77F012003BC011F03CC053
:10E8EA0012F01250000AD8A412001150000AD8B42B
:10E8FA00E8D7010AD8B4E8D7030AD8B4E8D7010A96
:10E90A00D8A41200E7D7120001C005F002C006F031
:10E91A0003D0054A062A00D005C0D9FF06C0DAFF8F
:10E92A00DF50D8B407D0F5D705D0054A062A034ADE
:10E93A00042A00D003C0D9FF04C0DAFF05C0E1FFF2
:10E94A0006C0E2FFDFCFE7FFE750D8A4EED71200F8
:10E95A00086E18D0010E036E000E73EC72F01200EE
:10E96A00020E056E010EC5EC71F01200100E036E58
:10E97A00000E73EC72F0120008C003F0010E73EC83
:10E98A0072F012000850080AD8B4F0D7020AD8B4B4
:10E99A00E7D7060AD8B4DED7EFD712000A500B1011
:10E9AA00D8B41DD0010E0C6E05D0D8900A360B369D
:10E9BA000C2A00D00BBE02D0F8D700D00A50085C4F
:10E9CA000B500958D8A005D00A50085E0B50095AB6
:10E9DA0000D0D8900B320A320C2EF0D700D008C0E3
:10E9EA0008F009C009F01200000E2A6E010E296E05
:10E9FA009F0E016E000E026EF20E036EFF0E046E83
:10EA0A001EEC74F087EC78F0000E0C6E010E0B6EA3
:10EA1A00000E0E6E010E0D6E0C0E0F6EFF0E106EB6
:10EA2A007CEC71F0020E056E010EC5EC71F00F0E52
:10EA3A004FEC71F01200000E2A6E060E296E9F0E20
:10EA4A00016E000E026EF20E036EFF0E046E1EECD5
:10EA5A0074F087EC78F0000E0C6E010E0B6E000E4F
:10EA6A000E6E010E0D6E4A0E0F6EFF0E106E7CECCE
:10EA7A0071F0020E056E010EC5EC71F00F0E4FEC2F
:10EA8A0071F0120005D0014A022A034A042A00D072
:10EA9A0001C0D9FF02C0DAFFDF50056E03C0D9FFFB
:10EAAA0004C0DAFFDF5000080524066E0650D8A419
:10EABA0009D001C0D9FF02C0DAFFDF50D8B402D0B2
:10EACA00E2D700D00650016E026A01BE02061200A9
:10EADA00120041044210D8A40BD0860E0D6E000E0F
:10EAEA000E6E900E0F6EFF0E106E44EC7EF00BD081
:10EAFA00860E0D6E000E0E6E9E0E0F6EFF0E106EBF
:10EB0A0044EC7EF000D0000E0C6E010E0B6E000E6F
:10EB1A000E6E020E0D6E860E0F6E000E106E7CECDF
:10EB2A0071F012002B502C10D8A40BD0860E0D6E4B
:10EB3A00000E0E6E740E0F6EFF0E106E44EC7EF019
:10EB4A000BD0860E0D6E000E0E6E820E0F6EFF0E2D
:10EB5A00106E44EC7EF000D0000E0C6E010E0B6EAF
:10EB6A00000E0E6E020E0D6E860E0F6E000E106EE9
:10EB7A007CEC71F012002D502E10D8A40BD0860E0A
:10EB8A000D6E000E0E6E890E0F6EFF0E106E44ECA7
:10EB9A007EF00BD0860E0D6E000E0E6E970E0F6E67
:10EBAA00FF0E106E44EC7EF000D0000E0C6E010ECB
:10EBBA000B6E000E0E6E020E0D6E860E0F6E000E9E
:10EBCA00106E7CEC71F0120015D009C0F6FF0AC075
:10EBDA00F7FFF86A0E0EF76403D00800F55005D067
:10EBEA00F6CFE9FFF7CFEAFFEF50ADEC74F0094A30
:10EBFA000A2A00D009C0F6FF0AC0F7FFF86A0E0E0B
:10EC0A00F76403D00800F55005D0F6CFE9FFF7CF37
:10EC1A00EAFFEF500009D8A4D8D7120040EC71F0EF
:10EC2A000FD0F9EC74F0120041EC74F012008CEC85
:10EC3A0072F012008CEC72F012002BEC72F01200DF
:10EC4A0029C013F02AC014F01450000AD8A4F5D72A
:10EC5A001350000AD8B4E5D7010AD8B41200030A3F
:10EC6A00D8B4E2D7080AD8B4E2D7010AD8B4E2D7AE
:10EC7A00E4D71200000E066E000E056E0350041053
:10EC8A00D8B421D0010E076E05D0D89003360436C9
:10EC9A00072A00D004BE02D0F8D700D0D890053693
:10ECAA0006360350015C04500258D8A006D003501F
:10ECBA00015E0450025A058000D0D8900432033213
:10ECCA00072EECD700D005C001F006C002F01200F2
:10ECDA00000E2A6E040E296E87EC78F0000E0C6E78
:10ECEA00010E0B6E000E0E6E010E0D6E650E0F6E8E
:10ECFA00FF0E106E7CEC71F0000E0C6E0A0E0B6E9D
:10ED0A00000E0E6E010E0D6EEB0E0F6EFF0E106EE4
:10ED1A007CEC71F0000E0C6E0A0E0B6E000E0E6E7D
:10ED2A00020E0D6EEE0E0F6EFF0E106E7CEC71F081
:10ED3A00BAEC73F01200000E2A6E030E296E87ECED
:10ED4A0078F0000E0C6E010E0B6E000E0E6E010EA8
:10ED5A000D6EB90E0F6EFF0E106E7CEC71F0000E88
:10ED6A000C6E0A0E0B6E000E0E6E010E0D6EB30EB9
:10ED7A000F6EFF0E106E7CEC71F0000E0C6E0A0E18
:10ED8A000B6E000E0E6E020E0D6ECA0E0F6EFF0E89
:10ED9A00106E7CEC71F0BAEC73F01200000E2A6E61
:10EDAA00050E296E87EC78F0000E0C6E010E0B6EC4
:10EDBA00000E0E6E010E0D6EE70E0F6EFF0E106E38
:10EDCA007CEC71F0000E0C6E0A0E0B6E000E0E6ECD
:10EDDA00010E0D6E5D0E0F6EFF0E106E7CEC71F063
:10EDEA00000E0C6E0A0E0B6E000E0E6E020E0D6EEB
:10EDFA00BF0E0F6EFF0E106E7CEC71F0BAEC73F062
:10EE0A001200000E2A6E070E296E87EC78F0000EAB
:10EE1A000C6E010E0B6E000E0E6E010E0D6EAC0E18
:10EE2A000F6EFF0E106E7CEC71F0000E0C6E0A0E67
:10EE3A000B6E000E0E6E010E0D6E550E0F6EFF0E4E
:10EE4A00106E7CEC71F0000E0C6E0A0E0B6E000E4A
:10EE5A000E6E020E0D6ED40E0F6EFF0E106E7CEC4F
:10EE6A0071F0BAEC73F01200000E2A6E090E296EC8
:10EE7A0087EC78F0000E0C6E010E0B6E000E0E6E13
:10EE8A00010E0D6ED40E0F6EFF0E106E7CEC71F03B
:10EE9A00000E0C6E0A0E0B6E000E0E6E010E0D6E3B
:10EEAA006D0E0F6EFF0E106E7CEC71F0000E0C6E84
:10EEBA000A0E0B6E000E0E6E020E0D6E7B0E0F6E9C
:10EECA00FF0E106E7CEC71F0BAEC73F01200000EBB
:10EEDA002A6E080E296E87EC78F0000E0C6E010E71
:10EEEA000B6E000E0E6E010E0D6E550E0F6EFF0E9E
:10EEFA00106E7CEC71F0000E0C6E0A0E0B6E000E9A
:10EF0A000E6E010E0D6ECF0E0F6EFF0E106E7CECA4
:10EF1A0071F0000E0C6E0A0E0B6E000E0E6E020ED3
:10EF2A000D6ED90E0F6EFF0E106E7CEC71F0BAECFE
:10EF3A0073F01200FC0E0F013F170F013F8198CFAB
:10EF4A000FF099CF10F098CF11F099CF12F0FC0E74
:10EF5A000F013F170F013F8198CF07F099CF08F0B3
:10EF6A0098CF09F099CF0AF009501118D8A4E2D71E
:10EF7A0020EE03F00150D9260250DA220FC0DFFF3B
:10EF8A0020EE02F00150D9260250DA2212C0DFFF29
:10EF9A0020EE01F00150D9260250DA2211C0DFFF1B
:10EFAA00120040EC71F029042A10D8B405D0060EDC
:10EFBA0029182A10D8A41ED0F30E096EFF0E0A6E65
:10EFCA00E9EC75F0860E0D6E000E0E6EDE0E0F6EFB
:10EFDA00FF0E106E45C011F0126A44EC7EF09F0ECF
:10EFEA00016E000E026E860E036E000E046E89EC30
:10EFFA0074F01200860E0D6E000E0E6EDE0E0F6E8F
:10F00A00FF0E106E45C011F0126A44EC7EF0120039
:10F01A001200026E02A003D0016A012A01D0016A1D
:10F02A00013A8A500118EF0B01188A6E02A203D026
:10F03A00016A012A01D0016A013A01468A5001187F
:10F04A00DF0B01188A6E02A403D0016A012A01D0DB
:10F05A00016A013A014601468A500118BF0B01189C
:10F06A008A6E02A603D0016A012A01D0016A01321E
:10F07A0001328A5001187F0B01188A6E00F08A84C7
:10F08A0000F000F08A94120040EC71F018D065ECA0
:10F09A0074F0120043EC72F01200C0EC72F012002D
:10F0AA00A6EC72F012005BEC72F01200FAEC72F04D
:10F0BA001200DDEC72F01200A7EC7AF0120029C0FF
:10F0CA0026F02AC027F02750000AD8A4120026509A
:10F0DA00020AD8B4DCD7010AD8B4DCD7070AD8B4F4
:10F0EA00DCD7010AD8B4DCD7020AD8B4DCD70F0AB5
:10F0FA00D8B4DCD7010AD8B4DCD7030AD8A41200E2
:10F10A00DBD71200939693948A968A949398939A4B
:10F11A00939C939E0A0E56EC71F00A0E56EC71F00F
:10F12A000A0E56EC71F0000E056E020E056401D04F
:10F13A0008D0030E0EEC78F00A0E56EC71F0052A90
:10F14A00F4D7020E0EEC78F0000E056E030E05647D
:10F15A0002D0120012000550010DF70EF324F66ECC
:10F16A00FE0EF420F76E0800F5CF03F0000E73ECE4
:10F17A0072F00A0E56EC71F0052A030E0564EBD7FD
:10F18A0012001200000E2A6E0A0E296E87EC78F021
:10F19A00000E0C6E010E0B6E000E0E6E010E0D6E41
:10F1AA00FB0E0F6EFE0E106E7CEC71F0860E0D6E6D
:10F1BA00000E0E6E2C0E0F6EFF0E106E50C011F068
:10F1CA0051C012F056C013F057C014F04EC015F0DB
:10F1DA004FC016F044EC7EF0000E0C6E010E0B6E62
:10F1EA00000E0E6E020E0D6E860E0F6E000E106E63
:10F1FA007CEC71F0020E056E010EC5EC71F00F0E7B
:10F20A004FEC71F01200000E2A6E0B0E296E87EC7D
:10F21A0078F0000E0C6E010E0B6E000E0E6E010ED3
:10F22A000D6E1C0E0F6EFF0E106E7CEC71F0860ECA
:10F23A000D6E000E0E6E3B0E0F6EFF0E106E54C05A
:10F24A0011F055C012F03DC013F03EC014F03FC09B
:10F25A0015F040C016F044EC7EF0000E0C6E010E64
:10F26A000B6E000E0E6E020E0D6E860E0F6E000EE7
:10F27A00106E7CEC71F0020E056E010EC5EC71F099
:10F28A000F0E4FEC71F01200000E2A6E020E296E5C
:10F29A0087EC78F0000E0C6E020E0B6E000E0E6EEE
:10F2AA00010E0D6E650E0F6EFF0E106E7CEC71F086
:10F2BA00000E0C6E020E0B6E000E0E6E020E0D6E1E
:10F2CA00B90E0F6EFF0E106E7CEC71F0000E0C6E14
:10F2DA000A0E0B6E000E0E6E010E0D6EE70E0F6E0D
:10F2EA00FF0E106E7CEC71F0000E0C6E0A0E0B6EA7
:10F2FA00000E0E6E020E0D6EA50E0F6EFF0E106E34
:10F30A007CEC71F036EC73F012009B8E9B9CD388D8
:10F31A00D38AD38CD390D392F00E926E000E936E52
:10F32A00070E946E0F0148690F0149692D0EC26ECE
:10F33A00100EC16E0F013F8F0F013F8BCD8696ECE9
:10F34A007DF087EC78F00C0E4FEC71F08A828A809F
:10F35A00000E386E320E376E000E306E000E2F6EB3
:10F36A00000E3C6E000E3B6E000E446E000E436EA5
:10F37A00000E346E010E336E000E2E6E000E2D6ED0
:10F38A00000E2C6E000E2B6E71EC71F01200FC0E4A
:10F39A000F013F17030E0F013F1398CF0BF099CFC0
:10F3AA000CF098CF0DF099CF0EF098CF0FF099CFBF
:10F3BA0010F0FC0E0F013F17030E0F013F1398CFF9
:10F3CA0003F099CF04F098CF05F099CF06F098CFC3
:10F3DA0007F099CF08F005500D18D8A4D8D720EE19
:10F3EA0001F00150D9260250DA220DC0DFFF20EECB
:10F3FA0002F00150D9260250DA220EC0DFFF01C006
:10F40A00D9FF02C0DAFF10C0DFFF20EE03F001507F
:10F41A00D9260250DA220BC0DFFF1200860E0D6ECB
:10F42A00000E0E6E2C0E0F6EFF0E106E50C011F0F5
:10F43A0051C012F056C013F057C014F04EC015F068
:10F44A004FC016F044EC7EF0000E0C6E090E0B6EE7
:10F45A00000E0E6E010E0D6E860E0F6E000E106EF1
:10F46A007CEC71F0860E0D6E000E0E6E3B0E0F6E6A
:10F47A00FF0E106E54C011F055C012F03DC013F0CB
:10F48A003EC014F03FC015F040C016F044EC7EF0C8
:10F49A00000E0C6E090E0B6E000E0E6E020E0D6E35
:10F4AA00860E0F6E000E106E7CEC71F01200000ECC
:10F4BA00066E04AE07D0036C041ED8B0042A010EEF
:10F4CA00066E00D002AE07D0016C021ED8B0022A26
:10F4DA00010E061A00D0000E086E000E076E0350C9
:10F4EA000410D8B421D0010E056E05D0D890033689
:10F4FA000436052A00D004BE02D0F8D700D0D8902E
:10F50A00073608360350015C04500258D8A006D0CA
:10F51A000350015E0450025A078000D0D89004328A
:10F52A000332052EECD700D00650D8B405D0076CAC
:10F53A00081ED8B0082A00D007C001F008C002F09F
:10F54A0012001200860E0D6E000E0E6E2C0E0F6E3D
:10F55A00FF0E106E50C011F051C012F056C013F0D9
:10F56A0057C014F04EC015F04FC016F044EC7EF0B0
:10F57A00000E0C6E010E0B6E000E0E6E020E0D6E5C
:10F58A00860E0F6E000E106E7CEC71F0020E056E88
:10F59A003350C5EC71F008D00A0E5026000E5122E5
:10F5AA0013D0504A512A10D033C024F034C025F069
:10F5BA002550000AD8A408D02450010AD8B4ECD7A0
:10F5CA00030AD8B4EED700D096EC7DF0FF0E246E75
:10F5DA008A0EE82EFED7242EFCD700D01200410452
:10F5EA004210D8A402D08A8200D041504210D8A436
:10F5FA0002D08A9200D0314A322A30D06EEC75F0AD
:10F60A00050E31183210D8A41200000E326E000E08
:10F61A00316E000E306E010E2F6E1200C0EC75F0C6
:10F62A00050E31183210D8A41200000E326E000EE8
:10F63A00316E000E306E020E2F6E120097EC75F0CE
:10F64A00050E31183210D8A41200000E326E000EC8
:10F65A00316E000E306E000E2F6E12002FC024F095
:10F66A0030C025F02550000AD8A412002450000A00
:10F67A00D8B4C4D7010AD8B4D1D7030AD8A412007F
:10F68A00DDD712004A0E016E000E026E9FEC77F073
:10F69A004B500F0B5E6E4B380F0B0F0B5D6E4C50C1
:10F6AA000F0B0001A96F4C380F0B0F0B5C6E4D50FE
:10F6BA000F0B0001A76F4D380F0B0F0B5A6E460E3A
:10F6CA00016E000E026ECCEC79F047500F0B000170
:10F6DA00A66F47380F0B0F0B596E48500F0B0001DE
:10F6EA00A86F48380F0B0F0B5B6E46C0A5F0495048
:10F6FA000F0B0001A46F49380F0B0F0B586E5D50AA
:10F70A000A0D5E50F3243F6E000EF420406E5C50EA
:10F71A000A0D0001A951F3243D6E0001000EF420E8
:10F72A003E6E5A500A0D0001A751F324546E00018F
:10F73A00000EF420556E59500A0D0001A651F3240B
:10F74A00506E0001000EF420516EA5C052F0536AAB
:10F75A005B500A0D0001A851F324566E0001000EF9
:10F76A00F420576E58500A0D0001A451F3244E6E2E
:10F77A000001000EF4204F6E1200000E066E20EEFD
:10F78A0002F00150D9260250DA225A0EDF60120026
:10F79A0020EE01F00150D9260250DA225A0EDF601B
:10F7AA00120020EE03F00150D9260250DA22240E6C
:10F7BA00DF6402D01200120020EE02F00150D926B6
:10F7CA000250DA22DF50096E20EE01F00150D926EC
:10F7DA000250DA22DF50086E0350D8B402D0F29CED
:10F7EA0000D0000E3FBB010E076E0750D8A403D00D
:10F7FA0068EC71F000D0000E3FBF010E056E055097
:10F80A00D8B407D0000E91BE010E066E0F013F9FBD
:10F81A0000D0FC0E0F013F170F013F8198CF0AF06D
:10F82A0099CF0BF020EE03F00150D9260250DA22CC
:10F83A00DF500A6EFC0E0F013F170F013F810AC00D
:10F84A0098FF0BC099FF08C098FF09C099FF05509F
:10F85A00D8B40DD00F013F8F0650D8B402D0918E84
:10F86A0000D00750D8B409D068EC71F006D0075020
:10F87A00D8A403D00F013F9B00D00350D8B4120084
:10F88A00F28C12001200000E066E20EE02F00150F9
:10F89A00D9260250DA22130EDF60120020EE02F09F
:10F8AA000150D9260250DA22DF50D8B4120020EED5
:10F8BA0001F00150D9260250DA22320EDF6012001E
:10F8CA0020EE01F00150D9260250DA22DF50D8B4D6
:10F8DA00120020EE03F00150D9260250DA22990EC6
:10F8EA00DF6402D01200120020EE03F00150D92684
:10F8FA000250DA22DF50076E20EE01F00150D926BD
:10F90A000250DA22DF500A6E20EE02F00150D926A8
:10F91A000250DA22DF500B6E0350D8B402D0F29CA8
:10F92A0000D0000E3FBB010E096E0950D8A403D0C7
:10F93A0068EC71F000D0000E3FBF010E056E055055
:10F94A00D8B407D0000E91BE010E066E0F013F9F7C
:10F95A0000D0FC0E0F013F170F013F8198CF0CF02A
:10F96A0099CF0DF001C0D9FF02C0DAFFDF500D6E4A
:10F97A00FC0E0F013F17030E0F013F1307C098FF3C
:10F98A0008C099FF0AC098FF0BC099FF0CC098FFE6
:10F99A000DC099FF0550D8B40DD00F013F8F065006
:10F9AA00D8B402D0918E00D00950D8B409D068ECEE
:10F9BA0071F006D00950D8A403D00F013F9B00D0A4
:10F9CA000350D8B41200F29C120012008980899266
:10F9DA008994899680AA07D0010E456ED6EC77F0F5
:10F9EA0000D080BAFED780AE07D0020E456ED6ECA4
:10F9FA0077F000D080BEFED780AC07D0030E456EEC
:10FA0A00D6EC77F000D080BCFED782A407D00B0ECC
:10FA1A00456E13EC76F000D082B4FED789908982C5
:10FA2A008994899680AA07D0040E456ED6EC77F0A1
:10FA3A0000D080BAFED780AE07D0050E456ED6EC50
:10FA4A0077F000D080BEFED780AC07D0060E456E98
:10FA5A00D6EC77F000D080BCFED782A407D00C0E7B
:10FA6A00456E49EC78F000D082B4FED7899089922D
:10FA7A008984899680AA07D0070E456ED6EC77F05E
:10FA8A0000D080BAFED780AE07D0080E456ED6ECFD
:10FA9A0077F000D080BEFED780AC07D0090E456E45
:10FAAA00D6EC77F000D080BCFED782A407D00D0E2A
:10FABA00456E95EC71F000D082B4FED78990899298
:10FACA008994898680AA07D00E0E456E3DEC71F0A6
:10FADA0000D080BAFED780AE07D0000E456ED6ECB5
:10FAEA0077F000D080BEFED780AC07D00F0E456EEF
:10FAFA0017EC73F000D080BCFED782A409D0100E98
:10FB0A00456E45EC71F000D082A402D0FDD700D03A
:10FB1A00FF0E286E8A0EE82EFED7282EFCD700D0BC
:10FB2A00120068EC71F0A3803FC001F040C002F0FF
:10FB3A00000E046E0A0E036E5CEC7AF001505D6EE4
:10FB4A005D500A0DF35000083F245E6E5D50100DA3
:10FB5A00F3505E244B6E3DC001F03EC002F0000E31
:10FB6A00046E0A0E036E5CEC7AF001505C6E5C5017
:10FB7A000A0DF35000083D240001A96F5C50100DD6
:10FB8A00F3500001A9254C6E54C001F055C002F093
:10FB9A00000E046E0A0E036E5CEC7AF001505A6E87
:10FBAA005A500A0DF350000854240001A76F5A5006
:10FBBA00100DF3500001A7254D6E4EC001F04FC045
:10FBCA0002F0000E046E0A0E036E5CEC7AF001502D
:10FBDA00586E58500A0DF35000084E240001A46FC5
:10FBEA005850100DF3500001A425496E56C001F07B
:10FBFA0057C002F0000E046E0A0E036E5CEC7AF037
:10FC0A0001505B6E5B500A0DF35000085624000148
:10FC1A00A86F5B50100DF3500001A825486E50C024
:10FC2A0001F051C002F0000E046E0A0E036E5CEC85
:10FC3A007AF00150596E59500A0DF35000085024B9
:10FC4A000001A66F5950100DF3500001A625476E0A
:10FC5A0052C0A5F052C046F04A0E016E000E026E66
:10FC6A00010E036EC2EC7BF0460E016E000E026EB0
:10FC7A00010E036E48EC7CF00F013F8F1200110E4B
:10FC8A001B6E000E1C6E17D1250E2318D8B409D08E
:10FC9A000DC0D9FF0EC0DAFF23C0DFFF0D4A0E2ABE
:10FCAA000AD1000E226E000E216E000E1D6E05D0C6
:10FCBA001D840F4A102A01D00BD00FC0F6FF10C0C6
:10FCCA00F7FF0800F550300AD8B4F2D701D0F5D7BB
:10FCDA000FC0F6FF10C0F7FF0800F550B4EC71F042
:10FCEA00D8A03AD0000E226E000E216E00D021C09C
:10FCFA0001F022C002F0000E046E0A0E036ED7EC69
:10FD0A0071F001C021F002C022F0D00E176EFF0E72
:10FD1A00186E0FC0F6FF10C0F7FF0800F550196EF5
:10FD2A001A6A1750192618501A22195021261A50E1
:10FD3A0022220F4A102A0FC0F6FF10C0F7FF080050
:10FD4A00F550B4EC71F0D8A007D0D1D705D0C1D006
:10FD5A00B2D0C00E1D1211D00FC0F6FF10C0F7FFAF
:10FD6A000F4A102A0800F5CF23F02350000AD8B40E
:10FD7A00B0D0750AD8B4EDD79ED01BC0D9FF1CC02D
:10FD8A00DAFFDECF1EF0DDCF1FF0020E1B26000EBB
:10FD9A001C22010E236E050E2318D8B416D001D0EA
:10FDAA0014D02350020DED0EF324F66EFE0EF4204D
:10FDBA00F76E0900F5501E5C0900F5501F58D8A0CF
:10FDCA0004D001D002D0232AE6D7800E23BE7F0EAC
:10FDDA00176E2150235C2250800A1758D8B007D0DA
:10FDEA002350215E000E23BEFF0E225A05D0000EBC
:10FDFA00226E000E216E00D01DA415D021502210B3
:10FE0A00D8B426D00DC0D9FF0EC0DAFF300EDF6E8F
:10FE1A000D4A0E2A2106D8A0220621502210D8B453
:10FE2A0017D0F0D715D021502210D8B411D00DC058
:10FE3A00D9FF0EC0DAFF200EDF6E0D4A0E2A210608
:10FE4A00D8A0220621502210D8B402D0F0D700D070
:10FE5A0023C020F02AD02050020DED0EF324F66EB6
:10FE6A00FE0EF420F76E0900F5CF03F00A00F5CF75
:10FE7A0004F01EC001F01FC002F03FEC76F001C092
:10FE8A0008F002C009F0000E0B6E0A0E0A6ED3ECDF
:10FE9A0074F00850300F236E0DC0D9FF0EC0DAFF80
:10FEAA0023C0DFFF0D4A0E2A00D020062028D8B42E
:10FEBA0002D0D1D700D00FC0F6FF10C0F7FF0F4A0B
:10FECA00102A0800F5CF23F02350D8B402D0DCD68C
:10FEDA0000D00DC0D9FF0EC0DAFF000EDF6E12008F
:10FEEA0012000001000A006400E8031027280C0130
:10FEFA0006496E6772657365206C61206665636882
:10FF0A006100496E67726573652073752050494EAA
:10FF1A003A00496E6772657365206C6120686F727A
:10FF2A006100253032752F253032752F2530327514
:10FF3A0000253032753A253032753A25303275004F
:10FF4A004E7565766F2050494E3A00566F6C756D46
:10FF5A00656E0043616D626961720041637469761E
:10FF6A0061720042656570203100544F4E4F3A313C
:10FF7A000042656570203200544F4E4F3A320056A7
:10FF8A004F4C3A4241004143543A534900564F4C70
:10FF9A003A414C004143543A4E4F00416C61726DF4
:10FFAA006100536972656E6100466563686100525B
:10FFBA00656C6F6A005265736574003132333400C0
:10FFCA00486F72610042616A6F00546F6E6F004140
:10FFDA006C746F0025303175005832380050696EE4
:0EFFEA00005369004E6F0020002A003E000008
:08FFF800AEF718FFF3F8FFF16A
:00000001FF
