:0400000093EF0DF07D
:100F00000001000A006400E8031027280C010655C0
:100F10004E494D494320205445434C41444F200005
:100F2000253031750023002A00410042004300446F
:100F30000000898089928994899680AA18D0010E30
:100F4000216E700E366E000E376E200E386E0F0E4C
:100F5000396E21C03AF03B6A06EC09F0700E326E31
:100F6000000E336EF9EC0CF000D080BAFED780AEE4
:100F700018D0020E216E700E366E000E376E200EE7
:100F8000386E0F0E396E21C03AF03B6A06EC09F05C
:100F9000700E326E000E336EF9EC0CF000D080BE95
:100FA000FED780AC18D0030E216E700E366E000E88
:100FB000376E200E386E0F0E396E21C03AF03B6A44
:100FC00006EC09F0700E326E000E336EF9EC0CF088
:100FD00000D080BCFED782A40BD00B0E216E290E50
:100FE000326E0F0E336EF9EC0CF000D082B4FED7E7
:100FF000899089828994899680AA18D0040E216EDE
:10100000700E366E000E376E200E386E0F0E396E73
:1010100021C03AF03B6A06EC09F0700E326E000E09
:10102000336EF9EC0CF000D080BAFED780AE18D049
:10103000050E216E700E366E000E376E200E386E65
:101040000F0E396E21C03AF03B6A06EC09F0700EC3
:10105000326E000E336EF9EC0CF000D080BEFED77D
:1010600080AC18D0060E216E700E366E000E376EF4
:10107000200E386E0F0E396E21C03AF03B6A06EC36
:1010800009F0700E326E000E336EF9EC0CF000D0E9
:1010900080BCFED782A40BD00C0E216E2B0E326EBC
:1010A0000F0E336EF9EC0CF000D082B4FED78990AD
:1010B00089928984899680AA18D0070E216E700EB5
:1010C000366E000E376E200E386E0F0E396E21C050
:1010D0003AF03B6A06EC09F0700E326E000E336E89
:1010E000F9EC0CF000D080BAFED780AE18D0080E14
:1010F000216E700E366E000E376E200E386E0F0E9B
:10110000396E21C03AF03B6A06EC09F0700E326E7F
:10111000000E336EF9EC0CF000D080BEFED780AC30
:1011200018D0090E216E700E366E000E376E200E2E
:10113000386E0F0E396E21C03AF03B6A06EC09F0AA
:10114000700E326E000E336EF9EC0CF000D080BCE5
:10115000FED782A40BD00D0E216E2D0E326E0F0E17
:10116000336EF9EC0CF000D082B4FED789908992EE
:101170008994898680AA0BD00E0E216E270E326EBE
:101180000F0E336EF9EC0CF000D080BAFED780AEB3
:1011900018D0000E216E700E366E000E376E200EC7
:1011A000386E0F0E396E21C03AF03B6A06EC09F03A
:1011B000700E326E000E336EF9EC0CF000D080BE73
:1011C000FED780AC0BD00F0E216E250E326E0F0EA7
:1011D000336EF9EC0CF000D080BCFED782A40DD0A9
:1011E000100E216E2F0E326E0F0E336EF9EC0CF0D6
:1011F00000D082A402D0FDD700D0FF0E496E8A0E27
:10120000E82EFED7492EFCD700D012003A0E406ED1
:10121000000E416E17D1250E4818D8B409D036C03B
:10122000D9FF37C0DAFF48C0DFFF364A372A0AD174
:10123000000E476E000E466E000E426E05D04284D0
:10124000384A392A01D00BD038C0F6FF39C0F7FF31
:101250000800F550300AD8B4F2D701D0F5D738C01D
:10126000F6FF39C0F7FF0800F55008EC0EF0D8A0E3
:101270003AD0000E476E000E466E00D046C02AF0EF
:1012800047C02BF0000E2D6E0A0E2C6ECEEC0DF02A
:101290002AC046F02BC047F0D00E3C6EFF0E3D6ECC
:1012A00038C0F6FF39C0F7FF0800F5503E6E3F6AC0
:1012B0003C503E263D503F223E5046263F5047225E
:1012C000384A392A38C0F6FF39C0F7FF0800F55010
:1012D00008EC0EF0D8A007D0D1D705D0C1D0B2D03D
:1012E000C00E421211D038C0F6FF39C0F7FF384A9D
:1012F000392A0800F5CF48F04850000AD8B4B0D0D9
:10130000750AD8B4EDD79ED040C0D9FF41C0DAFFEE
:10131000DECF43F0DDCF44F0020E4026000E412226
:10132000010E486E050E4818D8B416D001D014D05E
:101330004850020D010EF324F66E0F0EF420F76EE6
:101340000900F550435C0900F5504458D8A004D07A
:1013500001D002D0482AE6D7800E48BE7F0E3C6EF0
:101360004650485C4750800A3C58D8B007D0485097
:10137000465E000E48BEFF0E475A05D0000E476E6F
:10138000000E466E00D042A415D046504710D8B487
:1013900026D036C0D9FF37C0DAFF300EDF6E364AAE
:1013A000372A4606D8A0470646504710D8B417D06B
:1013B000F0D715D046504710D8B411D036C0D9FF59
:1013C00037C0DAFF200EDF6E364A372A4606D8A02D
:1013D000470646504710D8B402D0F0D700D048C0D6
:1013E00045F02AD04550020D010EF324F66E0F0E83
:1013F000F420F76E0900F5CF2CF00A00F5CF2DF0A0
:1014000043C02AF044C02BF0CBEC0CF02AC031F0E2
:101410002BC032F0000E346E0A0E336E23EC0DF04A
:101420003150300F486E36C0D9FF37C0DAFF48C0A0
:10143000DFFF364A372A00D045064528D8B402D007
:10144000D1D700D038C0F6FF39C0F7FF384A392A63
:101450000800F5CF48F04850D8B402D0DCD600D010
:1014600036C0D9FF37C0DAFF000EDF6E120012005F
:101470002CEC0EF0A3801FC02AF020C02BF0000E31
:101480002D6E0A0E2C6E05EC0CF02A50556E555040
:101490000A0DF35000081F24566E5550100DF350DE
:1014A0005624276E1DC02AF01EC02BF0000E2D6E94
:1014B0000A0E2C6E05EC0CF02A50536E53500A0D98
:1014C000F35000081D24546E5350100DF350542453
:1014D000286E15C02AF016C02BF0000E2D6E0A0ED5
:1014E0002C6E05EC0CF02A504F6E4F500A0DF35045
:1014F00000081524506E4F50100DF3505024296EE3
:1015000057C02AF058C02BF0000E2D6E0A0E2C6E1C
:1015100005EC0CF02A504A6E4A500A0DF3500008B0
:1015200057244B6E4A50100DF3504B24256E5BC070
:101530002AF05CC02BF0000E2D6E0A0E2C6E05EC0E
:101540000CF02A50516E51500A0DF35000085B24E4
:10155000526E5150100DF3505224246E59C02AF08F
:101560005AC02BF0000E2D6E0A0E2C6E05EC0CF0FE
:101570002A504D6E4D500A0DF350000859244E6EFE
:101580004D50100DF3504E24236E13C04CF013C079
:1015900022F0260E2A6E000E2B6E010E2C6E7FECB2
:1015A0000BF0220E2A6E000E2B6E010E2C6EDCEC60
:1015B0000AF00F013F8F1200000E2F6E20EE02F096
:1015C0002A50D9262B50DA22130EDF60120020EEAB
:1015D00002F02A50D9262B50DA22DF50D8B412005C
:1015E00020EE01F02A50D9262B50DA22320EDF608D
:1015F000120020EE01F02A50D9262B50DA22DF50BB
:10160000D8B4120020EE03F02A50D9262B50DA224B
:10161000990EDF6402D01200120020EE03F02A506F
:10162000D9262B50DA22DF50306E20EE01F02A50FE
:10163000D9262B50DA22DF50336E20EE02F02A50EA
:10164000D9262B50DA22DF50346E2C50D8B402D079
:10165000F29C00D0000E3FBB010E326E3250D8A477
:1016600003D02CEC0EF000D0000E3FBF010E2E6E0A
:101670002E50D8B407D0000E91BE010E2F6E0F0170
:101680003F9F00D0FC0E0F013F170F013F8198CF05
:1016900035F099CF36F02AC0D9FF2BC0DAFFDF50E2
:1016A000366EFC0E0F013F17030E0F013F1330C0C3
:1016B00098FF31C099FF33C098FF34C099FF35C0FF
:1016C00098FF36C099FF2E50D8B40DD00F013F8F30
:1016D0002F50D8B402D0918E00D03250D8B409D057
:1016E0002CEC0EF006D03250D8A403D00F013F9B53
:1016F00000D02C50D8B41200F29C12001200000E40
:101700002F6E20EE02F02A50D9262B50DA225A0EE4
:10171000DF60120020EE01F02A50D9262B50DA2289
:101720005A0EDF60120020EE03F02A50D9262B500B
:10173000DA22240EDF6402D01200120020EE02F042
:101740002A50D9262B50DA22DF50326E20EE01F0DB
:101750002A50D9262B50DA22DF50316E2C50D8B4C3
:1017600002D0F29C00D0000E3FBB010E306E305014
:10177000D8A403D02CEC0EF000D0000E3FBF010E19
:101780002E6E2E50D8B407D0000E91BE010E2F6ED3
:101790000F013F9F00D0FC0E0F013F170F013F814B
:1017A00098CF33F099CF34F020EE03F02A50D926A9
:1017B0002B50DA22DF50336EFC0E0F013F170F0162
:1017C0003F8133C098FF34C099FF31C098FF32C0C9
:1017D00099FF2E50D8B40DD00F013F8F2F50D8B4A1
:1017E00002D0918E00D03050D8B409D02CEC0EF03D
:1017F00006D03050D8A403D00F013F9B00D02C500E
:10180000D8B41200F28C12001200000E2F6E2DAE12
:1018100007D02C6C2D1ED8B02D2A010E2F6E00D0B3
:101820002BAE07D02A6C2B1ED8B02B2A010E2F1AF4
:1018300000D0000E316E000E306E2C502D10D8B43A
:1018400021D0010E2E6E05D0D8902C362D362E2AA2
:1018500000D02DBE02D0F8D700D0D8903036313627
:101860002C502A5C2D502B58D8A006D02C502A5E24
:101870002D502B5A308000D0D8902D322C322E2E65
:10188000ECD700D02F50D8B405D0306C311ED8B072
:10189000312A00D030C02AF031C02BF012001200E3
:1018A000939693948A968A949398939A939C939EF2
:1018B0000A0E23EC0EF00A0E23EC0EF00A0E23ECB7
:1018C0000EF0000E2E6E020E2E6401D008D0030E14
:1018D00090EC0CF00A0E23EC0EF02E2AF4D7020E38
:1018E00090EC0CF0000E2E6E030E2E6402D012004F
:1018F00012002E50010D0B0EF324F66E0F0EF42085
:10190000F76E0800F5CF2CF0000EB5EC0DF00A0EC6
:1019100023EC0EF02E2A030E2E64EBD712001200D9
:101920002B6E2BA003D02A6A2A2A01D02A6A2A3ACF
:101930008A502A18EF0B2A188A6E2BA203D02A6A23
:101940002A2A01D02A6A2A3A2A468A502A18DF0B04
:101950002A188A6E2BA403D02A6A2A2A01D02A6A5E
:101960002A3A2A462A468A502A18BF0B2A188A6E13
:101970002BA603D02A6A2A2A01D02A6A2A322A32BE
:101980008A502A187F0B2A188A6E00F08A8400F089
:1019900000F08A941200000E2F6E000E2E6E2C5056
:1019A0002D10D8B421D0010E306E05D0D8902C3631
:1019B0002D36302A00D02DBE02D0F8D700D0D890D6
:1019C0002E362F362C502A5C2D502B58D8A006D0FE
:1019D0002C502A5E2D502B5A2E8000D0D8902D32BC
:1019E0002C32302EECD700D02EC02AF02FC02BF096
:1019F000120015D032C0F6FF33C0F7FFF86A0E0EA2
:101A0000F76403D00800F55005D0F6CFE9FFF7CF13
:101A1000EAFFEF5049EC0DF0324A332A00D032C0D1
:101A2000F6FF33C0F7FFF86A0E0EF76403D0080024
:101A3000F55005D0F6CFE9FFF7CFEAFFEF500009E8
:101A4000D8A4D8D7120033503410D8B41DD0010E0A
:101A5000356E05D0D89033363436352A00D034BEB2
:101A600002D0F8D700D03350315C34503258D8A06F
:101A700005D03350315E3450325A00D0D8903432D1
:101A80003332352EF0D700D031C031F032C032F0D1
:101A90001200316E18D0010E2C6E000EB5EC0DF058
:101AA0001200020E2E6E010EF6EC0DF01200100E5A
:101AB0002C6E000EB5EC0DF0120031C02CF0010EB2
:101AC000B5EC0DF012003150080AD8B4F0D7020A74
:101AD000D8B4E7D7060AD8B4DED7EFD712009B8E6A
:101AE0009B9CD388D38AD38CD390D392F00E926EE2
:101AF000000E936E070E946E0F0148690F0149693D
:101B00002D0EC26E100EC16E0F013F8F0F013F8B65
:101B1000CD8638EC0AF050EC0CF00C0E3EEC0EF0DA
:101B20008A828A80120000EE60F0240EEE6AE806D7
:101B3000FDE15D6A00EE01F0290EEE6AE806FDE1C6
:101B40008A0EF66E1C0EF76E000EF86E00EE57F061
:101B500010EE06F00900F5CFEEFFE550E150FAE196
:101B6000000EF86E000119EF0EF02D6E8A96020E2F
:101B700035EC0EF09398939A939C939E2D50D8B485
:101B800002D08A8601D08A9600F02C380F0B90EC98
:101B90000CF02C500F0B90EC0CF012002A502C0281
:101BA000F3CF2EF0F4CF2FF02A502D02F3502F2632
:101BB0002B502C02F3502F262EC02AF02FC02BF0D2
:101BC000120012000C0E3EEC0EF0010E2E6E010EF5
:101BD000F6EC0DF00F0E326E0F0E336EF9EC0CF0CA
:101BE000020E2E6E010EF6EC0DF012002F6E2E047A
:101BF000D8B402D0400E01D0000E306E00D02F04B9
:101C00003026305080092C6E000EB5EC0DF012001D
:101C10002C6E000E2B6E3A0E2C6006D02F0E2C640C
:101C200003D0010E2B6E00D02BC02AF02A301200F8
:101C300012006FEC0DF0E2EC0DF000D099EC07F023
:101C4000FDD700EF00F02A6EFA0E00F0E82EFDD767
:101C50002A2EFAD712001200F29C550EA76EAA0E79
:101C6000A76E0F013F8BF28C12002A6E210EE82E18
:101C7000FED700F02A2EFAD7120012002E6E2EC0C8
:101C80002CF0000EB5EC0DF0120010000100010068
:08FFF800AEF718FFF3F8FFF16A
:00000001FF
