:0400000082EF10F08B
:100F00000001000A006400E8031027280C010649CC
:100F10006E67726573652073752050494E3A0025DF
:100F20003032752F253032752F253032750025303F
:100F300032753A253032753A2530327500566F6C6D
:100F4000756D656E0043616D626961720041637425
:100F50006976617200416C61726D6100466563681B
:100F6000610052656C6F6A005265736574003132BE
:100F7000333400486F726100546F6E6F002530315A
:100F800075005832380050696E005349004E4F00CA
:100F900020002A003E000000380E426E000E436E14
:100FA00017D1250E4A18D8B409D034C0D9FF35C09E
:100FB000DAFF4AC0DFFF344A352A0AD1000E496EF3
:100FC000000E486E000E446E05D04484364A372A1F
:100FD00001D00BD036C0F6FF37C0F7FF0800F55040
:100FE000300AD8B4F2D701D0F5D736C0F6FF37C0F3
:100FF000F7FF0800F55065EC11F0D8A03AD0000ECC
:10100000496E000E486E00D048C028F049C029F053
:10101000000E2B6E0A0E2A6E2DEC11F028C048F03F
:1010200029C049F0D00E3E6EFF0E3F6E36C0F6FF6F
:1010300037C0F7FF0800F550406E416A3E50402629
:101040003F5041224050482641504922364A372AD3
:1010500036C0F6FF37C0F7FF0800F55065EC11F019
:10106000D8A007D0D1D705D0C1D0B2D0C00E44127D
:1010700011D036C0F6FF37C0F7FF364A372A0800CE
:10108000F5CF4AF04A50000AD8B4B0D0750AD8B4A7
:10109000EDD79ED042C0D9FF43C0DAFFDECF45F086
:1010A000DDCF46F0020E4226000E4322010E4A6EAC
:1010B000050E4A18D8B416D001D014D04A50020DEB
:1010C000010EF324F66E0F0EF420F76E0900F550B2
:1010D000455C0900F5504658D8A004D001D002D094
:1010E0004A2AE6D7800E4ABE7F0E3E6E48504A5CC2
:1010F0004950800A3E58D8B007D04A50485E000E8A
:101100004ABEFF0E495A05D0000E496E000E486EC9
:1011100000D044A415D048504910D8B426D034C0CB
:10112000D9FF35C0DAFF300EDF6E344A352A480663
:10113000D8A0490648504910D8B417D0F0D715D0D8
:1011400048504910D8B411D034C0D9FF35C0DAFFA7
:10115000200EDF6E344A352A4806D8A0490648508A
:101160004910D8B402D0F0D700D04AC047F02AD0F6
:101170004750020D010EF324F66E0F0EF420F76EA9
:101180000900F5CF2AF00A00F5CF2BF045C028F072
:1011900046C029F0B5EC0FF028C02FF029C030F080
:1011A000000E326E0A0E316E36EC10F02F50300FFA
:1011B0004A6E34C0D9FF35C0DAFF4AC0DFFF344A77
:1011C000352A00D047064728D8B402D0D1D700D05E
:1011D00036C0F6FF37C0F7FF364A372A0800F5CF8A
:1011E0004AF04A50D8B402D0DCD600D034C0D9FF7F
:1011F00035C0DAFF000EDF6E1200120094D0000E30
:10120000336E010E326E000E356E010E346E940E8A
:10121000366E0F0E376E82EC11F0000E126E020E5B
:10122000116E000E106E010E0F6E000E336E090E61
:10123000326E000E356E020E346E900E366E0F0E4C
:10124000376E82EC11F01200000E336E010E326E1A
:10125000000E356E020E346E940E366E0F0E376E23
:1012600082EC11F0000E126E030E116E000E106E65
:10127000020E0F6E000E336E010E326E000E356ED2
:10128000010E346E900E366E0F0E376E82EC11F03A
:101290001200000E336E090E326E000E356E010E16
:1012A000346E940E366E0F0E376E82EC11F0000E17
:1012B000126E040E116E000E106E030E0F6E000EF5
:1012C000336E010E326E000E356E020E346E900ECD
:1012D000366E0F0E376E82EC11F01200000E336E78
:1012E000090E326E000E356E020E346E940E366E9E
:1012F0000F0E376E82EC11F0000E126E010E116EA1
:10130000000E106E040E0F6E000E336E090E326E5C
:10131000000E356E010E346E900E366E0F0E376E67
:1013200082EC11F0120011C038F012C039F03950BF
:10133000000AD8A412003850010AD8B460D7030AB2
:10134000D8B482D7010AD8B4A4D7070AD8A4120007
:10135000C5D71200898089928994899680AA07D07E
:10136000010E1F6EA4EC10F000D080BAFED780AE44
:1013700007D0020E1F6EA4EC10F000D080BEFED786
:1013800080AC07D0030E1F6EA4EC10F000D080BC20
:10139000FED782A407D00B0E1F6EC4EC10F000D055
:1013A00082B4FED7899089828994899680AA07D0D1
:1013B000040E1F6EA4EC10F000D080BAFED780AEF1
:1013C00007D0050E1F6EA4EC10F000D080BEFED733
:1013D00080AC07D0060E1F6EA4EC10F000D080BCCD
:1013E000FED782A407D00C0E1F6E0DEC10F000D0BB
:1013F00082B4FED7899089928984899680AA07D081
:10140000070E1F6EA4EC10F000D080BAFED780AE9D
:1014100007D0080E1F6EA4EC10F000D080BEFED7DF
:1014200080AC07D0090E1F6EA4EC10F000D080BC79
:10143000FED782A407D00D0E1F6E76EC11F000D0FF
:1014400082B4FED7899089928994898680AA07D030
:101450000E0E1F6EB8EC11F000D080BAFED780AE31
:1014600007D0000E1F6EA4EC10F000D080BEFED797
:1014700080AC07D00F0E1F6EA9EC11F000D080BC1D
:10148000FED782A409D0100E1F6ECBEC11F000D055
:1014900082A402D0FDD700D0FF0E4B6E8A0EE82E3C
:1014A000FED74B2EFCD700D012008EEC11F0A3809B
:1014B00019C028F01AC029F0000E2B6E0A0E2A6EF1
:1014C000F1EC0CF028505D6E5D500A0DF3500008F1
:1014D00019245E6E5D50100DF3505E24256E13C00E
:1014E00028F014C029F0000E2B6E0A0E2A6EF1ECC3
:1014F0000CF028505B6E5B500A0DF350000813246B
:101500005C6E5B50100DF3505C24266E52C028F0C8
:1015100053C029F0000E2B6E0A0E2A6EF1EC0CF06F
:101520002850586E58500A0DF35000085224596E36
:101530005850100DF3505924276E4CC028F04DC060
:1015400029F0000E2B6E0A0E2A6EF1EC0CF02850DA
:10155000566E56500A0DF35000084C240001906F4F
:101560005650100DF35000019025236E54C028F002
:1015700055C029F0000E2B6E0A0E2A6EF1EC0CF00D
:1015800028505A6E5A500A0DF35000085424000196
:10159000936F5A50100DF35000019325226E4EC0E8
:1015A00028F04FC029F0000E2B6E0A0E2A6EF1ECC7
:1015B0000CF02850576E57500A0DF35000084E2477
:1015C0000001926F5750100DF35000019225216ECB
:1015D00050C091F050C020F0240E286E000E296EED
:1015E000010E2A6EA2EC0BF0200E286E000E296E62
:1015F000010E2A6EFFEC0AF00F013F8F1200000E61
:101600002D6E20EE02F02850D9262950DA22130E32
:10161000DF60120020EE02F02850D9262950DA228D
:10162000DF50D8B4120020EE01F02850D9262950FE
:10163000DA22320EDF60120020EE01F02850D926A7
:101640002950DA22DF50D8B4120020EE03F02850DF
:10165000D9262950DA22990EDF6402D01200120036
:1016600020EE03F02850D9262950DA22DF502E6EC2
:1016700020EE01F02850D9262950DA22DF50316EB1
:1016800020EE02F02850D9262950DA22DF50326E9F
:101690002A50D8B402D0F29C00D0000E3FBB010EFD
:1016A000306E3050D8A403D08EEC11F000D0000E74
:1016B0003FBF010E2C6E2C50D8B407D0000E91BE47
:1016C000010E2D6E0F013F9F00D0FC0E0F013F1742
:1016D0000F013F8198CF33F099CF34F028C0D9FF64
:1016E00029C0DAFFDF50346EFC0E0F013F17030EE6
:1016F0000F013F132EC098FF2FC099FF31C098FFF4
:1017000032C099FF33C098FF34C099FF2C50D8B431
:101710000DD00F013F8F2D50D8B402D0918E00D044
:101720003050D8B409D08EEC11F006D03050D8A487
:1017300003D00F013F9B00D02A50D8B41200F29C76
:1017400012001200000E2D6E20EE02F02850D92655
:101750002950DA225A0EDF60120020EE01F02850E4
:10176000D9262950DA225A0EDF60120020EE03F04B
:101770002850D9262950DA22240EDF6402D0120024
:10178000120020EE02F02850D9262950DA22DF502C
:10179000306E20EE01F02850D9262950DA22DF5091
:1017A0002F6E2A50D8B402D0F29C00D0000E3FBB5E
:1017B000010E2E6E2E50D8A403D08EEC11F000D066
:1017C000000E3FBF010E2C6E2C50D8B407D0000E77
:1017D00091BE010E2D6E0F013F9F00D0FC0E0F0138
:1017E0003F170F013F8198CF31F099CF32F020EEB3
:1017F00003F02850D9262950DA22DF50316EFC0E32
:101800000F013F170F013F8131C098FF32C099FF90
:101810002FC098FF30C099FF2C50D8B40DD00F01C5
:101820003F8F2D50D8B402D0918E00D02E50D8B416
:1018300009D08EEC11F006D02E50D8A403D00F01A1
:101840003F9B00D02A50D8B41200F28C1200120034
:10185000240E286E000E296E86EC0EF025500F0B1C
:101860005E6E25380F0B0F0B5D6E26500F0B5C6EF6
:1018700026380F0B0F0B5B6E27500F0B596E273856
:101880000F0B0F0B586E200E286E000E296E85EC84
:101890000DF021500F0B0001926F21380F0B0F0B31
:1018A000576E22500F0B0001936F22380F0B0F0B56
:1018B0005A6E20C091F023500F0B0001906F233817
:1018C0000F0B0F0B566E5D500A0D5E50F324196E10
:1018D000000EF4201A6E5B500A0D5C50F324136E58
:1018E000000EF420146E58500A0D5950F324526E15
:1018F000000EF420536E57500A0D00019251F3244C
:101900004E6E0001000EF4204F6E91C050F0516AEF
:101910005A500A0D00019351F324546E0001000E39
:10192000F420556E56500A0D00019051F3244C6E70
:101930000001000EF4204D6E120042D0000E336EF6
:10194000090E326E000E356E010E346E940E366E38
:101950000F0E376E82EC11F0000E1E6E020E1D6E21
:10196000000E336E090E326E000E356E020E346EAE
:10197000900E366E0F0E376E82EC11F01200000ED4
:10198000336E090E326E000E356E020E346E940EFA
:10199000366E0F0E376E82EC11F0000E1E6E010EC9
:1019A0001D6E000E336E090E326E000E356E010E86
:1019B000346E900E366E0F0E376E82EC11F0120000
:1019C0001DC038F01EC039F03950000AD8A41200EA
:1019D0003850010AD8B4B2D7030AD8A41200CFD71E
:1019E0001200000E2D6E2BAE07D02A6C2B1ED8B025
:1019F0002B2A010E2D6E00D029AE07D0286C291E8F
:101A0000D8B0292A010E2D1A00D0000E2F6E000E1C
:101A10002E6E2A502B10D8B421D0010E2C6E05D07A
:101A2000D8902A362B362C2A00D02BBE02D0F8D7DD
:101A300000D0D8902E362F362A50285C2B502958AB
:101A4000D8A006D02A50285E2B50295A2E8000D0CC
:101A5000D8902B322A322C2EECD700D02D50D8B46F
:101A600005D02E6C2F1ED8B02F2A00D02EC028F003
:101A70002FC029F0120012007C0E346E000E356E5D
:101A80001F0E366E0F0E376E4EC038F04FC039F055
:101A900054C03AF055C03BF04CC03CF04DC03DF056
:101AA000CCEC07F0000E336E090E326E000E356E70
:101AB000010E346E7C0E366E000E376E82EC11F025
:101AC0007C0E346E000E356E2E0E366E0F0E376E97
:101AD00052C038F053C039F013C03AF014C03BF094
:101AE00019C03CF01AC03DF0CCEC07F0000E336E8C
:101AF000090E326E000E356E020E346E7C0E366E9E
:101B0000000E376E82EC11F01200FC0E0F013F1731
:101B1000030E0F013F1398CF32F099CF33F098CFD7
:101B200034F099CF35F098CF36F099CF37F0FC0EDE
:101B30000F013F17030E0F013F1398CF2AF099CFE3
:101B40002BF098CF2CF099CF2DF098CF2EF099CF85
:101B50002FF02C503418D8A4D8D720EE01F02850FC
:101B6000D9262950DA2234C0DFFF20EE02F02850B7
:101B7000D9262950DA2235C0DFFF28C0D9FF29C075
:101B8000DAFF37C0DFFF20EE03F02850D9262950B6
:101B9000DA2232C0DFFF1200939693948A968A94D9
:101BA0009398939A939C939E0A0E97EC11F00A0EC9
:101BB00097EC11F00A0E97EC11F0000E2C6E020E4D
:101BC0002C6401D008D0030E4BEC0EF00A0E97ECFB
:101BD00011F02C2AF4D7020E4BEC0EF0000E2C6EF6
:101BE000030E2C6402D0120012002C50010D0B0EBB
:101BF000F324F66E0F0EF420F76E0800F5CF2AF0EE
:101C0000000EFFEC10F00A0E97EC11F02C2A030ED8
:101C10002C64EBD712001200000E046E020E036E4D
:101C2000CCEC0DF0000E336E020E326E000E356EEF
:101C3000010E346E4D0E366E0F0E376E82EC11F0C3
:101C4000000E336E020E326E000E356E020E346ED2
:101C5000620E366E0F0E376E82EC11F0000E336E90
:101C60000A0E326E000E356E010E346E860E366E22
:101C70000F0E376E82EC11F0000E336E0A0E326ECC
:101C8000000E356E020E346E550E366E0F0E376E28
:101C900082EC11F01200296E29A003D0286A282AAC
:101CA00001D0286A283A8A502818EF0B28188A6E23
:101CB00029A203D0286A282A01D0286A283A28466F
:101CC0008A502818DF0B28188A6E29A403D0286AA6
:101CD000282A01D0286A283A284628468A502818F7
:101CE000BF0B28188A6E29A603D0286A282A01D09B
:101CF000286A283228328A5028187F0B28188A6EC2
:101D000000F08A8400F000F08A941200FC0E0F01AB
:101D10003F170F013F8198CF36F099CF37F098CF1A
:101D200038F099CF39F0FC0E0F013F170F013F81BA
:101D300098CF2EF099CF2FF098CF30F099CF31F087
:101D400030503818D8A4E2D720EE03F02850D92616
:101D50002950DA2236C0DFFF20EE02F02850D926C3
:101D60002950DA2239C0DFFF20EE01F02850D926B1
:101D70002950DA2238C0DFFF12009B8E9B9CD3884B
:101D8000D38AD38CD390D392F00E926E000E936EC2
:101D9000070E946E0F0148690F0149692D0EC26E3E
:101DA000100EC16E0F013F8F0F013F8BCD8655EC9A
:101DB0000AF0CCEC0DF00C0EBFEC11F08A828A8098
:101DC000000E106E010E0F6E000E126E010E116EDF
:101DD000000E1E6E010E1D6E6E0E156E0F0E166E2F
:101DE0001200000E046E050E036ECCEC0DF0000E1A
:101DF000336E010E326E000E356E010E346E860E9D
:101E0000366E0F0E376E82EC11F0000E336E0A0E36
:101E1000326E000E356E010E346E450E366E0F0EAC
:101E2000376E82EC11F0000E336E0A0E326E000E29
:101E3000356E020E346E680E366E0F0E376E82EC03
:101E400011F01200000E046E030E036ECCEC0DF0C8
:101E5000000E336E010E326E000E356E010E346EC2
:101E6000620E366E0F0E376E82EC11F0000E336E7E
:101E70000A0E326E000E356E010E346E5C0E366E3A
:101E80000F0E376E82EC11F0000E336E0A0E326EBA
:101E9000000E356E020E346E730E366E0F0E376EF8
:101EA00082EC11F01200000E046E060E036ECCECF4
:101EB0000DF0000E336E010E326E000E356E010E07
:101EC000346E550E366E0F0E376E82EC11F0000E2A
:101ED000336E0A0E326E000E356E010E346E3D0EFC
:101EE000366E0F0E376E82EC11F0000E336E0A0E56
:101EF000326E000E356E020E346E780E366E0F0E98
:101F0000376E82EC11F01200000E046E040E036EA8
:101F1000CCEC0DF0000E336E010E326E000E356EFD
:101F2000010E346E4D0E366E0F0E376E82EC11F0D0
:101F3000000E336E0A0E326E000E356E010E346ED8
:101F40008A0E366E0F0E376E82EC11F0000E336E75
:101F50000A0E326E000E356E020E346E8D0E366E27
:101F60000F0E376E82EC11F01200000E2D6E000E77
:101F70002C6E2A502B10D8B421D0010E2E6E05D015
:101F8000D8902A362B362E2A00D02BBE02D0F8D776
:101F900000D0D8902C362D362A50285C2B5029584A
:101FA000D8A006D02A50285E2B50295A2C8000D069
:101FB000D8902B322A322E2EECD700D02CC028F00D
:101FC0002DC029F0120015D030C0F6FF31C0F7FF48
:101FD000F86A0E0EF76403D00800F55005D0F6CF6E
:101FE000E9FFF7CFEAFFEF505CEC10F0304A312AFE
:101FF00000D030C0F6FF31C0F7FFF86A0E0EF7646C
:1020000003D00800F55005D0F6CFE9FFF7CFEAFF7F
:10201000EF500009D8A4D8D71200020E03180410FC
:10202000D8A412000CD084EC0FF0120022EC0FF0B8
:102030001200F1EC0EF0120053EC0FF012000FC082
:1020400038F010C039F03950000AD8A412003850C6
:10205000010AD8B4E8D7030AD8B4E8D7010AD8B43B
:10206000E8D7070AD8B4E8D712001200315032106E
:10207000D8B41DD0010E336E05D0D890313632362B
:10208000332A00D032BE02D0F8D700D031502F5CB6
:1020900032503058D8A005D031502F5E3250305ACF
:1020A00000D0D89032323132332EF0D700D02FC04A
:1020B0002FF030C030F012002F6E18D0010E2A6EB3
:1020C000000EFFEC10F01200020E2C6E010E53EC0D
:1020D00011F01200100E2A6E000EFFEC10F012002C
:1020E0002FC02AF0010EFFEC10F012002F50080A4A
:1020F000D8B4F0D7020AD8B4E7D7060AD8B4DED7E6
:10210000EFD7120000EE60F0300EEE6AE806FDE157
:102110005F6A00EE01F0270EEE6AE806FDE18C0E24
:10212000F66E230EF76E000EF86E00EE4CF010EE19
:102130000AF00900F5CFEEFFE550E150FAE1000E9C
:10214000F86E000141EF11F003040410D8A407D089
:10215000920E306E0F0E316EE3EC0FF012007C0E1B
:10216000346E000E356E7D0E366E0F0E376E1FC04C
:1021700038F0396ACCEC07F07C0E306E000E316E10
:10218000E3EC0FF01200120009D0E2EC10F01200A4
:10219000FEEC08F012009DEC0CF0120003C03AF0C7
:1021A00004C03BF03B50000AD8A4F5D73A50000ACF
:1021B000D8B4EBD7010AD8B41200030AD8B4E8D7D0
:1021C000EAD71200000E046E010E036ECCEC0DF087
:1021D000000E336E010E326E000E356E010E346E3F
:1021E0000F0E366E0F0E376E82EC11F0020E2C6E53
:1021F000010E53EC11F00F0EBFEC11F012002B6E1C
:102200008A96020EA0EC11F09398939A939C939E59
:102210002B50D8B402D08A8601D08A9600F02A3892
:102220000F0B4BEC0EF02A500F0B4BEC0EF0120084
:10223000000E046E000E036ECCEC0DF0000E336E3B
:10224000010E326E000E356E010E346E820E366E49
:102250000F0E376E82EC11F0120028502A02F3CFD5
:102260002CF0F4CF2DF028502B02F3502D262950BE
:102270002A02F3502D262CC028F02DC029F0120080
:102280001200BDEC0EF018EC11F000D028EC0CF0B0
:10229000AAEC09F003500410D8A4F8D73CEC0DF0D8
:1022A000F5D700EF00F02D6E2C04D8B402D0400E0C
:1022B00001D0000E2E6E00D02D042E262E50800947
:1022C0002A6E000EFFEC10F012002A6E000E296E2E
:1022D0003A0E2A6006D02F0E2A6403D0010E296E12
:1022E00000D029C028F0283012001200035004103A
:1022F000D8B4120003040410D8B412000CEC0EF091
:102300001200120034C02CF0325053EC11F036C0E1
:1023100030F037C031F0E3EC0FF01200F29C550EB4
:10232000A76EAA0EA76E0F013F8BF28C1200286ECB
:10233000FA0E00F0E82EFDD7282EFAD71200120070
:10234000286E210EE82EFED700F0282EFAD71200B4
:10235000120003040410D8A41200B1EC11F0120012
:1023600012000CEC0EF01200E2EC10F01200120061
:10237000920E306E0F0E316EE3EC0FF012002C6EE9
:102380002CC02AF0000EFFEC10F012001000060026
:0C23900002001200090018EC11F012000D
:08FFF800AEF718FFF3F8FFF16A
:00000001FF
