:0400000022EF11F0EA
:100F00000001000A006400E8031027280C010649CC
:100F10006E67726573652073752050494E3A0025DF
:100F20003032752F253032752F253032750025303F
:100F300032753A253032753A2530327500566F6C6D
:100F4000756D656E0043616D626961720041637425
:100F50006976617200416C61726D6100466563681B
:100F6000610052656C6F6A005265736574003132BE
:100F7000333400486F726100546F6E6F002530315A
:100F800075005832380050696E005349004E4F00CA
:100F900020002A003E000000110E1B6E000E1C6E89
:100FA00017D1250E2318D8B409D00DC0D9FF0EC013
:100FB000DAFF23C0DFFF0D4A0E2A0AD1000E226E8F
:100FC000000E216E000E1D6E05D01D840F4A102AE2
:100FD00001D00BD00FC0F6FF10C0F7FF0800F5508E
:100FE000300AD8B4F2D701D0F5D70FC0F6FF10C041
:100FF000F7FF0800F550FAEC11F0D8A03AD0000E37
:10100000226E000E216E00D021C001F022C002F03D
:10101000000E046E0A0E036EC2EC11F001C021F046
:1010200002C022F0D00E176EFF0E186E0FC0F6FF32
:1010300010C0F7FF0800F550196E1A6A17501926EC
:1010400018501A22195021261A5022220F4A102A0B
:101050000FC0F6FF10C0F7FF0800F550FAEC11F0D2
:10106000D8A007D0D1D705D0C1D0B2D0C00E1D12A4
:1010700011D00FC0F6FF10C0F7FF0F4A102A08006A
:10108000F5CF23F02350000AD8B4B0D0750AD8B4F5
:10109000EDD79ED01BC0D9FF1CC0DAFFDECF1EF0FB
:1010A000DDCF1FF0020E1B26000E1C22010E236E48
:1010B000050E2318D8B416D001D014D02350020D39
:1010C000010EF324F66E0F0EF420F76E0900F550B2
:1010D0001E5C0900F5501F58D8A004D001D002D0E2
:1010E000232AE6D7800E23BE7F0E176E2150235C85
:1010F0002250800A1758D8B007D02350215E000E26
:1011000023BEFF0E225A05D0000E226E000E216E65
:1011100000D01DA415D021502210D8B426D00DC067
:10112000D9FF0EC0DAFF300EDF6E0D4A0E2A2106FF
:10113000D8A0220621502210D8B417D0F0D715D04D
:1011400021502210D8B411D00DC0D9FF0EC0DAFF43
:10115000200EDF6E0D4A0E2A2106D8A0220621504D
:101160002210D8B402D0F0D700D023C020F02AD06B
:101170002050020D010EF324F66E0F0EF420F76ED0
:101180000900F5CF03F00A00F5CF04F01EC001F00E
:101190001FC002F0E3EC0FF001C008F002C009F03C
:1011A000000E0B6E0A0E0A6EB2EC10F00850300FF3
:1011B000236E0DC0D9FF0EC0DAFF23C0DFFF0D4A3A
:1011C0000E2A00D020062028D8B402D0D1D700D0D3
:1011D0000FC0F6FF10C0F7FF0F4A102A0800F5CF26
:1011E00023F02350D8B402D0DCD600D00DC0D9FFF4
:1011F0000EC0DAFF000EDF6E1200120094D0000E57
:101200000C6E010E0B6E000E0E6E010E0D6E940E26
:101210000F6E0F0E106E17EC12F0000E366E020EEF
:10122000356E000E346E010E336E000E0C6E090E1C
:101230000B6E000E0E6E020E0D6E900E0F6E0F0EE8
:10124000106E17EC12F01200000E0C6E010E0B6EF9
:10125000000E0E6E020E0D6E940E0F6E0F0E106EBF
:1012600017EC12F0000E366E030E356E000E346E63
:10127000020E336E000E0C6E010E0B6E000E0E6E23
:10128000010E0D6E900E0F6E0F0E106E17EC12F019
:101290001200000E0C6E090E0B6E000E0E6E010E8B
:1012A0000D6E940E0F6E0F0E106E17EC12F0000EF6
:1012B000366E040E356E000E346E030E336E000E65
:1012C0000C6E010E0B6E000E0E6E020E0D6E900E69
:1012D0000F6E0F0E106E17EC12F01200000E0C6E57
:1012E000090E0B6E000E0E6E020E0D6E940E0F6E3A
:1012F0000F0E106E17EC12F0000E366E010E356EEA
:10130000000E346E040E336E000E0C6E090E0B6E62
:10131000000E0E6E010E0D6E900E0F6E0F0E106E03
:1013200017EC12F0120035C011F036C012F0125056
:10133000000AD8A412001150010AD8B460D7030AD9
:10134000D8B482D7010AD8B4A4D7070AD8A4120007
:10135000C5D71200898089928994899680AA07D07E
:10136000010E3F6EB1EC0EF000D080BAFED780AE19
:1013700007D0020E3F6EB1EC0EF000D080BEFED75B
:1013800080AC07D0030E3F6EB1EC0EF000D080BCF5
:10139000FED782A407D00B0E3F6E44EC11F000D0B4
:1013A00082B4FED7899089828994899680AA07D0D1
:1013B000040E3F6EB1EC0EF000D080BAFED780AEC6
:1013C00007D0050E3F6EB1EC0EF000D080BEFED708
:1013D00080AC07D0060E3F6EB1EC0EF000D080BCA2
:1013E000FED782A407D00C0E3F6E3BEC10F000D06D
:1013F00082B4FED7899089928984899680AA07D081
:10140000070E3F6EB1EC0EF000D080BAFED780AE72
:1014100007D0080E3F6EB1EC0EF000D080BEFED7B4
:1014200080AC07D0090E3F6EB1EC0EF000D080BC4E
:10143000FED782A407D00D0E3F6E0BEC12F000D049
:1014400082B4FED7899089928994898680AA07D030
:101450000E0E3F6E46EC12F000D080BAFED780AE82
:1014600007D0000E3F6EB1EC0EF000D080BEFED76C
:1014700080AC07D00F0E3F6E3EEC12F000D080BC67
:10148000FED782A409D0100E3F6E59EC12F000D0A6
:1014900082A402D0FDD700D0FF0E246E8A0EE82E63
:1014A000FED7242EFCD700D0120023EC12F0A3802C
:1014B00039C001F03AC002F0000E046E0A0E036E4D
:1014C000E2EC0CF00150536E53500A0DF35000083B
:1014D0003924546E5350100DF3505424456E37C0C8
:1014E00001F038C002F0000E046E0A0E036EE2EC4A
:1014F0000CF00150516E51500A0DF3500008372482
:10150000526E5150100DF3505224466E5BC001F0E4
:101510005CC002F0000E046E0A0E036EE2EC0CF0EA
:1015200001504D6E4D500A0DF35000085B244E6E75
:101530004D50100DF3504E24476E55C001F056C06B
:1015400002F0000E046E0A0E036EE2EC0CF0015085
:10155000486E48500A0DF35000085524496E485013
:10156000100DF3504924436E5DC001F05EC002F0DF
:10157000000E046E0A0E036EE2EC0CF001504F6E8A
:101580004F500A0DF35000085D24506E4F50100D5F
:10159000F3505024426E57C001F058C002F0000EC4
:1015A000046E0A0E036EE2EC0CF001504B6E4B50D1
:1015B0000A0DF350000857244C6E4B50100DF35099
:1015C0004C24416E59C04AF059C040F0440E016E9F
:1015D000000E026E010E036E9CEC0BF0400E016ECD
:1015E000000E026E010E036EF9EC0AF00F013F8F40
:1015F0001200000E066E20EE02F00150D9260250B5
:10160000DA22130EDF60120020EE02F00150D9261C
:101610000250DA22DF50D8B4120020EE01F001505F
:10162000D9260250DA22320EDF60120020EE01F0DD
:101630000150D9260250DA22DF50D8B4120020EE31
:1016400003F00150D9260250DA22990EDF6402D04D
:101650001200120020EE03F00150D9260250DA22C7
:10166000DF50076E20EE01F00150D9260250DA2239
:10167000DF500A6E20EE02F00150D9260250DA2225
:10168000DF500B6E0350D8B402D0F29C00D0000E95
:101690003FBB010E096E0950D8A403D023EC12F011
:1016A00000D0000E3FBF010E056E0550D8B407D024
:1016B000000E91BE010E066E0F013F9F00D0FC0E82
:1016C0000F013F170F013F8198CF0CF099CF0DF01C
:1016D00001C0D9FF02C0DAFFDF500D6EFC0E0F0112
:1016E0003F17030E0F013F1307C098FF08C099FF73
:1016F0000AC098FF0BC099FF0CC098FF0DC099FF5E
:101700000550D8B40DD00F013F8F0650D8B402D089
:10171000918E00D00950D8B409D023EC12F006D035
:101720000950D8A403D00F013F9B00D00350D8B478
:101730001200F29C12001200000E066E20EE02F063
:101740000150D9260250DA225A0EDF60120020EE34
:1017500001F00150D9260250DA225A0EDF60120041
:1017600020EE03F00150D9260250DA22240EDF6465
:1017700002D01200120020EE02F00150D9260250D1
:10178000DA22DF50096E20EE01F00150D926025016
:10179000DA22DF50086E0350D8B402D0F29C00D099
:1017A000000E3FBB010E076E0750D8A403D023ECF8
:1017B00012F000D0000E3FBF010E056E0550D8B4E8
:1017C00007D0000E91BE010E066E0F013F9F00D0A4
:1017D000FC0E0F013F170F013F8198CF0AF099CF00
:1017E0000BF020EE03F00150D9260250DA22DF5030
:1017F0000A6EFC0E0F013F170F013F810AC098FFD0
:101800000BC099FF08C098FF09C099FF0550D8B4D4
:101810000DD00F013F8F0650D8B402D0918E00D06A
:101820000750D8B409D023EC12F006D00750D8A442
:1018300003D00F013F9B00D00350D8B41200F28CAC
:1018400012001200440E016E000E026EE8EC0EF063
:1018500045500F0B546E45380F0B0F0B536E46500F
:101860000F0B526E46380F0B0F0B516E47500F0B7C
:101870004E6E47380F0B0F0B4D6E400E016E000E73
:10188000026E76EC0DF041500F0B4C6E41380F0B91
:101890000F0B4B6E42500F0B506E42380F0B0F0B5D
:1018A0004F6E40C04AF043500F0B496E43380F0B48
:1018B0000F0B486E53500A0D5450F324396E000E2E
:1018C000F4203A6E51500A0D5250F324376E000E38
:1018D000F420386E4D500A0D4E50F3245B6E000E0E
:1018E000F4205C6E4B500A0D4C50F324576E000EE2
:1018F000F420586E4AC059F05A6A4F500A0D5050A1
:10190000F3245D6E000EF4205E6E48500A0D4950BF
:10191000F324556E000EF420566E120042D0000ED5
:101920000C6E090E0B6E000E0E6E010E0D6E940EF7
:101930000F6E0F0E106E17EC12F0000E3E6E020EC0
:101940003D6E000E0C6E090E0B6E000E0E6E020E3A
:101950000D6E900E0F6E0F0E106E17EC12F012003F
:10196000000E0C6E090E0B6E000E0E6E020E0D6E4A
:10197000940E0F6E0F0E106E17EC12F0000E3E6EEE
:10198000010E3D6E000E0C6E090E0B6E000E0E6EFB
:10199000010E0D6E900E0F6E0F0E106E17EC12F002
:1019A00012003DC011F03EC012F01250000AD8A43F
:1019B00012001150010AD8B4B2D7030AD8A41200F9
:1019C000CFD71200000E066E04AE07D0036C041EC3
:1019D000D8B0042A010E066E00D002AE07D0016C0A
:1019E000021ED8B0022A010E061A00D0000E086EA0
:1019F000000E076E03500410D8B421D0010E056EFE
:101A000005D0D89003360436052A00D004BE02D093
:101A1000F8D700D0D890073608360350015C045040
:101A20000258D8A006D00350015E0450025A078025
:101A300000D0D89004320332052EECD700D00650E7
:101A4000D8B405D0076C081ED8B0082A00D007C04B
:101A500001F008C002F0120012007C0E0D6E000EA4
:101A60000E6E1F0E0F6E0F0E106E57C011F058C085
:101A700012F05DC013F05EC014F055C015F056C0F2
:101A800016F0CCEC07F0000E0C6E090E0B6E000E7B
:101A90000E6E010E0D6E7C0E0F6E000E106E17ECAA
:101AA00012F07C0E0D6E000E0E6E2E0E0F6E0F0ECF
:101AB000106E5BC011F05CC012F037C013F038C07C
:101AC00014F039C015F03AC016F0CCEC07F0000E57
:101AD0000C6E090E0B6E000E0E6E020E0D6E7C0E5D
:101AE0000F6E000E106E17EC12F01200FC0E0F01BC
:101AF0003F17030E0F013F1398CF0BF099CF0CF057
:101B000098CF0DF099CF0EF098CF0FF099CF10F03D
:101B1000FC0E0F013F17030E0F013F1398CF03F088
:101B200099CF04F098CF05F099CF06F098CF07F041
:101B300099CF08F005500D18D8A4D8D720EE01F0A1
:101B40000150D9260250DA220DC0DFFF20EE02F04C
:101B50000150D9260250DA220EC0DFFF01C0D9FFA2
:101B600002C0DAFF10C0DFFF20EE03F00150D926DB
:101B70000250DA220BC0DFFF1200939693948A96EC
:101B80008A949398939A939C939E0A0E2CEC12F04D
:101B90000A0E2CEC12F00A0E2CEC12F0000E056E60
:101BA000020E056401D008D0030E3CEC0EF00A0EC4
:101BB0002CEC12F0052AF4D7020E3CEC0EF0000ECD
:101BC000056E030E056402D0120012000550010DCF
:101BD0000B0EF324F66E0F0EF420F76E0800F5CF0F
:101BE00003F0000E94EC11F00A0E2CEC12F0052A12
:101BF000030E0564EBD712001200000E286E020ED1
:101C0000276EBDEC0DF0000E0C6E020E0B6E000E7A
:101C10000E6E010E0D6E4D0E0F6E0F0E106E17EC48
:101C200012F0000E0C6E020E0B6E000E0E6E020E07
:101C30000D6E620E0F6E0F0E106E17EC12F0000E8E
:101C40000C6E0A0E0B6E000E0E6E010E0D6E860EE1
:101C50000F6E0F0E106E17EC12F0000E0C6E0A0EC7
:101C60000B6E000E0E6E020E0D6E550E0F6E0F0EE9
:101C7000106E17EC12F01200026E02A003D0016A7F
:101C8000012A01D0016A013A8A500118EF0B0118AC
:101C90008A6E02A203D0016A012A01D0016A013AC8
:101CA00001468A500118DF0B01188A6E02A403D086
:101CB000016A012A01D0016A013A014601468A50AF
:101CC0000118BF0B01188A6E02A603D0016A012A0F
:101CD00001D0016A013201328A5001187F0B0118CC
:101CE0008A6E00F08A8400F000F08A9412009B8EC5
:101CF0009B9CD388D38AD38CD390D392F00E926ED0
:101D0000000E936E070E946E0F0148690F0149692A
:101D10002D0EC26E100EC16E0F013F8F0F013F8B53
:101D2000CD8655EC0AF0BDEC0DF00C0E4DEC12F02A
:101D30008A828A80000E346E010E336E000E366E7B
:101D4000010E356E000E3E6E010E3D6E900E016E60
:101D5000000E026E6E0E036E0F0E046E7BEC11F021
:101D6000120027042810D8A41ED0920E096E0F0E60
:101D70000A6E11EC10F07C0E0D6E000E0E6E7D0ED4
:101D80000F6E0F0E106E3FC011F0126ACCEC07F010
:101D9000950E016E000E026E7C0E036E000E046E38
:101DA000FEEC10F012007C0E0D6E000E0E6E7D0E1D
:101DB0000F6E0F0E106E3FC011F0126ACCEC07F0E0
:101DC0007C0E096E000E0A6E11EC10F0120012006B
:101DD000FC0E0F013F170F013F8198CF0FF099CFF5
:101DE00010F098CF11F099CF12F0FC0E0F013F17B1
:101DF0000F013F8198CF07F099CF08F098CF09F0F5
:101E000099CF0AF009501118D8A4E2D720EE03F0B8
:101E10000150D9260250DA220FC0DFFF20EE02F077
:101E20000150D9260250DA2212C0DFFF20EE01F065
:101E30000150D9260250DA2211C0DFFF1200000E35
:101E4000286E050E276EBDEC0DF0000E0C6E010E17
:101E50000B6E000E0E6E010E0D6E860E0F6E0F0EC7
:101E6000106E17EC12F0000E0C6E0A0E0B6E000EC8
:101E70000E6E010E0D6E450E0F6E0F0E106E17ECEE
:101E800012F0000E0C6E0A0E0B6E000E0E6E020E9D
:101E90000D6E680E0F6E0F0E106E17EC12F0120022
:101EA000000E286E030E276EBDEC0DF0000E0C6EBA
:101EB000010E0B6E000E0E6E010E0D6E620E0F6E99
:101EC0000F0E106E17EC12F0000E0C6E0A0E0B6E59
:101ED000000E0E6E010E0D6E5C0E0F6E0F0E106E6C
:101EE00017EC12F0000E0C6E0A0E0B6E000E0E6E4A
:101EF000020E0D6E730E0F6E0F0E106E17EC12F0B9
:101F00001200000E286E060E276EBDEC0DF0000EBE
:101F10000C6E010E0B6E000E0E6E010E0D6E550E48
:101F20000F6E0F0E106E17EC12F0000E0C6E0A0EF4
:101F30000B6E000E0E6E010E0D6E3D0E0F6E0F0E2F
:101F4000106E17EC12F0000E0C6E0A0E0B6E000EE7
:101F50000E6E020E0D6E780E0F6E0F0E106E17ECD9
:101F600012F01200000E286E040E276EBDEC0DF06C
:101F7000000E0C6E010E0B6E000E0E6E010E0D6E3D
:101F80004D0E0F6E0F0E106E17EC12F0000E0C6E51
:101F90000A0E0B6E000E0E6E010E0D6E8A0E0F6E87
:101FA0000F0E106E17EC12F0000E0C6E0A0E0B6E78
:101FB000000E0E6E020E0D6E8D0E0F6E0F0E106E59
:101FC00017EC12F01200000E066E000E056E0350A4
:101FD0000410D8B421D0010E076E05D0D890033676
:101FE0000436072A00D004BE02D0F8D700D0D8901B
:101FF000053606360350015C04500258D8A006D0BE
:102000000350015E0450025A058000D0D89004327B
:102010000332072EECD700D005C001F006C002F055
:10202000120015D009C0F6FF0AC0F7FFF86A0E0EBD
:10203000F76403D00800F55005D0F6CFE9FFF7CFDD
:10204000EAFFEF50D8EC10F0094A0A2A00D009C084
:10205000F6FF0AC0F7FFF86A0E0EF76403D0080017
:10206000F55005D0F6CFE9FFF7CFEAFFEF500009B2
:10207000D8A4D8D71200020E27182810D8A412000E
:102080000CD0B2EC0FF0120050EC0FF012001FEC6D
:102090000FF0120081EC0FF0120033C011F034C0C9
:1020A00012F01250000AD8A412001150010AD8B43C
:1020B000E8D7030AD8B4E8D7010AD8B4E8D7070AA2
:1020C000D8B4E8D71200120005D0014A022A034A08
:1020D000042A00D001C0D9FF02C0DAFFDF50056E2C
:1020E00003C0D9FF04C0DAFFDF5000080524066EE4
:1020F0000650D8A409D001C0D9FF02C0DAFFDF50D2
:10210000D8B402D0E2D700D00650016E026A01BEF8
:10211000020612001200000E286E010E276E950EA8
:10212000016E000E026E910E036E0F0E046E7BECBC
:1021300011F0BDEC0DF0000E0C6E010E0B6E000EDA
:102140000E6E010E0D6E0F0E0F6E0F0E106E17EC51
:1021500012F0020E056E010EE8EC11F00F0E4DECC0
:1021600012F012000A500B10D8B41DD0010E0C6EE4
:1021700005D0D8900A360B360C2A00D00BBE02D000
:10218000F8D700D00A50085C0B500958D8A005D0E9
:102190000A50085E0B50095A00D0D8900B320A3210
:1021A0000C2EF0D700D008C008F009C009F01200CA
:1021B000086E18D0010E036E000E94EC11F01200A0
:1021C000020E056E010EE8EC11F01200100E036E07
:1021D000000E94EC11F0120008C003F0010E94EC14
:1021E00011F012000850080AD8B4F0D7020AD8B487
:1021F000E7D7060AD8B4DED7EFD7120001C005F042
:1022000002C006F003D0054A062A00D005C0D9FF57
:1022100006C0DAFFDF50D8B407D0F5D705D0054A9D
:10222000062A034A042A00D003C0D9FF04C0DAFFFB
:1022300005C0E1FF06C0E2FFDFCFE7FFE750D8A40B
:10224000EED7120000EE60F03A0EEE6AE806FDE10D
:102250005F6A00EE25F0230EEE6AE806FDE1A80EA7
:10226000F66E240EF76E000EF86E00EE55F010EECE
:102270000AF00900F5CFEEFFE550E150FAE1000E5B
:10228000F86E0001D6EF11F009D08BEC10F01200BF
:10229000FEEC08F012008EEC0CF0120027C013F0D8
:1022A00028C014F01450000AD8A4F5D71350000A1F
:1022B000D8B4EBD7010AD8B41200030AD8B4E8D7CF
:1022C000EAD71200900E016E000E026E950E036E9C
:1022D000000E046E64EC10F001C011F002C012F0A8
:1022E00011501210D8A403D0FDEC0DF012008BECAD
:1022F00010F01200120001C005F002C006F005D077
:10230000054A062A034A042A00D003C0F6FF04C087
:10231000F7FF05C0D9FF06C0DAFF0800F5CFDFFFE1
:10232000DF50D8A4EDD71200046E8A96020E35EC69
:1023300012F09398939A939C939E0450D8B402D031
:102340008A8601D08A9600F003380F0B3CEC0EF021
:1023500003500F0B3CEC0EF01200000E286E000E26
:10236000276EBDEC0DF0000E0C6E010E0B6E000E14
:102370000E6E010E0D6E820E0F6E0F0E106E17ECAC
:1023800012F0120001500302F3CF05F0F4CF06F073
:1023900001500402F350062602500302F3500626B1
:1023A00005C001F006C002F01200120077EC0EF03A
:1023B000ADEC11F000D022EC0CF0AAEC09F02750A3
:1023C0002810D8A4F8D72DEC0DF0F5D700EF00F0C9
:1023D000066E0504D8B402D0400E01D0000E076E80
:1023E00000D00604072607508009036E000E94EC07
:1023F00011F01200036E000E026E3A0E036006D05A
:102400002F0E036403D0010E026E00D002C001F053
:1024100001301200120027502810D8B412002704EF
:102420002810D8B41200FDEC0DF0120012000DC0FF
:1024300005F00B50E8EC11F00FC009F010C00AF0E5
:1024400011EC10F01200F29C550EA76EAA0EA76EAA
:102450000F013F8BF28C1200016EFA0E00F0E82E95
:10246000FDD7012EFAD712001200016E210EE82EC0
:10247000FED700F0012EFAD7120012002704281010
:10248000D8A4120062EC11F012001200920E096E34
:102490000F0E0A6E11EC10F01200056E05C003F06D
:1024A000000E94EC11F01200100006000200120061
:0824B0000900ADEC11F012006F
:08FFF800AEF718FFF3F8FFF16A
:00000001FF
